:100000000C948D000C94B5000C94B5000C94B500C4
:100010000C94B5000C94B5000C94B5000C94251A02
:100020000C94B5000C94B5000C94B5000C946D10B4
:100030000C94B5000C94B5000C94B5000C94B5006C
:100040000C9457130C94B5000C9459160C948B1601
:100050000C94B5000C94B5000C94B5000C94B5004C
:100060000C94B5000C94B5000123456789ABCDEF26
:10007000FEDCBA9876543210F0E1D2C300000008DA
:10008000000201000003040700000000000000005F
:10009000010204081020408001020408102001021F
:1000A00004081020040404040404040402020202EC
:1000B00002020303030303030000000023002600E1
:1000C000290000000000250028002B00000000008F
:1000D000240027002A00024E414E494E49545949F6
:1000E0004E46CDCCCC3D0AD7233C17B7D13877CC80
:1000F0002B329595E6241FB14F0A000020410000E5
:10010000C84200401C4620BCBE4CCA1B0E5AAEC59D
:100110009D74CA000B064C13BB1611241FBECFEFF3
:10012000D8E0DEBFCDBF14E0A0E0B1E0E6E0F2E44D
:1001300002C005900D92A036B107D9F727E0A0E6DE
:10014000B4E001C01D92A532B207E1F711E0CAE1A7
:10015000D1E004C02297FE010E94211CC231D107C8
:10016000C9F70E94FF160C9401210C94000026E0B0
:1001700040E051EE60E070E081E796E00E94FD15FE
:1001800061E776E080E694E00C941B0580E694E05D
:100190000C94F40580E694E00C94CE00CF93DF93AA
:1001A000EC0181E089870E94A113698B7A8B8B8B8C
:1001B0009C8B8EE090E09A83898381E090E09C8321
:1001C0008B839E838D831BA61FA218A619A61AA631
:1001D00082E0888388E090E098A38F8F9AA389A318
:1001E00080ED97E09CA38BA388EE93E09EA38DA364
:1001F000DF91CF910895CF93DF93EC0180E090E001
:100200000E94881E803F31F481E090E00E94881EA9
:100210008D3019F01F8218860AC082E090E00E949B
:10022000881E8F8383E090E00E94881E8887DF917C
:10023000CF910895CF92DF92EF92FF920F931F9389
:10024000CF93DF9300D000D0CDB7DEB77C016B0138
:10025000FB0180E090E000E010E0219130ED320FF2
:100260003A3048F4A1E0B0E0AC0FBD1FA80FB91FB1
:100270002C93019607C02E3229F4FE01E80FF91FD6
:10028000118205C00F5F1F4F0930110531F7CE01F4
:1002900001960E94381CF701878320E030E0093086
:1002A000110509F1F601E00FF11F808190ED980F23
:1002B0009A3050F4E1E0F0E0EC0FFD1FE20FF31F85
:1002C00080832F5F3F4F0CC081110AC0E1E0F0E056
:1002D000EC0FFD1FE20FF31F10822F5F3F4F03C093
:1002E0000F5F1F4FDCCFE1E0F0E0EC0FFD1FE20FEE
:1002F000F31F1082CE0101960E94381CF7018087FF
:1003000060EF80E090E00E94901E6DE081E090E060
:100310000E94901EF701678182E090E00E94901E8B
:10032000F701608583E090E00E94901E0F900F908F
:100330000F900F90DF91CF911F910F91FF90EF9051
:10034000DF90CF9008951F93CF93DF93EC01262F7A
:10035000142F8091A905861751F049815A8166278B
:1003600057FD6095762F89EA95E00E94970F80915E
:100370009D05811759F049815A81662757FD60957F
:10038000762F212F8DE995E00E94970F89EA95E05D
:100390000E949F0F811106C08DE995E00E949F0F7A
:1003A0008823A1F3DF91CF911F910895CF93DF931D
:1003B000EC0189EA95E00E948A0F8DE995E00E94A0
:1003C0008A0F81E08C8FDF91CF910895CF93DF93D7
:1003D000EC0189EA95E00E948E0F8DE995E00E947C
:1003E0008E0F1C8EDF91CF910895CF93DF93EC0198
:1003F00089EA95E00E94910F8DE995E00E94910FA6
:100400001D8E1E8E1BA6DF91CF91089564E670E0CD
:1004100080E090E00E94D013E0910001F091010192
:10042000099421E0FC01258F0895CF93DF938EE09E
:100430000E943C14EC018FE00E943C149E01281B9A
:10044000390BC901DF91CF91089521E0FC01268F7E
:1004500008950F931F93CF93DF93EB0181E10E94E7
:10046000F1148C0180E10E94F11421E0892B09F044
:1004700020E0012B41F4222319F064E071E00AC06E
:1004800069E071E007C0222319F06EE071E002C05C
:1004900064E171E0CE01DF91CF911F910F910C9437
:1004A000681CCF92DF92EF92FF92CF93DF93EC0123
:1004B0006B01EE24D7FCE094FE2CA701960166E0C8
:1004C00071E089E00E94E1170E94A1136C0D7D1D6F
:1004D0008E1D9F1D6FA378A789A79AA7DF91CF9143
:1004E000FF90EF90DF90CF900895CF92DF92EF9240
:1004F000FF92CF93DF93EC0189EA95E00E949F0F72
:10050000811102C080E017C08DE995E00E949F0F25
:100510008823C1F38B8D8111F5CFCFA0D8A4E9A496
:10052000FAA40E94A11321E0C616D706E806F90630
:1005300008F020E0822FDF91CF91FF90EF90DF90C5
:10054000CF9008958F929F92AF92BF92CF92DF92F9
:10055000EF92FF920E94A11324E630E040E050E0C9
:100560000E94EE1B49015A018AE0C82ED12CE12CD1
:10057000F12CCA01B901A70196010E94EE1B672B5D
:10058000682B692B91F0C501B40162507109810992
:100590009109A70196010E94EE1B21E0672B682BB1
:1005A000692B09F020E0622F01C061E08DE0FF902F
:1005B000EF90DF90CF90BF90AF909F908F900C9472
:1005C000BB140F931F93CF93DF93EC018B8D882384
:1005D000D1F10E94AD130F89188D298D3A8D6017C6
:1005E00071078207930778F18B8D81508B8F61E0C3
:1005F00083E00E94BB148D899E89892B29F40E9477
:10060000AD134BA15CA104C00E94AD134DA15EA12E
:1006100000EE1EE2041B150B222717FD2095322F3A
:10062000600F711F821F931F6F8B788F898F9A8F36
:10063000CA010E94F81360E083E0DF91CF911F911F
:100640000F910C94BB14DF91CF911F910F910895DE
:10065000CF93DF93EC018985882361F0CE010E945E
:100660007502811107C08B8D8823C1F3CE010E94D2
:10067000E102F4CFDF91CF9108950F931F93CF93B1
:10068000DF93EC018B0140E061E00E94A3018F8DBC
:1006900098A1089F9001099F300D189F300D1124DB
:1006A0008B819C81289FA001299F500D389F500D60
:1006B0001124662757FD6095762F21E089EA95E0A1
:1006C0000E94970F8F8D98A1089F9001099F300D70
:1006D000189F300D11248B819C81289FA001299F98
:1006E000500D389F500D1124662757FD6095762FC9
:1006F00020E08DE995E00E94970FCE01DF91CF9128
:100700001F910F910C9428030F931F93CF93DF93A6
:10071000EC018B0141E060E00E94A3018F8D98A164
:10072000089F9001099F300D189F300D11248B8177
:100730009C81289FA001299F500D389F500D1124A6
:10074000662757FD6095762F20E089EA95E00E94A4
:10075000970F8F8D98A1089F9001099F300D189FCA
:10076000300D11248B819C81289FA001299F500D61
:10077000389F500D1124662757FD6095762F21E094
:100780008DE995E00E94970FCE01DF91CF911F91E7
:100790000F910C9428030F931F93CF93DF93EC01D9
:1007A0008B0141E061E00E94A30189A19AA1089F09
:1007B0009001099F300D189F300D11248D819E816D
:1007C000289FA001299F500D389F500D11246627A6
:1007D00057FD6095762F21E089EA95E00E94970FFA
:1007E00089A19AA1089F9001099F300D189F300D93
:1007F00011248D819E81289FA001299F500D389F33
:10080000500D1124662757FD6095762F21E08DE964
:1008100095E00E94970FCE01DF91CF911F910F912C
:100820000C9428030F931F93CF93DF93EC018B015C
:1008300040E060E00E94A30189A19AA1089F900175
:10084000099F300D189F300D11248D819E81289FA6
:10085000A001299F500D389F500D1124662757FD88
:100860006095762F20E089EA95E00E94970F89A194
:100870009AA1089F9001099F300D189F300D1124F7
:100880008D819E81289FA001299F500D389F500D7A
:100890001124662757FD6095762F20E08DE995E0BD
:1008A0000E94970FCE01DF91CF911F910F910C9471
:1008B00028030F931F93CF93DF93EC0189EA95E010
:1008C0000E949F0F8823E9F18DE995E00E949F0F18
:1008D0008823B9F18EE00E943C148C018FE00E94C5
:1008E0003C149801281B390BC90126303105BCF096
:1008F0008881813049F461E070E0CE01DF91CF91D1
:100900001F910F910C9412048230D9F461E070E0D1
:10091000CE01DF91CF911F910F910C94CB038B3FB0
:100920009F4F34F48881813089F3823051F4E3CFD2
:1009300065E070E0CE01DF91CF911F910F910C9493
:100940003D03DF91CF911F910F9108950F931F9356
:10095000CF93DF93EC0181E10E94F1148C0180E1DF
:100960000E94F1142F853889232BE9F4012B19F407
:1009700083E090E004C0892B69F481E090E0988BDB
:100980008F8762E370E0CE01DF91CF911F910F91CD
:100990000C9484036AE070E0CE01DF91CF911F9147
:1009A0000F910C943D0389EA95E00E949F0F8823E4
:1009B00091F18DE995E00E949F0F882361F18F8569
:1009C00098898230910519F4188A1F8624C08330D3
:1009D00091057CF40197F9F482E090E0988B8F8781
:1009E0006AE570E0CE01DF91CF911F910F910C94D9
:1009F000CB038330910569F484E090E0988B8F8776
:100A00006AE570E0CE01DF91CF911F910F910C94B8
:100A100012040497C9F2DF91CF911F910F910895AD
:100A2000FC01168A158A2FE0238F178A108E118EEB
:100A3000128E0C9428030F931F93CF93DF93EC0136
:100A40008B0181E00E943F0F61E083E00E948214ED
:100A500062E081E10E94821462E080E10E948214DF
:100A6000188A1F861E8A1D8A8FE08B8F1F8A188E18
:100A7000198E1A8E1986AE01B8018CE894E00E9496
:100A8000480761E08DE00E948214CE010E941005AB
:100A9000CE01DF91CF911F910F910C94FB0021E0CB
:100AA00030E0FC01368B258B2FE0238F178A108EC8
:100AB000118E128E0C942803FC01258D21110C94AB
:100AC0005904FC01268D21110C94A60408950F935E
:100AD0001F93CF93DF93EC018A85882339F181E15D
:100AE0000E94F11401E0892B09F000E080E10E94EE
:100AF000F11421E0892B09F020E0102F110F122BA7
:100B00008C85181799F0002341F0222319F064E036
:100B100071E007C069E071E004C0222331F06EE0AB
:100B200071E08CE894E00E942E0C1C878B85882352
:100B3000A9F08EE00E943C148C018FE00E943C14CE
:100B4000081B190B8D859E850817190729F0B80118
:100B50008CE894E00E94350C1E870D87DF91CF91C1
:100B60001F910F910895FC017283618321E023A7F7
:100B700041E050E060E070E089EA95E00E94970F64
:100B800020E041E050E060E070E08DE995E00C94F9
:100B9000970FCF93DF93EC01CB01BA010E94861A25
:100BA0007C836B83DF91CF910895CF93DF93EC012A
:100BB000CB01BA010E94861A7E836D83DF91CF91AB
:100BC0000895FC0123A5222371F041E020919D05A9
:100BD000213009F440E061E02091A905213009F4B9
:100BE00060E00C94A3010895CF93DF93EC010E9481
:100BF000A202CE010E94E102CE010E945C05CE015C
:100C00000E94E105CE010E9467058CE894E0DF9127
:100C1000CF910C94390E4DE165E270E089EA95E0E0
:100C20000E940E1040EF6BE270E08DE995E00E94AB
:100C30000E108CE894E00C94EC06DC01FB01808142
:100C4000869586958C9390819370818182958F7023
:100C500020E1929F800D112411968C931197818130
:100C60008F70880F880F92819295969596959370C4
:100C7000890F12968C93129782818F7313968C939F
:100C800008958F929F92AF92BF92CF92DF92EF9290
:100C9000FF920F931F93CF93DF93CDB7DEB72797C4
:100CA0000FB6F894DEBF0FBECDBF7C015A016B01B9
:100CB000A60EB71E00E010E020E030E04E0185E017
:100CC000880E911CCA14DB0439F1C9010196D601C2
:100CD0004D916D01F401E20FF31F408383309105C4
:100CE000C9F4B401CE0101960E941D06FE013196A1
:100CF000C701800F911FA191B0E0A75EBE4F2C915C
:100D0000DC012D93CD01E815F905A9F70C5F1F4F04
:100D100080E090E09C01D6CF69012115310509F4EE
:100D200043C02330310554F4E5E0F0E0EC0FFD1F43
:100D3000E20FF31F10822F5F3F4FF3CFBE016B5FB7
:100D40007F4FFE0131965F01CF010E941D06F50124
:100D5000C701800F911FA191B0E0A75EBE4F2C91FB
:100D6000DC012D93CD019F012A193B09C216D30640
:100D700094F70F5F1F4FC601D7FE02C080E090E0DE
:100D8000080F191FF701E00FF11FCE18DF08C01A76
:100D9000D10A2DE38F010E191F09C6018E0F9F1F67
:100DA000039714F42193F6CFF701E00FF11F10829F
:100DB000C80127960FB6F894DEBF0FBECDBFDF91F6
:100DC000CF911F910F91FF90EF90DF90CF90BF9048
:100DD000AF909F908F900895CF93DF93EC011F8287
:100DE0001E82FC01E550FF4F108231961182108265
:100DF0006AE571E008960E94681CC35FDE4F1882A6
:100E000019821A821B82DF91CF910895CF93DF93CD
:100E1000EC0167E971E0888199810E944C17C45008
:100E2000DF4F82E090E099838883DF91CF9108952E
:100E3000CF93DF93EC0184E090E004B601FE1BC089
:100E40000E94881E61E0680F633020F0CE010E948E
:100E5000060760E084E090E00E94901E0E94A113CB
:100E6000C35FDE4F68577C4E8F4F9F4F68837983F7
:100E70008A839B8309C00E94881E882329F060E032
:100E800084E090E00E94901E14BEDF91CF910895FF
:100E9000FC011582148271836083538342830C9416
:100EA0001807CF92DF92EF92FF920F931F93CF9389
:100EB000DF93EC018C0104501F4FF8018081918178
:100EC0008230910509F048C0613671F46BE971E038
:100ED00088819981DF91CF911F910F91FF90EF90C1
:100EE000DF90CF900C944C177E01FAEFEF0EF11CBF
:100EF000F701908181E0890F8083FE01E90FF11DE8
:100F0000EA5BFF4F6083833008F46EC06E01F6E445
:100F1000CF0ED11C43E050E06DE971E0C6010E94A4
:100F20006F1C892B31F483E090E0F801918380837A
:100F300042C043E050E067E971E0C6010E946F1CC7
:100F4000892B09F051C06CEC72E0888199810E9474
:100F50004C1786E090E045C08330910549F461EA82
:100F600071E0888199810E94521784E090E039C035
:100F70008430910571F5CE0186509F4F7C016D3014
:100F800011F06A30D9F4F70180818823B9F043E089
:100F900050E06DE971E0CE018A5B9F4F0E946F1CAB
:100FA000892B49F460EB71E0888199810E94521786
:100FB000F80111821082F701108216C0F7018081BA
:100FC00091E0980F9083C80FD11DCA5BDF4F6883F3
:100FD0000BC0069749F46D3011F06A3029F483E0B4
:100FE00090E0F80191838083DF91CF911F910F9161
:100FF000FF90EF90DF90CF900895DF92EF92FF92F5
:101000000F931F93CF93DF93CDB7DEB7E3970FB660
:10101000F894DEBF0FBECDBF8C01FC01E650FF4F40
:10102000D08086E18D1598F447E150E065EB71E0E2
:10103000C8018A5B9F4F0E946F1C892B59F481E085
:1010400090E0D80115969C938E931497B1C0B2E1AD
:10105000BD15A0F57801E6E4EE0EF11C4AE050E083
:101060006DEC71E0C7010E946F1C892B41F484E094
:1010700090E0D80115969C938E93149779C0BBE2AB
:10108000DB121CC043E150E068ED71E0C7010E9433
:101090006F1C892B09F08BC0B801675A7F4F48E15C
:1010A00050E0C80108960E947D1C82E090E0F801A3
:1010B00095838483EB5BFF4F10825AC0D11077C0B9
:1010C000D80114968D919C9115978230910509F065
:1010D00051C07801B5E4EB0EF11CF70180818F5F00
:1010E0008083843009F063C087EB95E00E94911003
:1010F000B801685F7F4F87EB95E00E944C1787EB44
:1011000095E00E942A13FE017F969E012D5C3F4FC1
:10111000BF01DC014D91CD014193E217F307C9F7FF
:101120001BAA44E150E0CE0101960E9441066CEEFC
:1011300071E0F801808191810E944C17BE016F5FC0
:101140007F4FD8018D919C910E944C176AEC72E000
:10115000F801808191810E944C17D7011C9283E095
:1011600090E0F8019583848382E090E09783868302
:1011700081E01EC00597D9F4F801EB5BFF4F808139
:101180008F5F8083843099F486E090E0D8011596D3
:101190009C938E93149781E090E017969C938E9386
:1011A00016976EE472E08D919C910E944C1780E03E
:1011B000E3960FB6F894DEBF0FBECDBFDF91CF919F
:1011C0001F910F91FF90EF90DF900895AF92BF9223
:1011D000CF92DF92EF92FF920F931F93CF93DF9303
:1011E0001F92CDB7DEB75C016B017A018901FB016B
:1011F00001900020E9F73197E61BF70BDA018C919B
:10120000811103C07DE07E0F0AC0DA010D9000203D
:10121000E9F71197A41BB50B77E17E0F7A0FF80160
:101220008081882349F0D8010D900020E9F71197BB
:10123000A01BB10B775F7A0FD50116962D913C91CB
:1012400017978D919C9122303105B1F4DC01ED911D
:10125000FC910190F081E02D61E879830995F50119
:1012600080819181FC01A081B1817981672F6F77A5
:10127000ED91FC91099508C02130310529F44AE02F
:1012800050E0672F0E94CA176FE972E0D5018D9177
:101290009C910E944C17B601F501808191810E94BA
:1012A0004C176CEB72E0D5018D919C910E944C170C
:1012B000F70180818823A1F06BEA72E0D5018D915E
:1012C0009C910E944C17B701F501808191810E9489
:1012D0004C176CEB72E0D5018D919C910E944C17DC
:1012E000F80180818823A1F065EB72E0D5018D9132
:1012F0009C910E944C17B801F501808191810E9458
:101300004C176CEB72E0D5018D919C910E944C17AB
:101310006EEB72E0F501808191810E944C17D5013E
:1013200016968D919C911797019771F460EC72E07D
:10133000C6010E945F1C892B39F469EC72E0F5014B
:10134000808191810E944C17D50116968D919C91B8
:101350001797892B89F46CEC72E08D919C910F901A
:10136000DF91CF911F910F91FF90EF90DF90CF9081
:10137000BF90AF900C944C170F90DF91CF911F91BD
:101380000F91FF90EF90DF90CF90BF90AF900895B6
:101390006F927F928F929F92AF92BF92CF92DF9285
:1013A000EF92FF920F931F93CF93DF93CDB7DEB7EA
:1013B00028970FB6F894DEBF0FBECDBF8C016B012E
:1013C0005A0179016FEC72E0C6010E945F1C892B03
:1013D00009F460C164ED72E0C6010E945F1C892BB4
:1013E00081F497014EEC52E060EC72E0C8010E947B
:1013F000E608D80112968D919C9113970E940602DF
:1014000018C263EF72E0C6010E945F1C892B21F4B1
:1014100097014AED52E041C161EF72E0C6010E94BE
:101420005F1C892B91F4D8011296ED91FC911397D2
:1014300087819085811106C0911104C0970140EE0B
:1014400052E02BC11F929F9318C06EEE72E0C6014E
:101450000E945F1C892B59F5B501D80112968D9118
:101460009C9113970E941A01D8011296ED91FC915C
:10147000139780851F928F9387811F928F9388EE99
:1014800092E09F938F93FE0131966F01DF92EF936D
:101490000E94941C9701A60160EC72E0C8010E94B2
:1014A000E6080FB6F894DEBF0FBECDBFC2C16BEF2A
:1014B00072E0C6010E945F1C892B41F4D80112968C
:1014C0008D919C9113970E94D601E4C061E073E076
:1014D000C6010E945F1C892B31F4F801828193813F
:1014E0000E94E601D7C068E073E0C6010E945F1C5D
:1014F000892B41F4D80112968D919C9113970E94EB
:10150000F501C8C06DE073E0C6010E945F1C892B25
:1015100069F4BE016F5F7F4FF801828193810E9461
:1015200029029701AE014F5F5F4FB7C06AE173E0D8
:10153000C6010E945F1C892B89F468E273E0C50133
:101540000E945F1CD8011296ED91FC911397892B94
:1015500011F412869FC081E082879CC06EE273E026
:10156000C6010E945F1C892B79F4F8018281938166
:101570000E9415029F938F938BEE92E09F938F931F
:10158000CE0101966C014FC06AE373E0C6010E9470
:101590005F1C892B89F468E273E0C5010E945F1C1F
:1015A000D8011296ED91FC911397892B11F41386B3
:1015B00071C081E083876EC067E473E0C6010E945A
:1015C0005F1C892B49F4D8011296ED91FC91139779
:1015D00082818F9381811FC068E573E0C6010E94FC
:1015E0005F1C892B49F4D8011296ED91FC91139759
:1015F00084818F9383810FC068E673E0C6010E94E7
:101600005F1C892B11F5D8011296ED91FC9113976F
:1016100086818F9385818F938BEE92E09F938F933A
:10162000FE0131966F01DF92CF920E94941C9701C8
:10163000A60160EC72E0C8010E94E6080F900F90CE
:101640000F900F900F900F90F4C068E773E0C60101
:101650000E945F1C892B69F4C5010E94341CAB01F8
:10166000BC01D80112968D919C9113970E94C905D7
:1016700011C066E873E0C6010E945F1C892B81F4EB
:10168000C5010E94341CAB01BC01F8018281938129
:101690000E94D50597014EEC52E060EC72E0C6C0A6
:1016A0003801FBEF6F0E711CD3018C91882321F060
:1016B000970144E953E0B2C04801BEEF8B0E911C84
:1016C000B701C4010E94681C81E0F301808368EBCC
:1016D00073E0C6010E945F1C892B61F4C5010E9462
:1016E000381CBC01D80112968D919C9113970E94D1
:1016F0003D0397C060EC73E0C6010E945F1C892B1C
:1017000051F4C5010E94381CBC01F801828193810B
:101710000E94840386C06EE071E0C6010E945F1CD7
:10172000892B61F4C5010E94381CBC01D8011296B6
:101730008D919C9113970E94120473C069E071E02F
:10174000C6010E945F1C892B51F4C5010E94381C00
:10175000BC01F801828193810E94CB0362C065ECD9
:1017600073E0C6010E945F1C892B41F4D8011296D8
:101770008D919C9113970E94100553C06BEC73E000
:10178000C6010E945F1C892B31F4F801828193818C
:101790000E944F0546C063ED73E0C6010E945F1CC6
:1017A000892B41F4D80112968D919C9113970E9438
:1017B000110237C06AED73E0C6010E945F1C892BDD
:1017C00031F4F801828193810E9425022AC062EEE1
:1017D00073E0C6010E945F1C892B61F4C5010E9461
:1017E000381CBC01D80112968D919C9113970E94D0
:1017F000510217C067EE73E0C6010E945F1C892B7F
:1018000051F4C5010E94381CBC01F801828193810A
:101810000E94B30506C0970146EF53E062EB73E008
:1018200005C094014EEC52E06DE074E0C8010E94E6
:10183000E60828960FB6F894DEBF0FBECDBFDF9145
:10184000CF911F910F91FF90EF90DF90CF90BF90BD
:10185000AF909F908F907F906F900895AB012AED8D
:1018600033E066E174E00C94E608EF92FF920F9388
:101870001F93CF93DF9300D000D000D0CDB7DEB759
:101880007C017F936F932BEE32E03F932F938E0179
:101890000F5F1F4F1F930F930E94941C23ED33E0A3
:1018A000A80166E174E0C7010E94E6080F900F905E
:1018B0000F900F900F900F9026960FB6F894DEBF02
:1018C0000FBECDBFDF91CF911F910F91FF90EF9091
:1018D00008950F931F93CF93DF93FA0110E0C0E0B8
:1018E000D0E050E080E090E04081442309F467C0FC
:1018F0008130910569F08330910559F1009709F025
:101900005CC0423209F059C050E081E090E055C01F
:10191000423261F4CF010196FC01408101964A33C5
:10192000D9F34032C9F383E090E013C0DB01A50F87
:10193000B11D57FDBA95AC91A4133FC05F5FDB01A9
:10194000A50FB11D57FDBA954C91411136C0D1E09C
:1019500034C0408111110BC0C11102C04B3509F1D7
:10196000423209F1CC2349F04D3521F41EC04232F8
:1019700079F41DC0403261F420C04C3221F0403275
:1019800011F04D3729F4DD23A1F0F901108217C0C1
:10199000DD2399F0D9014D93015071F4F9011182C1
:1019A0000EC0C1E00AC011E008C0C0E006C010E0EF
:1019B00004C080E090E001C09D01319695CFDF9199
:1019C000CF911F910F910895CF92DF92EF92FF92E6
:1019D0000F93CF93DF93CDB7DEB7A4970FB6F894EC
:1019E000DEBF0FBECDBF7C01FC01E650FF4F808102
:1019F0008823D9F1670196E4C90ED11CF6019081C4
:101A00009B3799F5F701E80FF11DEB5BFF4F8081E4
:101A10008D3759F50DE09E012F5F3F4FA6016DE117
:101A200074E0C7010E94690C0AE09E01265E3F4FE8
:101A3000A60161E274E0C7010E94690C9E01215F6A
:101A40003F4FA60165E274E0C7010E94690C9E0148
:101A5000215F3F4FAE01465E5F4FBE016F5F7F4F1C
:101A6000C7010E94C80981E001C080E0A4960FB6BA
:101A7000F894DEBF0FBECDBFDF91CF910F91FF90E5
:101A8000EF90DF90CF900895CF93DF93EC01FC01AE
:101A9000E650FF4F8081882399F0E45BF109908143
:101AA0009B3771F4FE01E80FF11DEB5BFF4F808166
:101AB0008D3731F41F821E82CE010E94E40C0DC0CE
:101AC000CE010E94FD07811108C081E02C813D817B
:101AD0002330310519F480E001C081E0DF91CF911E
:101AE0000895AF92BF92CF92DF92EF92FF920F9341
:101AF0001F93CF93DF9300D000D0CDB7DEB78C011A
:101B000019821A821B821C82DC0114968D919C9191
:101B10001597039709F09DC0F801E650FF4F8081AB
:101B2000873008F496C0AA5BBF4F9C91792F7F70D5
:101B300097FD05C0713019F0783009F08AC0D801DE
:101B4000A95BBF4F6C91B62FBF77FB2E2B2F30E0D8
:101B5000A9014B5F5F4F90E0481759070CF079C01F
:101B60005CE75B1708F46AC067FD03C0E02EC8019C
:101B70000FC0D801A85BBF4F8C91898311968C91BF
:101B80008A8311968C918B8311968C918C83EECFE6
:101B9000482F4E194F15C0F45C01A6E4AA0EB11CE3
:101BA0004370CC24C394D12CCC0EDD1EC40ED11CAA
:101BB000AC01445B5F4FD6016C91DA014C91642714
:101BC000D5016C930196E4CFF082200F311FF9010B
:101BD000EA5BFF4F1082783069F5F80180819181CE
:101BE000DC01ED91FC910190F081E02D68E8099510
:101BF000F80180819181DC01ED91FC910190F081EF
:101C0000E02D62E00995F80180819181DC01ED9180
:101C1000FC910190F081E02D63E00995F80180814D
:101C20009181DC01ED91FC910190F081E02D69EE54
:101C300009950DC0C8010E94E40C09C02EEC32E0E9
:101C400048E254E062EB73E0C8010E94E60881E0DC
:101C500001C080E00F900F900F900F90DF91CF9117
:101C60001F910F91FF90EF90DF90CF90BF90AF90BA
:101C70000895AF92BF92CF92DF92EF92FF920F93AF
:101C80001F93CF93DF931F92CDB7DEB75C018C011A
:101C900005501F4FD8018C91882379F0F50182817E
:101CA00093810E947502882341F0F501E450FF4FB3
:101CB00080819181892B09F471C08501035F1E4FDA
:101CC000D801CD90DD90ED90FC901C141D041E04F5
:101CD0001F0444F40E94A113C616D706E806F906AD
:101CE00008F469C0F50180819181DC01ED91FC91DE
:101CF0000480F581E02D09958501075F1E4F1816B8
:101D00001906B4F50E94A113F801608371838283E0
:101D10009383D5018D919C91DC01ED91FC9106801E
:101D2000F781E02D0995682FF501E450FF4F2081E0
:101D30003181232B71F0C5010F90DF91CF911F915D
:101D40000F91FF90EF90DF90CF90BF90AF900C94E9
:101D50005107850106501F4F8D3011F08A30B9F5BB
:101D6000C50169830E94440D698181114FC02FC054
:101D70000E94A113D801CD90DD90ED90FC906C19DC
:101D80007D098E099F09643F71408105910508F422
:101D90003FC0F501E650FF4F10823AC0F8011082B3
:101DA000950122503F4F4EEC52E060EC72E0C501CD
:101DB0000E94E60882CFD8011D921D921D921C92AE
:101DC000139760E084E090E00E94901E8BCFD801D2
:101DD0008C9191E0980F9C93F501E80FF11DEA5B5F
:101DE000FF4F6083C5010E94710D882311F0F80137
:101DF0001082D8018C91843B59F42EEC32E048E2F9
:101E000054E062EB73E0C5010E94E608F801C4CF1C
:101E10000F90DF91CF911F910F91FF90EF90DF9086
:101E2000CF90BF90AF900895FC01218132812115A0
:101E3000310511F0C901F8CFFC0172836183089567
:101E4000FC01848195818532910529F484B19681C4
:101E5000892B84B90EC08832910529F487B1968107
:101E6000892B87B906C08B9721F48AB19681892B7B
:101E70008AB90180F281E02D309719F70895CF9348
:101E8000C82F8091B5059091B605009711F00E947A
:101E9000200FF894C130F1F410928000109281006C
:101EA000109285001092840080EC9DE5909389004B
:101EB0008093880080918100886080938100809168
:101EC000810081608093810080916F0082608093A7
:101ED0006F001DC01092B0001092B1001092B200BD
:101EE0008DE58093B3008091B00082608093B00054
:101EF0008091B10082608093B1008091B1008460D4
:101F00008093B1008091700082608093700078941B
:101F1000CF91089521E0FC0123830895FC011382F1
:101F20000895FC0117821086118612860895FC011F
:101F30004783508761877287238720830895FC0138
:101F4000478150856185728581E0452B462B472B63
:101F500009F080E0089590E080E040FF06C060FF57
:101F600002C0806801C08F776695973011F0869522
:101F700046959F5F983089F708951F93CF93DF931D
:101F8000FC01C481D58128814681142F109512232C
:101F90000E94AB0F812B8883DF91CF911F91089511
:101FA00098E080E040FF08C060FF02C0886001C088
:101FB000877F413009F0869566954695915091F757
:101FC0000895CF93DF93EC01EC81FD8160814E8118
:101FD0000E94D00F823051F028F0843061F08830B8
:101FE00079F012C08B85813049F40FC08B85813028
:101FF00071F081E00DC08B85813039F488E008C034
:102000008B85813021F404C003C082E001C084E0EC
:10201000DF91CF91089560E00C94BD0FCF93DF93D3
:10202000EC017D836C834E831F82188619861A8685
:102030001B820E940B108091B5059091B605009708
:1020400029F0BE01DF91CF910C94140FD093B60507
:10205000C093B505DF91CF910895CF93DF93EC0145
:102060004F81588569857A85141615061606170658
:102070001CF48B81882329F0CE01DF91CF910C9441
:102080000B104F81588569857A8541505109610946
:1020900071094F83588769877A87CE010E94E10FC3
:1020A000682FCE01DF91CF910C94BD0FCF93DF93BA
:1020B000EC01CE010E942D100980DA81C02D2097FD
:1020C000C1F7DF91CF9108958091B5059091B60544
:1020D000009711F00C94561008951F920F920FB6AE
:1020E0000F9211242F933F934F935F936F937F939E
:1020F0008F939F93AF93BF93EF93FF930E946410CE
:10210000FF91EF91BF91AF919F918F917F916F91CF
:102110005F914F913F912F910F900FBE0F901F90A5
:102120001895CF93DF93EC0144E150E068E670E04E
:102130008B5B9F4F0E94561CFE01E75AFF4F108297
:10214000118212821382CC5BDF4F1882DF91CF9114
:1021500008952F923F924F925F926F927F928F924B
:102160009F92AF92BF92CF92DF92EF92FF920F9326
:102170001F93CF93DF93CDB7DEB7A0970FB6F89438
:10218000DEBF0FBECDBF9E8F8D8F9C012B5B3F4F5F
:10219000D9014D915D916D917C914D835E836F83EB
:1021A00078872C5F3F4FD9014D915D916D917C9166
:1021B00049875A876B877C872C5F3F4FD9014D91A8
:1021C0005D916D917C914D875E876F87788B2C5FD9
:1021D0003F4FD9014D915D916D917C91498B5A8B07
:1021E0006B8B7C8B2C5F3F4FD9014D915D916D9135
:1021F0007C914D8B5E8B6F8B788F498F5A8F6B8F55
:102200007C8F09891A892B893C89CD84DE84EF84EF
:10221000F88889849A84AB84BC844D815E816F8107
:10222000788549835A836B837C83212C312C422D02
:10223000403198F4D901C8018C259D25AE25BF25D4
:1022400088219921AA21BB2180279127A227B32782
:1022500087569648AD47B54A8FC0822D8F706D8DD9
:102260007E8D54E0859F600D711D1124D1011D9656
:10227000AF70BB271196AA0FBB1FAA0FBB1F8D8D76
:102280009E8DA80FB91FF1013896EF70FF27319688
:10229000EE0FFF1FEE0FFF1FE80FF91F8D919D91AD
:1022A0000D90BC91A02D4080518062807380842568
:1022B0009525A625B725FB0144805580668077804B
:1022C00084259525A625B725F1013296EF70FF27C5
:1022D0003196EE0FFF1FEE0FFF1F6D8C7E8CE60D0B
:1022E000F71D408051806280738084259525A62546
:1022F000B725880F991FAA1FBB1F811DFB0184836F
:102300009583A683B783443108F494CFD701C601DF
:10231000483268F488259925AA25BB25802791276E
:10232000A227B3278F559441A642B14925C04C330B
:10233000B8F488299929AA29BB2980239123A223AB
:10234000B32326013701482059206A207B208429A5
:102350009529A629B72984529344A44EB0470CC0AE
:1023600088259925AA25BB2580279127A227B32751
:102370008A529E43AD49B5434F706D8C7E8C54E0BC
:10238000459F600C711C112478A26F8E49815A817F
:102390006B817C81EBE17695679557954795EA953A
:1023A000D1F749805A806B807C80F5E0440C551C45
:1023B000661C771CFA95D1F7442955296629772997
:1023C000EF8DF8A14480558066807780440D551DBF
:1023D000661D771D480F591F6A1F7B1F898D9A8DB7
:1023E000AB8DBC8D480F591F6A1F7B1FD501C401DF
:1023F000E2E0B695A79597958795EA95D1F7FEE126
:10240000880C991CAA1CBB1CFA95D1F7882A992A1A
:10241000AA2ABB2A9FEF291A390AA0E52A163104F5
:1024200089F0098F1A8F2B8F3C8F970186017501D8
:10243000640189809A80AB80BC8049835A836B8316
:102440007C83F5CEED8DFE8DEB5BFF4F8D819E8104
:10245000AF81B885480F591F6A1F7B1F4083518386
:10246000628373836D8C7E8C99E4690E711C898103
:102470009A81AB81BC8149855A856B857C85840FA7
:10248000951FA61FB71FF30180839183A283B38397
:10249000ED8DFE8DE35BFF4F4D855E856F85788901
:1024A000840E951EA61EB71E80829182A282B382E0
:1024B000ED8DFE8DEF5AFF4F69897A898B899C8952
:1024C000C60ED71EE81EF91EC082D182E282F382B8
:1024D0004D8D5E8D4B5A5F4F8D899E89AF89B88D2A
:1024E000080F191F2A1F3B1FDA010D931D932D930F
:1024F0003C931397A0960FB6F894DEBF0FBECDBFE6
:10250000DF91CF911F910F91FF90EF90DF90CF90CF
:10251000BF90AF909F908F907F906F905F904F9003
:102520003F902F900895CF93DF93EC01CC5BDF4F6A
:10253000388123E02327FC01E20FF11D648321E0B1
:10254000230F2883203419F40E94A9101882DF91E8
:10255000CF910895262FFC01E75AFF4F408151810A
:10256000628173814F5F5F4F6F4F7F4F4083518315
:1025700062837383622F0E94931281E090E008953A
:102580000F931F93CF93DF93EC0160E80E949312A7
:102590008E010C5B1F4FF801808160E0883321F0D1
:1025A000CE010E949312F7CFCE010E94931260E0F9
:1025B000CE010E94931260E0CE010E9493128E0120
:1025C000075A1F4FF8016081718182819381EDE18B
:1025D0009695879577956795EA95D1F7CE010E94F4
:1025E0009312F8016081718182819381F5E1969562
:1025F000879577956795FA95D1F7CE010E9493124A
:10260000F8016081718182819381ADE09695879513
:1026100077956795AA95D1F7CE010E949312F8019C
:102620006081718182819381B5E0969587957795D8
:102630006795BA95D1F7CE010E949312F801608197
:10264000660F660F660FCE01DF91CF911F910F913C
:102650000C949312CF93DF93EC010E94C012AE0151
:1026600025E030E0FA01EB5BFF4F608171818281F0
:1026700093810E940D1C6083718382839383215018
:1026800031094C5F5F4F2115310561F7CE018B5B3E
:102690009F4FDF91CF9108951092BA051092B9051E
:1026A0008DE394E09093B8058093B70508951F9249
:1026B0000F920FB60F9211242F933F938F939F93F6
:1026C000AF93BF938091690690916A06A0916B06C3
:1026D000B0916C063091680626E0230F2D3720F468
:1026E0000296A11DB11D05C029E8230F0396A11D67
:1026F000B11D209368068093690690936A06A093A3
:102700006B06B0936C0680916D0690916E06A09159
:102710006F06B09170060196A11DB11D80936D06E4
:1027200090936E06A0936F06B0937006BF91AF9121
:102730009F918F913F912F910F900FBE0F901F90FF
:1027400018952FB7F8946091690670916A06809188
:102750006B0690916C062FBF08953FB7F894809157
:102760006D0690916E06A0916F06B091700626B529
:10277000A89B05C02F3F19F00196A11DB11D3FBFB9
:102780006627782F892F9A2F620F711D811D911D49
:1027900043E0660F771F881F991F4A95D1F7089568
:1027A000CF92DF92EF92FF92CF93DF936B017C0188
:1027B0000E94AD13EB01C114D104E104F10489F0CE
:1027C0000E94811A0E94AD136C1B7D0B683E734002
:1027D00090F381E0C81AD108E108F108C851DC4F34
:1027E000EACFDF91CF91FF90EF90DF90CF900895E7
:1027F0008330910528F0880F991F04970197F1F70E
:102800000895789484B5826084BD84B5816084BD68
:1028100085B5826085BD85B5816085BDEEE6F0E059
:10282000808181608083E1E8F0E0108280818260B5
:102830008083808181608083E0E8F0E08081816036
:102840008083E1EBF0E0808184608083E0EBF0E066
:10285000808181608083EAE7F0E08081846080830A
:1028600080818260808380818E7F80838081806888
:1028700080831092C10008958E3008F08E508770CA
:102880002091020190E4299F90011124822B8093D2
:102890007C0080917A00806480937A0080917A0035
:1028A00086FDFCCF809178002091790090E0922BFA
:1028B0000895833081F028F4813099F08230A1F0BE
:1028C00008958730A9F08830B9F08430D1F4809130
:1028D00080008F7D03C0809180008F77809380007F
:1028E000089584B58F7702C084B58F7D84BD089527
:1028F0008091B0008F7703C08091B0008F7D80936E
:10290000B0000895CF93DF9390E0FC01E057FF4FB4
:102910002491FC01EC55FF4F8491882349F190E00C
:10292000880F991FFC01E453FF4FA591B4918E537A
:102930009F4FFC01C591D4919FB7611108C0F894D5
:102940008C91209582238C93888182230AC06230E7
:1029500051F4F8948C91322F309583238C93888195
:10296000822B888304C0F8948C91822B8C939FBF18
:10297000DF91CF9108950F931F93CF93DF931F9211
:10298000CDB7DEB7282F30E0F901E458FF4F84912E
:10299000F901E057FF4F1491F901EC55FF4F0491F5
:1029A0000023C9F0882321F069830E9459146981AA
:1029B000E02FF0E0EE0FFF1FEE53FF4FA591B49113
:1029C0009FB7F8948C91611103C01095812301C0C9
:1029D000812B8C939FBF0F90DF91CF911F910F910F
:1029E0000895CF93DF93282F30E0F901E458FF4F8B
:1029F0008491F901E057FF4FD491F901EC55FF4F55
:102A0000C491CC2391F081110E945914EC2FF0E075
:102A1000EE0FFF1FE854FF4FA591B4912C912D2389
:102A200081E090E021F480E002C080E090E0DF915E
:102A3000CF910895FC01818D228D90E0805C9F4FA5
:102A4000821B91098F7399270895FC01918D828DC6
:102A5000981731F0828DE80FF11D858D90E0089573
:102A60008FEF9FEF0895FC01918D828D981761F093
:102A7000828DDF01A80FB11D5D968C91928D9F5FB5
:102A80009F73928F90E008958FEF9FEF089581EBF1
:102A900096E1892B49F080E090E0892B29F00E9493
:102AA000B11681110C9400000895FC01848DDF01A2
:102AB000A80FB11DA35ABF4F2C91848D90E00196B1
:102AC0008F739927848FA689B7892C93A089B189A0
:102AD0008C9180648C93938D848D981306C00288AA
:102AE000F389E02D80818F7D80830895CF93DF93DC
:102AF000EC01888D8823C9F0EA89FB89808185FDF6
:102B000005C0A889B9898C9186FD0FC00FB607FC56
:102B1000F5CF808185FFF2CFA889B9898C9185FF97
:102B2000EDCFCE010E945515E7CFDF91CF910895EB
:102B3000CF92DF92FF920F931F93CF93DF931F9259
:102B4000CDB7DEB76C0181E0D60158968C935897CB
:102B50005B969C915B975C968C915C97981307C0F1
:102B60005096ED91FC915197808185FD2EC0F60124
:102B7000038D10E00F5F1F4F0F731127F02EF6012A
:102B8000848DF81211C00FB607FCF9CFD60150960C
:102B9000ED91FC915197808185FFF1CFC60169834A
:102BA0000E9455156981EBCF838DE80FF11DE35A23
:102BB000FF4F6083D6015B960C935B975296ED9125
:102BC000FC915397808180620CC0D6015696ED919E
:102BD000FC91579760835096ED91FC9151978081BD
:102BE0008064808381E090E00F90DF91CF911F910E
:102BF0000F91FF90DF90CF900895BF92CF92DF9218
:102C0000EF92FF92CF93DF93EC016A017B01B22E2A
:102C100060E874E88EE190E0A70196010E94CC1B69
:102C20002150310941095109569547953795279506
:102C3000E889F98982E08083211580E1380798F0DE
:102C4000E889F989108260E472E48FE090E0A701DE
:102C500096010E94CC1B215031094109510956951A
:102C6000479537952795EC85FD853083EE85FF8563
:102C70002083188EEC89FD89B082EA89FB898081E6
:102C800080618083EA89FB89808188608083EA890A
:102C9000FB89808180688083EA89FB8980818F7DC0
:102CA0008083DF91CF91FF90EF90DF90CF90BF9026
:102CB00008951F920F920FB60F9211242F938F93A6
:102CC0009F93EF93FF93E0918106F09182068081BC
:102CD000E0918706F091880682FD12C09081809174
:102CE0008A068F5F8F7320918B06821751F0E091D7
:102CF0008A06F0E0EF58F94F958F80938A0601C05D
:102D00008081FF91EF919F918F912F910F900FBE36
:102D10000F901F9018951F920F920FB60F921124CB
:102D20002F933F934F935F936F937F938F939F93D3
:102D3000AF93BF93EF93FF9381E796E00E94551501
:102D4000FF91EF91BF91AF919F918F917F916F9183
:102D50005F914F913F912F910F900FBE0F901F9059
:102D6000189581E796E00E941A1521E0892B09F455
:102D700020E0822F0895109274061092730688EE58
:102D800093E0A0E0B0E08093750690937606A09360
:102D90007706B093780685E494E09093720680936A
:102DA000710685EC90E090937E0680937D0684EC1E
:102DB00090E09093800680937F0680EC90E0909363
:102DC00082068093810681EC90E090938406809344
:102DD000830682EC90E0909386068093850686ECCD
:102DE00090E0909388068093870610928A0610924E
:102DF0008B0610928C0610928D06089508950E94FD
:102E000001140E94FE160E94B700C7E4D5E10E949B
:102E1000C6002097E1F30E944715F9CFCF92DF92C9
:102E2000EF92FF920F931F93CF93DF936C017A0180
:102E3000EB01E60EF71E00E010E0CE15DF0561F0B5
:102E40006991D601ED91FC910190F081E02DC601D0
:102E50000995080F191FF1CFC801DF91CF911F917C
:102E60000F91FF90EF90DF90CF900895611571055D
:102E700081F0DB010D900020E9F7AD0141505109CF
:102E8000461B570BDC01ED91FC910280F381E02D94
:102E9000099480E090E008950C9436176CEC72E091
:102EA0000C9436170F931F93CF93DF93EC010E947E
:102EB00036178C01CE010E944E17800F911FDF91B3
:102EC000CF911F910F9108958F929F92AF92BF92D1
:102ED000CF92DF92EF92FF920F931F93CF93DF93E6
:102EE000CDB7DEB7A1970FB6F894DEBF0FBECDBF4A
:102EF0007C01C42EE52FCB01D22E19A221E02D1585
:102F000010F02AE0D22E8E010F5D1F4F8D2C912CD8
:102F1000A12CB12C6C2D7E2FA50194010E94CC1BFD
:102F20008C2DD29E80191124015011098A3014F47D
:102F3000805D01C0895CF801808321153105410560
:102F4000510521F0C22EE32FCA01E4CFB801C70119
:102F50000E943617A1960FB6F894DEBF0FBECDBF04
:102F6000DF91CF911F910F91FF90EF90DF90CF9065
:102F7000BF90AF909F908F9008952115310541F437
:102F8000DC01ED91FC910190F081E02D642F09941A
:102F90000C9464170F931F93CF93DF93EC019A0166
:102FA000462F50E060E070E00E94BD178C01CE011A
:102FB0000E944E17800F911FDF91CF911F910F91AB
:102FC00008953F924F925F926F927F928F929F925D
:102FD000AF92BF92CF92DF92EF92FF920F931F9327
:102FE000CF93DF9300D000D0CDB7DEB78B0129019E
:102FF0003A0190910301981721F09F3F09F0DAC13F
:1030000004C0E6EDF0E0349081C080930301E6ED6A
:10301000F0E0E491EF3F09F4CDC1E13031F1E2306D
:1030200009F44BC0E11171C014BC15BC94B5926099
:1030300094BD95B5916095BD282F30E0F901EC5510
:10304000FF4FE491F0E0EE0FFF1FEE53FF4F45916D
:10305000549150931E0740931D07F901E057FF4F0D
:10306000249120931C07312C53C0109280001092A1
:1030700081009091810098609093810090918100EF
:10308000916090938100282F30E0F901EC55FF4FBB
:10309000E491F0E0EE0FFF1FEE53FF4F4591549186
:1030A0005093170740931607F901E057FF4F2491FB
:1030B00020931507332433942BC01092B000109244
:1030C000B1009091B00092609093B0009091B100E7
:1030D00091609093B100282F30E0F901EC55FF4F3B
:1030E000E491F0E0EE0FFF1FEE53FF4F4591549136
:1030F0005093100740930F07F901E057FF4F2491B9
:1031000020930E0752E0352E03C03E2E37FC52C1ED
:1031100061E00E9482144801A12CB12C832D8D7F87
:1031200009F0C7C060E079E08DE390E0A50194016B
:103130000E94EE1B29833A834B835C8369017A01E9
:1031400081E0C81AD108E108F1089FEFC916D1043F
:10315000E104F10409F008F49AC060E271EA87E042
:1031600090E0A50194010E94EE1B69017A01E1E063
:10317000CE1AD108E108F108F2E03F1219C08FEF32
:10318000C816D104E104F10409F008F48AC068E427
:1031900078EE81E090E0A50194010E94EE1B6901A8
:1031A0007A0191E0C91AD108E108F10883E001C071
:1031B00082E0EFEFCE16D104E104F10409F008F447
:1031C00067C064E274EF80E090E0A50194010E9482
:1031D000EE1B69017A01F1E0CF1AD108E108F1088C
:1031E0003320E1F082E038121BC09FEFC916D104F2
:1031F000E104F10409F008F4DBC062E17AE780E061
:1032000090E0A50194010E94EE1B69017A01E1E0C2
:10321000CE1AD108E108F10885E003C083E001C0BF
:1032200084E0FFEFCF16D104E104F10489F180F1CD
:1032300069E07DE380E090E0A50194010E94EE1B2F
:1032400069017A0181E0C81AD108E108F10831105A
:1032500002C084E001C086E09FEFC916D104E104FA
:10326000F104B1F0A8F0C980DA80EB80FC809AE02C
:10327000F594E794D794C7949A95D1F7E1E0CE1AE4
:10328000D108E108F108332031F087E00BC081E07C
:10329000332011F007C085E095B5987F982B95BD38
:1032A00038C082E09091B100987F982B9093B10044
:1032B00030C060E079E08DE390E0A50194010E94C8
:1032C000EE1B69017A01F1E0CF1AD108E108F1089B
:1032D000C114D10481E0E806F10488F064E274EFDF
:1032E00080E090E0A50194010E94EE1B69017A0143
:1032F00091E0C91AD108E108F10893E001C091E01A
:10330000E1E03E1206C080918100887F892B809386
:103310008100411451046104710471F0D801AA0FB5
:10332000BB1FA30192010E94141C28EE33E040E071
:1033300050E00E94CC1B03C02FEF3FEFA901F1E04A
:103340003F16A1F082E0381619F1311033C0C7BC26
:1033500020931F07309320074093210750932207A3
:1033600080916E00826080936E0024C0D0928900AC
:10337000C0928800209318073093190740931A07CA
:1033800050931B0780916F00826080936F0012C082
:10339000C092B30020931107309312074093130794
:1033A000509314078091700082608093700002C077
:1033B00084E078CF0F900F900F900F90DF91CF9116
:1033C0001F910F91FF90EF90DF90CF90BF90AF9043
:1033D0009F908F907F906F905F904F903F90089557
:1033E000813039F018F0823051F0089510926E005B
:1033F000089580916F008D7F80936F000895809174
:1034000070008D7F8093700081E08093B000809188
:10341000B100887F84608093B1001092B30008955A
:10342000CF93C82F809103018C1307C0E6EDF0E025
:1034300084919FEF9093030101C08FEF0E94F019D8
:1034400060E08C2FCF910C94BB141F920F920FB69B
:103450000F9211242F933F934F935F936F937F931A
:103460008F939F93AF93BF93EF93FF938091110737
:1034700090911207A0911307B0911407892B8A2B02
:103480008B2B51F190910E07E0910F07F0911007EF
:103490008081892780838091110790911207A091E4
:1034A0001307B0911407181619061A061B06C4F460
:1034B0008091110790911207A0911307B091140702
:1034C0000197A109B1098093110790931207A09366
:1034D0001307B093140704C0809103010E94101ACF
:1034E000FF91EF91BF91AF919F918F917F916F91DC
:1034F0005F914F913F912F910F900FBE0F901F90B2
:103500001895089571D008F481E0089504D0689466
:10351000B111D9C00895BCD088F09F5790F0B92F51
:103520009927B751A0F0D1F0660F771F881F991F18
:103530001AF0BA95C9F712C0B13081F0C3D0B1E02A
:103540000895C0C0672F782F8827B85F39F0B93F3A
:10355000CCF3869577956795B395D9F73EF490951A
:103560008095709561957F4F8F4F9F4F0895E89498
:1035700009C097FB3EF490958095709561957F4FBB
:103580008F4F9F4F9923A9F0F92F96E9BB27939569
:10359000F695879577956795B795F111F8CFFAF479
:1035A000BB0F11F460FF1BC06F5F7F4F8F4F9F4FAA
:1035B00016C0882311F096E911C0772321F09EE808
:1035C000872F762F05C0662371F096E8862F70E06E
:1035D00060E02AF09A95660F771F881FDAF7880F48
:1035E0009695879597F90895990F0008550FAA0B9E
:1035F000E0E8FEEF16161706E807F907C0F0121606
:103600001306E407F50798F0621B730B840B950B08
:1036100039F40A2661F0232B242B252B21F408955D
:103620000A2609F4A140A6958FEF811D811D0895FA
:1036300097F99F6780E870E060E008959FEF80EC65
:10364000089500240A941616170618060906089508
:1036500000240A9412161306140605060895092E6E
:103660000394000C11F4882352F0BB0F40F4BF2BDD
:1036700011F460FF04C06F5F7F4F8F4F9F4F08951D
:1036800057FD9058440F551F59F05F3F71F0479513
:10369000880F97FB991F61F09F3F79F087950895F8
:1036A000121613061406551FF2CF4695F1DF08C017
:1036B000161617061806991FF1CF86957105610534
:1036C00008940895E894BB2766277727CB0197F9DC
:1036D00008950BD0C4CFB5DF28F0BADF18F09523DA
:1036E00009F0A6CFABCF1124EECFCADFA0F3959F90
:1036F000D1F3950F50E0551F629FF001729FBB27D9
:10370000F00DB11D639FAA27F00DB11DAA1F649F84
:103710006627B00DA11D661F829F2227B00DA11D37
:10372000621F739FB00DA11D621F839FA00D611DBD
:10373000221F749F3327A00D611D231F849F600DDE
:10374000211D822F762F6A2F11249F5750408AF017
:10375000E1F088234AF0EE0FFF1FBB1F661F771FA3
:10376000881F91505040A9F79E3F510570F060CFDF
:10377000AACF5F3FECF3983EDCF38695779567958B
:10378000B795F795E7959F5FC1F7FE2B880F911DC1
:103790009695879597F90895A1E21A2EAA1BBB1B4F
:1037A000FD010DC0AA1FBB1FEE1FFF1FA217B3070D
:1037B000E407F50720F0A21BB30BE40BF50B661F23
:1037C000771F881F991F1A9469F7609570958095E7
:1037D00090959B01AC01BD01CF010895052E97FB8B
:1037E0001EF400940E94051C57FD07D00E94CC1BBC
:1037F00007FC03D04EF40C94051C50954095309571
:1038000021953F4F4F4F5F4F08959095809570954C
:1038100061957F4F8F4F9F4F08956927962769279E
:1038200078278727782708950E94251CA59F900D4B
:10383000B49F900DA49F800D911D11240895EE0F4B
:10384000FF1F0590F491E02D0994A29FB001B39F52
:10385000C001A39F700D811D1124911DB29F700D99
:10386000811D1124911D0895662777270C949E1EB3
:10387000FC0188279927E89421912032E9F3293027
:1038800010F02E30C8F32B3241F02D3239F4689409
:1038900004C00E948C1C820F911D219120532A305C
:1038A000C0F31EF4909581959F4F0895FB01DC01B4
:1038B00002C005900D9241505040D8F70895FB0189
:1038C000DC018D91019080190110D9F3990B0895B5
:1038D000FB01DC0101900D920020E1F70895FB014E
:1038E000DC014150504030F08D910190801919F465
:1038F0000020B9F7881B990B0895FB01DC014150AA
:10390000504048F001900D920020C9F701C01D926F
:1039100041505040E0F708957AE0979F902D879F9F
:10392000802D910D11240895AEE0B0E0EAE9FCE1AC
:103930000C94D8200D891E8986E08C831A83098314
:103940008FEF9FE79E838D83AE01475E5F4F6F8948
:10395000788DCE0101960E94B61CEF81F885E00FAC
:10396000F11F10822E96E4E00C94F420ACE0B0E05D
:10397000ECEBFCE10C94CA207C016B018A01FC0198
:1039800017821682838181FFBDC1CE0101964C0151
:10399000F7019381F60193FD859193FF81916F016A
:1039A000882309F4ABC1853239F493FD859193FFE7
:1039B00081916F01853229F4B70190E00E94372090
:1039C000E7CF512C312C20E02032A0F48B3269F06B
:1039D00030F4803259F0833269F420612CC08D328A
:1039E00039F0803339F4216026C02260246023C07E
:1039F000286021C027FD27C030ED380F3A3078F419
:103A000026FF06C0FAE05F9E300D1124532E13C02E
:103A10008AE0389E300D1124332E20620CC08E3285
:103A200021F426FD6BC1206406C08C3611F4206899
:103A300002C0883641F4F60193FD859193FF819190
:103A40006F018111C1CF982F9F7D9554933028F439
:103A50000C5F1F4FFFE3F9830DC0833631F08337CE
:103A600071F0833509F05BC022C0F8018081898341
:103A70000E5F1F4F44244394512C540115C038014C
:103A8000F2E06F0E711CF801A080B18026FF03C028
:103A9000652D70E002C06FEF7FEFC5012C870E949B
:103AA0002C202C0183012C852F77222E17C0380162
:103AB000F2E06F0E711CF801A080B18026FF03C0F8
:103AC000652D70E002C06FEF7FEFC5012C870E946B
:103AD00021202C012C852068222E830123FC1BC071
:103AE000832D90E048165906B0F4B70180E290E0CB
:103AF0000E9437203A94F4CFF50127FC859127FEE8
:103B000081915F01B70190E00E94372031103A9413
:103B1000F1E04F1A51084114510471F7E5C08436A1
:103B200011F0893639F5F80127FF07C060817181EE
:103B3000828193810C5F1F4F08C06081718188274B
:103B400077FD8095982F0E5F1F4F2F76B22E97FF2F
:103B500009C090958095709561957F4F8F4F9F4FCD
:103B60002068B22E2AE030E0A4010E946920A82E2D
:103B7000A81844C0853729F42F7EB22E2AE030E001
:103B800025C0F22FF97FBF2E8F36C1F018F488358B
:103B900079F0B4C0803719F0883721F0AFC02F2FEB
:103BA0002061B22EB4FE0DC08B2D8460B82E09C0EA
:103BB00024FF0AC09F2F9660B92E06C028E030E08F
:103BC00005C020E130E002C020E132E0F801B7FE9C
:103BD00007C060817181828193810C5F1F4F06C095
:103BE0006081718180E090E00E5F1F4FA4010E9410
:103BF0006920A82EA818FB2DFF77BF2EB6FE0BC09C
:103C00002B2D2E7FA51450F4B4FE0AC0B2FC08C0C0
:103C10002B2D2E7E05C07A2C2B2D03C07A2C01C0B3
:103C2000752C24FF0DC0FE01EA0DF11D808180334B
:103C300011F4297E09C022FF06C07394739404C056
:103C4000822F867809F0739423FD13C020FF06C0ED
:103C50005A2C731418F4530C5718732C731468F4FB
:103C6000B70180E290E02C870E94372073942C8566
:103C7000F5CF731410F4371801C0312C24FF12C093
:103C8000B70180E390E02C870E9437202C8522FF2B
:103C900017C021FF03C088E590E002C088E790E0EC
:103CA000B7010CC0822F867859F021FD02C080E256
:103CB00001C08BE227FD8DE2B70190E00E94372022
:103CC000A51438F4B70180E390E00E9437205A949D
:103CD000F7CFAA94F401EA0DF11D8081B70190E0BD
:103CE0000E943720A110F5CF332009F451CEB7013F
:103CF00080E290E00E9437203A94F6CFF701868167
:103D0000978102C08FEF9FEF2C96E2E10C94E620A2
:103D1000F999FECF92BD81BDF89A992780B5089593
:103D2000262FF999FECF1FBA92BD81BD20BD0FB6D7
:103D3000F894FA9AF99A0FBE01960895A0E0B0E0BF
:103D4000E4EAFEE10C94D0208B016115710521F0AD
:103D5000DB018C9311969C93EC015E01BFEFAB1AD3
:103D6000BB0A7501C8808C2D90E00E940120892B30
:103D700011F0E501F2CFEDE2CE1208C07E01F2E0D3
:103D8000EF0EF11CC980DD24D39409C02BE2C212CE
:103D900005C07E0142E0E40EF11CC980D12CE70190
:103DA000219743E050E06FED70E0CE010E940920C2
:103DB000892BC1F4239645E050E06AED70E0CE0116
:103DC0000E940920892B09F425960115110519F087
:103DD000D801CD93DC93D11006C160E070E080E89B
:103DE0009FE70AC143E050E067ED70E0CE010E941A
:103DF0000920892B59F40115110509F4F9C0B2E025
:103E0000EB0EF11CF801F182E082F2C0F70160E0F4
:103E100070E0CB01C0E0D0E07F01A0EDAA2EAC0C99
:103E200029E02A1530F14D2D4260B42E2D2D287039
:103E3000D2FE04C0211125C0219623C02111219753
:103E4000A5E0B0E09B01AC010E94141C660F771F37
:103E5000881F991F6A0D711D811D911D6839A9E97F
:103E60007A078A07A9E19A0760F0BD2DB660BB2EDC
:103E700008C02EEFA2120AC0D3FC50C04D2D4860DE
:103E8000B42E3196D701CC90DB2CC6CF2C2D2F7DB4
:103E9000253409F043C0A081AD3241F4BD2DB0619D
:103EA000DB2E7F0122E0E20EF11C0CC07F01AB3261
:103EB00031F04FEFE41AF40A21E030E006C0A2E04E
:103EC000EA0EF11CA18122E030E0A053AA3018F0E4
:103ED000E21AF30A23C0F70120E030E02038BCE00A
:103EE0003B075CF4A901440F551F440F551F240FD5
:103EF000351F220F331F2A0F311DAF014F5F5F4F58
:103F00007A01A081A053AA3010F4FA01E7CFD4FEC1
:103F100003C0319521953109C20FD31FD1FE09C0CD
:103F20000115110531F0E1E0EE1AF108D801ED922A
:103F3000FC920E94B71A2D2D2370233019F04B01EB
:103F40005C0106C04B015C01B7FAB094B7F8B094BD
:103F500020E030E0A901C501B4010E94821A882343
:103F600009F43EC0D7FF06C0D195C195D10906EF2F
:103F700010E002C00EE011E06801B8E1CB1AD108F0
:103F800090E2E92EF12CCE15DF0574F0F8012591B1
:103F9000359145915491C501B4010E94691B4B01B3
:103FA0005C01CE19DF09EFCF04501109F594E794B5
:103FB0000C151D0541F78A2D880F8B2D881F8F3F0B
:103FC00049F020E030E0A901C501B4010E94821A45
:103FD000811106C082E290E090932407809323072A
:103FE000C501B40109C060E070E080E89FEF04C043
:103FF00060E070E080EC9FE7CDB7DEB7ECE00C94BA
:10400000EC209111C4C0803219F089508550D0F74E
:104010000895FB01DC014150504088F08D918134BE
:104020001CF08B350CF4805E659161341CF06B35AF
:104030000CF4605E861B611171F3990B0895881B67
:10404000FCCFFC010590615070400110D8F78095BD
:1040500090958E0F9F1F0895FC0161507040019054
:104060000110D8F7809590958E0F9F1F08950F939C
:104070001F93CF93DF93182F092FEB018B8181FDC5
:1040800003C08FEF9FEF20C082FF10C04E815F8181
:104090002C813D81421753077CF4E881F9819F010F
:1040A0002F5F3F4F39832883108306C0E885F98549
:1040B000812F0995892B29F72E813F812F5F3F4F53
:1040C0003F832E83812F902FDF91CF911F910F91EE
:1040D0000895FA01AA27283051F1203181F1E8949E
:1040E0006F936E7F6E5F7F4F8F4F9F4FAF4FB1E0EB
:1040F0003ED0B4E03CD0670F781F891F9A1FA11DE6
:10410000680F791F8A1F911DA11D6A0F711D811DE6
:10411000911DA11D20D009F468943F912AE0269FAB
:1041200011243019305D3193DEF6CF010895462F0A
:104130004770405D4193B3E00FD0C9F7F6CF462FEB
:104140004F70405D4A3318F0495D31FD4052419354
:1041500002D0A9F7EACFB4E0A69597958795779511
:104160006795BA95C9F700976105710508959B0198
:10417000AC010A2E06945795479537952795BA9521
:10418000C9F7620F731F841F951FA01D08959927FB
:10419000882708952F923F924F925F926F927F925D
:1041A0008F929F92AF92BF92CF92DF92EF92FF9247
:1041B0000F931F93CF93DF93CDB7DEB7CA1BDB0BF3
:1041C0000FB6F894DEBF0FBECDBF09942A88398898
:1041D00048885F846E847D848C849B84AA84B9849F
:1041E000C884DF80EE80FD800C811B81AA81B981AB
:1041F000CE0FD11D0FB6F894DEBF0FBECDBFED01BF
:064200000895F894FFCFC1
:10420600003C01FF626F7468006C65667400726939
:10421600676874006E6F6E650041424344454647C9
:1042260048494A4B4C4D4E4F505152535455565790
:1042360058595A6162636465666768696A6B6C6D32
:104246006E6F707172737475767778797A303132F1
:10425600333435363738392B2F002D2D2D2D2D2D76
:104266002D2D2D2D2D2D2D2D2D2D2D2D2D2D2D2D78
:104276002D2D32353845414641352D453931342DC0
:10428600343744412D393543412D4335414230447D
:10429600433835423131002B2B2B0061002B6F6BDD
:1042A6000041542B574D4F44453D41505354410016
:1042B60041542B5A00474554202F776562736F632C
:1042C6006B657420485454502F312E3100474554A5
:1042D600202F687474703F005365632D57656253D1
:1042E6006F636B65742D4B65793A200048545450C2
:1042F6002F312E312031303120537769746368694C
:104306006E672050726F746F636F6C730D0A557011
:1043160067726164653A20776562736F636B657473
:104326000D0A436F6E6E656374696F6E3A20557041
:1043360067726164650D0A5365632D576562536F35
:10434600636B65742D4163636570743A200048544D
:1043560054502F312E3120323030204F4B0D0A432E
:104366006F6E74656E742D547970653A2061707045
:104376006C69636174696F6E2F6A736F6E3B0D0AA9
:104386005472616E736665722D456E636F64696EF5
:10439600673A206368756E6B65640D0A0D0A007BCB
:1043A60022737461747573223A22002C20226D7375
:1043B60067223A22002C20226964223A22007D00DC
:1043C600636F6D706C65746500300D0A0D0A0070C0
:1043D600696E6700726573657400322E302E330085
:1043E600756E6B6E6F776E0025642E25640073659F
:1043F60074687776657273696F6E00706175736540
:1044060000726573756D650073746F7000636F6C11
:104416006C696465537461746500636F6C6C696480
:10442600654E6F746966790066616C736500666FC8
:104436006C6C6F77537461746500666F6C6C6F7724
:104446004E6F7469667900736C61636B43616C6966
:1044560062726174696F6E006D6F766543616C6937
:1044660062726174696F6E007475726E43616C6915
:1044760062726174696F6E0063616C696272617405
:10448600654D6F76650063616C696272617465542F
:1044960075726E0050726576696F757320636F6D05
:1044A6006D616E64206E6F742066696E69736865EF
:1044B60064006572726F7200666F72776172640073
:1044C6006261636B0070656E75700070656E646F17
:1044D600776E00666F6C6C6F7700636F6C6C6964E7
:1044E6006500626565700063616C6962726174651E
:1044F600536C61636B00436F6D6D616E64206E6F0C
:1045060074207265636F676E6973656400616363C7
:104516006570746564006E6F7469667900636D64B6
:1045260000617267006964004D6573736167652099
:10453600746F6F206C6F6E670000000000AA120E89
:10454600170000000098150E171A15331525157655
:10455600156E616E00696E66006F7666002E00004D
:00000001FF
