:100000000C9404010C942C010C942C010C942C01E4
:100010000C942C010C942C010C942C010C942D218B
:100020000C942C010C942C010C942C010C94971022
:100030000C942C010C942C010C942C010C942C018C
:100040000C945A190C942C010C94341C0C94661CBE
:100050000C942C010C942C010C942C010C942C016C
:100060000C942C010C942C01546F6F206D616E79EF
:1000700020636F6D6D616E647320646566696E6583
:1000800064000D0A0D0A00485454502F312E3120BF
:1000900031303120537769746368696E672050721C
:1000A0006F746F636F6C730D0A557067726164656E
:1000B0003A20776562736F636B65740D0A436F6EE8
:1000C0006E656374696F6E3A20557067726164651E
:1000D0000D0A5365632D576562536F636B65742D0D
:1000E0004163636570743A20005365632D57656200
:1000F000536F636B65742D4B65793A200047455407
:10010000202F776562736F636B6574204854545079
:100110002F312E31002D2D2D2D2D2D2D2D2D2D2D31
:100120002D2D2D2D2D2D2D2D2D2D2D2D2D323538E7
:1001300045414641352D453931342D343744412D23
:10014000393543412D4335414230444338354231FE
:1001500031000123456789ABCDEFFEDCBA987654B8
:100160003210F0E1D2C300000008000201000003D9
:100170000407000000000000000001020408102035
:100180004080010204081020010204081020040429
:10019000040404040404020202020202030303032F
:1001A00003030000000023002600290000000000D7
:1001B000250028002B0000000000240027002A0052
:1001C000024E414E494E495459494E46CDCCCC3D44
:1001D0000AD7233C17B7D13877CC2B329595E62434
:1001E0001FB14F0A000020410000C84200401C46D9
:1001F00020BCBE4CCA1B0E5AAEC59D743A01040BFE
:100200008315C915BE16961C11241FBECFEFD8E06A
:10021000DEBFCDBF13E0A0E0B1E0ECEEF1E502C03F
:1002200005900D92AE31B107D9F727E0AEE1B3E00A
:1002300001C01D92A131B207E1F711E0C8E0D2E0A0
:1002400004C02297FE010E940D24CC3FD107C9F7BC
:100250000E948A210C94F4280C9400008EE193E013
:100260000E94BD088EE193E00C9426048EE193E099
:100270000C94DC0B8EE193E00C942C02089521E0A9
:10028000FC0121A7089521E0FC0122A70895FC01AB
:1002900086AD97AD680F791F6D33710530F477AF78
:1002A00066AF02968E0F9F1F089580E090E008953C
:1002B000CF93DF9300D000D0CDB7DEB72DE536E089
:1002C0003A8329831C821B82BE016F5F7F4F0E948D
:1002D0008C168DE596E00E94431D0F900F900F90B5
:1002E0000F90DF91CF910895BC0185E194E00C94CB
:1002F000D410CF93DF93EC01CB0168E071E00E9452
:100300006E16009721F004960E94C71602C080E086
:1003100090E06CE071E00E94E32521E0892B09F474
:1003200020E02E8BDF91CF910895CF93DF93EC01E6
:10033000CB0168E071E00E946E16009721F00496F0
:100340000E94C71602C080E090E06CE071E00E945D
:10035000E32521E0892B09F420E02F8BDF91CF9159
:1003600008950F931F93CF93DF93EA018C010F5FE2
:100370001F4F62E171E0CA010E946E16FC010097F6
:1003800051F4CE010E941419FC01009751F082E152
:1003900091E09383828382E090E095838483178346
:1003A0000683DF91CF911F910F910895CF92DF9235
:1003B000EF92FF92CF93DF93EA010E94A4196B01A1
:1003C0007C0162E171E0CE010E946E16FC01009793
:1003D00051F4CE010E941419FC01009761F082E1F2
:1003E00091E09383828384E090E095838483C68246
:1003F000D782E086F186DF91CF91FF90EF90DF907A
:10040000CF9008950F931F93CF93DF93EA01FC01E0
:100410000385148562E171E0CA010E946E16FC0139
:10042000009751F4CE010E941419FC01009779F055
:1004300082E191E09383828384E090E095838483DA
:10044000A80160E070E04683578360877187DF9181
:10045000CF911F910F910895CF93DF93EC011CAEC4
:1004600081E08D8B0E94A4196D8F7E8F8F8F98A352
:100470001BAE1FAA18AE19AE1AAEDF91CF91089528
:100480000F931F93CF93DF93EC0160EF80E090E038
:100490000E9406286DE081E090E00E9406282A96DE
:1004A00002E010E06991C8010E9406280F5F1F4F0B
:1004B0000D301105B9F7DF91CF911F910F9108957C
:1004C000CF92DF92EF92FF920F931F93CF93DF9320
:1004D000EC0180E090E00E94FE27803F09F056C0CA
:1004E00081E090E00E94FE278D3009F04FC082E04D
:1004F00090E00E94FE27813009F048C07E018AE02A
:10050000E80EF11C02E010E0C8010E94FE27F7018E
:1005100081937F010F5F1F4F0D301105A9F78A8569
:100520008130A1F58B859C85C39780F1CD84DE84D5
:10053000EF84F88820E030E040E05FE3C701B601D7
:100540000E944D23181614F520E030E040EC5FE3E4
:10055000C701B6010E94FE2187FF18C0C988DA884A
:10056000EB88FC8820E030E040E05FE3C701B601A3
:100570000E944D23181654F420E030E040EC5FE375
:10058000C701B6010E94FE2187FD1DC081E08A8758
:100590008EE090E09C878B8780E090E0A0E8BFE34E
:1005A0008D879E87AF87B88B898B9A8BAB8BBC8BE3
:1005B000CE01DF91CF911F910F91FF90EF90DF90CF
:1005C000CF900C944002DF91CF911F910F91FF903B
:1005D000EF90DF90CF900895CF93DF93EC01CB01A4
:1005E00068E071E00E946E16009721F004960E9468
:1005F000C71602C080E090E00E9483256D877E8749
:100600008F87988BCE01DF91CF910C944002CF93CE
:10061000DF93EC01CB0168E071E00E946E16009759
:1006200021F004960E94C71602C080E090E00E946C
:100630008325698B7A8B8B8B9C8BCE01DF91CF913D
:100640000C9440020F93BC0187E594E00E94F90CE2
:1006500021EB31E040E050E001E066E171E087E548
:1006600094E00E94FF0C2EE331E040E050E06EE1A8
:1006700071E087E594E00E94FF0C26ED31E040E058
:1006800050E063E271E087E594E00E94FF0C2CE704
:1006900034E040E050E06AE271E087E594E00E94D7
:1006A000FF0C2DE834E040E050E060E371E087E5C6
:1006B00094E00E94FF0C20EA34E040E050E067E361
:1006C00071E087E594E00E94FF0C25E539E040E009
:1006D00050E06CE371E087E594E00E94FF0C29E7AD
:1006E00031E040E050E069E471E087E594E00E9489
:1006F000FF0C2FEC39E040E050E067E571E087E562
:1007000094E00E94FF0C25E931E040E050E063E610
:1007100071E087E594E00E94FF0C22E032E040E0C7
:1007200050E060E771E087E594E00E94FF0C2AEC5E
:100730003AE040E050E061E871E087E594E00E9433
:10074000FF0C27EE3AE040E050E061E971E087E518
:1007500094E00E94FF0C2CEE32E040E050E061EAB1
:1007600071E087E594E00E94FF0C27E033E040E071
:1007700050E06FEA71E087E594E00E94FF0C2CE105
:1007800036E040E050E000E06DEB71E087E594E09A
:100790000E94FF0C2EE736E040E050E065EC71E08F
:1007A00087E594E00E94FF0C29EF37E040E050E03D
:1007B0006AEC71E087E594E00E94FF0C20EE36E0E1
:1007C00040E050E060ED71E087E594E00E94FF0CAE
:1007D0002CE138E040E050E065ED71E087E594E021
:1007E0000E94FF0C2BE238E040E050E06BED71E03E
:1007F00087E594E00E94FF0C2FE331E040E050E0F9
:1008000063EE71E087E594E00E94FF0C23E431E0A1
:1008100040E050E06AEE71E087E594E00E94FF0C52
:1008200022EF34E040E050E062EF71E087E594E0D1
:100830000E94FF0C2DED38E040E050E067EF71E0E2
:1008400087E594E00E94FF0C0F910895CF93DF930A
:10085000EC011D8A0E94220326E040E051EE60E098
:1008600070E08DE596E00E94D81B8881813019F4F4
:1008700064E771E002C068E571E087E594E00E94FA
:10088000DC0C81E08CAFDF91CF9108951F93CF9363
:10089000DF93EC01262F142F80918D05861741F0F0
:1008A0004B855C8560E070E08DE895E00E94C10FAB
:1008B00080918105811761F04B855C8560E070E077
:1008C000212F81E895E0DF91CF911F910C94C10F0A
:1008D000DF91CF911F910895CF93DF93EC018DE8C5
:1008E00095E00E94B40F81E895E00E94B40F81E08A
:1008F00088A7DF91CF9108950C946C04CF93DF9378
:10090000EC018DE895E00E94B80F81E895E00E9427
:10091000B80F18A6DF91CF9108950C947E04CF9361
:10092000DF93EC018DE895E00E94BB0F81E895E034
:100930000E94BB0F19A61AA61BAEDF91CF91089596
:100940000C948F04CF93DF938EE00E94171AEC0172
:100950008FE00E94171A9E01281B390BC901DF91F5
:10096000CF910895CF93DF9381E10E94CC1AEC01DF
:1009700080E10E94CC1A21E0892B09F020E0CD2BE8
:1009800029F4222331F083E090E005C0822F90E02B
:1009900002C082E090E0DF91CF910895CF92DF9284
:1009A000EF92FF92CF93DF93EC016B01EE24D7FC23
:1009B000E094FE2CA701960166E071E089E00E94B8
:1009C000E91E0E94A4196C0D7D1D8E1D9F1D6FAB2D
:1009D00078AF89AF9AAFDF91CF91FF90EF90DF9022
:1009E000CF900895CF93DF93EC01CB0168E071E0E5
:1009F0000E946E16009721F004960E94C71602C04E
:100A000080E090E00E948725BC01CE01DF91CF916C
:100A10000C94CE04CF92DF92EF92FF92CF93DF93AC
:100A2000EC018DE895E00E94C90F811102C080E0C1
:100A300017C081E895E00E94C90F8823C1F38FA1F8
:100A40008111F5CFCFA8D8ACE9ACFAAC0E94A419BB
:100A500021E0C616D706E806F90608F020E0822F46
:100A6000DF91CF91FF90EF90DF90CF9008958F921C
:100A70009F92AF92BF92CF92DF92EF92FF920E942D
:100A8000A41924E630E040E050E00E94DA23490156
:100A90005A018AE0C82ED12CE12CF12CCA01B901EF
:100AA000A70196010E94DA23672B682B692B91F02E
:100AB000C501B4016250710981099109A70196012C
:100AC0000E94DA2321E0672B682B692B09F020E0D4
:100AD000622F01C061E08DE0FF90EF90DF90CF903A
:100AE000BF90AF909F908F900C94961A0F931F9386
:100AF000CF93DF93EC018FA18823D1F10E94B0192D
:100B00000BA11CA12DA13EA16017710782079307BD
:100B100078F18FA181508FA361E083E00E94961A43
:100B200089A19AA1892B29F40E94B0194BA95CA92B
:100B300004C00E94B0194DA95EA900EE1EE2041B7C
:100B4000150B222717FD2095322F600F711F821F72
:100B5000931F6BA37CA38DA39EA3CA010E94D319EC
:100B600060E083E0DF91CF911F910F910C94961A72
:100B7000DF91CF911F910F910895CF93DF93EC01F7
:100B80008D89882361F0CE010E940A05811107C07A
:100B90008FA18823C1F3CE010E947605F4CFDF91A7
:100BA000CF910895CF92DF92EF92FF92CF93DF9390
:100BB000EC017B0140E061E00E944604B701882718
:100BC00077FD8095982F0E949D226B017C012BA5BB
:100BD0003CA54DA55EA50E9451232D853E854F85E0
:100BE00058890E9451230E946A22AB01BC0121E076
:100BF0008DE895E00E94C10F2BA53CA54DA55EA5F3
:100C0000C701B6010E9451232D853E854F85588925
:100C10000E9451230E946A22AB01BC0120E081E8BE
:100C200095E00E94C10FCE01DF91CF91FF90EF9030
:100C3000DF90CF900C94BD05CF93DF93EC01CB01F7
:100C400068E071E00E946E16009721F004960E9401
:100C5000C71602C080E090E00E948725BC01CE014B
:100C6000DF91CF910C94D205CF92DF92EF92FF9259
:100C7000CF93DF93EC017B0141E060E00E944604EA
:100C8000B701882777FD8095982F0E949D226B01E0
:100C90007C012BA53CA54DA55EA50E9451232D8569
:100CA0003E854F8558890E9451230E946A22AB01DC
:100CB000BC0120E08DE895E00E94C10F2BA53CA56A
:100CC0004DA55EA5C701B6010E9451232D853E8525
:100CD0004F8558890E9451230E946A22AB01BC01B2
:100CE00021E081E895E00E94C10FCE01DF91CF9114
:100CF000FF90EF90DF90CF900C94BD05CF93DF93E2
:100D0000EC01CB0168E071E00E946E16009721F0C3
:100D100004960E94C71602C080E090E00E948725DA
:100D2000BC01CE01DF91CF910C943406CF92DF92BB
:100D3000EF92FF92CF93DF93EC017B0141E061E002
:100D40000E944604B701882777FD8095982F0E945E
:100D50009D226B017C012FA538A949A95AA90E949F
:100D6000512329893A894B895C890E9451230E9429
:100D70006A22AB01BC0121E08DE895E00E94C10F21
:100D80002FA538A949A95AA9C701B6010E94512324
:100D900029893A894B895C890E9451230E946A22E1
:100DA000AB01BC0121E081E895E00E94C10FCE01BA
:100DB000DF91CF91FF90EF90DF90CF900C94BD0525
:100DC000CF93DF93EC01CB0168E071E00E946E16D7
:100DD000009721F004960E94C71602C080E090E0C0
:100DE0000E948725BC01CE01DF91CF910C9496061D
:100DF000CF92DF92EF92FF92CF93DF93EC017B01D2
:100E000040E060E00E944604B701882777FD8095A6
:100E1000982F0E949D226B017C012FA538A949A91A
:100E20005AA90E94512329893A894B895C890E94D9
:100E300051230E946A22AB01BC0120E08DE895E0BD
:100E40000E94C10F2FA538A949A95AA9C701B60107
:100E50000E94512329893A894B895C890E94512338
:100E60000E946A22AB01BC0120E081E895E00E946B
:100E7000C10FCE01DF91CF91FF90EF90DF90CF9027
:100E80000C94BD050F931F93CF93DF93EC018DE876
:100E900095E00E94C90F8823E9F181E895E00E945E
:100EA000C90F8823B9F18EE00E94171A8C018FE0D8
:100EB0000E94171A9801281B390BC90126303105E9
:100EC000BCF08881813049F461E070E0CE01DF91AF
:100ED000CF911F910F910C94F8068230D9F461E004
:100EE00070E0CE01DF91CF911F910F910C94960687
:100EF0008B3F9F4F34F48881813089F3823051F4E5
:100F0000E3CF65E070E0CE01DF91CF911F910F91AB
:100F10000C94D205DF91CF911F910F9108950F93FB
:100F20001F93CF93DF93EC0181E10E94CC1A8C01D7
:100F300080E10E94CC1A2B8D3C8D232BE9F4012BF0
:100F400019F483E090E004C0892B69F481E090E01B
:100F50009C8F8B8F62E370E0CE01DF91CF911F9168
:100F60000F910C9434066AE070E0CE01DF91CF91CE
:100F70001F910F910C94D2058DE895E00E94C90F46
:100F8000882391F181E895E00E94C90F882361F1DF
:100F90008B8D9C8D8230910519F41C8E1B8E24C084
:100FA000833091057CF40197F9F482E090E09C8F06
:100FB0008B8F6AE570E0CE01DF91CF911F910F9189
:100FC0000C9496068330910569F484E090E09C8F40
:100FD0008B8F6AE570E0CE01DF91CF911F910F9169
:100FE0000C94F8060497C9F2DF91CF911F910F91ED
:100FF0000895CF93DF93EC01CB0168E071E00E948C
:101000006E16009721F004960E94C71602C080E079
:1010100090E00E948725BC01CE01DF91CF910C9416
:10102000F806FC0112A211A22FE027A313A214A21A
:1010300015A216A20C94BD050C94110821E030E015
:10104000FC0132A321A32FE027A313A214A215A20F
:1010500016A20C94BD050C941E08FC0121A52111BB
:101060000C944207FC0122A521110C948F070895CE
:101070000F931F93CF93DF931F92CDB7DEB78C01F1
:10108000FC01619386E092E09F938F93862F9927CE
:1010900087FD90959F936F938AE092E09F938F9343
:1010A000FF93EF9369830E940A260FB6F894DEBF80
:1010B0000FBECDBF69816130C1F44CED51EC61E0F0
:1010C00071E4F80143A754A765A776A747E05DEA56
:1010D0006EE071E447A750AB61AB72AB80EB94E07C
:1010E00094AB83AB80ED97E019C06230C9F440E067
:1010F00050EC6EEF70E4F80143A754A765A776A7FC
:1011000049E153E665E071E447A750AB61AB72ABD0
:1011100080ED97E094AB83AB88EE93E096AB85AB24
:101120000F90DF91CF911F910F910895CF93DF938F
:10113000EC010E94380881E00E94690F61E083E0C1
:101140000E945D1A62E081E10E945D1A62E080E126
:101150000E945D1A1C8E1B8E1AA219A28FE08FA30B
:101160001BA21CA21DA21EA2CE010E94600261E071
:101170008DE0DF91CF910C945D1A62E00C9496089B
:10118000CF93DF93EC017C876B870E94400281E064
:101190008BAF21E041E050E060E070E08DE895E049
:1011A0000E94C10F20E041E050E060E070E081E883
:1011B00095E0DF91CF910C94C10FCF93DF93EC01B9
:1011C000CB0168E071E00E946E16009721F0049652
:1011D0000E94C71602C080E090E00E948725BC01F3
:1011E000CE01DF91CF910C94C008CF93DF93EC0137
:1011F0008BAD8823E9F08DE895E00E94C90F882324
:10120000B9F081E895E00E94C90F882389F041E098
:1012100080918105813009F440E061E080918D0585
:10122000813009F460E0CE01DF91CF910C94460447
:10123000DF91CF91089520915704222341F00E941D
:101240000A05882321F087E594E00C94880D089521
:10125000CF92DF92EF92FF920F931F93CF93DF9382
:10126000EC016B010A811B81E880F980B801C7019C
:101270000E946E16FC01009741F4C7010E941419E8
:10128000FC01009741F01383028382E090E0958394
:101290008483D782C682CE01DF91CF911F910F91B7
:1012A000FF90EF90DF90CF9008950F931F93CF930F
:1012B000DF9300D000D0CDB7DEB78A010E94B20420
:1012C0008130910519F15CF4892B61F51A8309834A
:1012D00082E191E09C838B8360E172E01FC08230E9
:1012E000910559F00397F1F41A83098382E191E0A3
:1012F0009C838B8365E172E011C01A83098382E1CC
:1013000091E09C838B8360ED71E008C01A830983B0
:1013100082E191E09C838B836AEC71E0CE010196BF
:101320000E9428090F900F900F900F90DF91CF919E
:101330001F910F910895CF92DF92EF92FF920F933A
:101340001F93CF93DF93EC016B010A811B81E8802F
:10135000F980B801C7010E946E16FC01009741F4A4
:10136000C7010E941419FC01009779F013830283CE
:1013700084E090E095838483A601662757FD6095FD
:10138000762F4683578360877187CE01DF91CF9197
:101390001F910F91FF90EF90DF90CF9008950F93E2
:1013A0001F93CF93DF9300D000D0CDB7DEB78A0173
:1013B0000E94A2041A83098322E131E03C832B833B
:1013C000BC01CE0101960E949B090F900F900F90D7
:1013D0000F90DF91CF911F910F910895CF92DF92DF
:1013E000EF92FF920F931F93CF93DF93CDB7DEB7AA
:1013F000C454D1090FB6F894DEBF0FBECDBF7C0137
:101400008EE192E09A83898321961FAE1EAE2197CA
:10141000CE0101960E94F6158C01F701868988237A
:1014200009F447C0C7010E94B204F701408D552757
:1014300047FD509584179507E1F1808F8230910523
:1014400001F18330910581F08130910591F523966A
:101450001FAF0EAF239782E191E025969FAF8EAF2D
:1014600025976AEC71E019C023961FAF0EAF239742
:1014700082E191E025969FAF8EAF259765E172E0FE
:101480000CC023961FAF0EAF239782E191E0259603
:101490009FAF8EAF259760ED71E0CE018F5B9F4FC0
:1014A0000E942809A8016AEE71E087E594E00E9495
:1014B000BC0DF7018789882349F18EE00E94171A35
:1014C0006C018FE00E94171AC81AD90AF701818DA2
:1014D000928DC816D906B9F023961FAF0EAF239789
:1014E00082E191E025969FAF8EAF2597B601CE01A0
:1014F0008F5B9F4F0E949B09A80163EE71E087E517
:1015000094E00E94BC0DF701D28EC18ECC5BDF4F00
:101510000FB6F894DEBF0FBECDBFDF91CF911F9104
:101520000F91FF90EF90DF90CF900895AF92BF9210
:10153000CF92DF92EF92FF920F931F93CF93DF939F
:10154000EC016A017B010A811B81A880B980B80186
:10155000C5010E946E16FC01009741F4C5010E946E
:101560001419FC01009751F01383028389E090E085
:1015700095838483C682D782E086F186CE01DF918F
:10158000CF911F910F91FF90EF90DF90CF90BF9080
:10159000AF900895CF93DF9300D000D0CDB7DEB7E2
:1015A0009A01FC0145855685678570893A832983B0
:1015B00082E191E09C838B83CE0101960E94960A82
:1015C0000F900F900F900F90DF91CF910895CF93D0
:1015D000DF9300D000D0CDB7DEB79A01FC0141897E
:1015E0005289638974893A83298382E191E09C83DB
:1015F0008B83CE0101960E94960A0F900F900F9058
:101600000F90DF91CF9108954DE165E270E08DE894
:1016100095E00E94381040EF6BE270E081E895E0C1
:101620000E94381087E594E00E94D80C6DE576E0C2
:1016300085E194E00C94BE107F928F929F92AF92BE
:10164000BF92CF92DF92EF92FF920F931F93CF93AF
:10165000DF93EC018CAD882309F4A0C08DE596E002
:101660000E94F51A4C01CE01CD967C011814190484
:101670000CF07BC0C12CD12C8E010B501F4F5E0192
:1016800091E4A90EB11C0E94A419F7016083718333
:10169000828393838DE596E00E940E1B782E8881CD
:1016A000813061F5F801408151819A012F5F3F4FF0
:1016B000318320834C0F5D1FFA01EF5BFF4F708277
:1016C000243B310519F4F80111821082F8014081A0
:1016D0005181B50185E194E00E94A012823091050C
:1016E00031F4B50187E594E00E94C10D53C0009725
:1016F00009F450C00497029780F54CC0FDE07F16B6
:1017000019F02AE072120CC0F80180819181892BB6
:1017100039F0B50187E594E00E94C10D81113AC00E
:10172000F801408151819A012F5F3F4F318320831F
:101730004C0F5D1FFA01EF5BFF4F7082243B3105B8
:1017400019F4F80111821082F801808191818C0FC7
:101750009D1FFC01EF5BFF4F1082FFEFCF1ADF0AE6
:10176000C814D90409F08FCF19C00E94A419F70139
:101770000081118122813381601B710B820B930BDD
:10178000643F71408105910548F0CB50DF4F1982CD
:10179000188204C0F80111821082DFCFDF91CF914F
:1017A0001F910F91FF90EF90DF90CF90BF90AF907F
:1017B0009F908F907F900895CF93DF93EC010E94CC
:1017C0003705CE010E947605CE010E942D08CE017C
:1017D0000E94F508CE010E94EE09CE010E941C0B6A
:1017E000CE01DF91CF910C941B09DC01FB018081BC
:1017F000869586958C9390819370818182958F7068
:1018000020E1929F800D112411968C931197818174
:101810008F70880F880F9281929596959695937008
:10182000890F12968C93129782818F7313968C93E3
:1018300008958F929F92AF92BF92CF92DF92EF92D4
:10184000FF920F931F93CF93DF93CDB7DEB7279708
:101850000FB6F894DEBF0FBECDBF7C015A016B01FD
:10186000A60EB71E00E010E020E030E04E0185E05B
:10187000880E911CCA14DB0439F1C9010196D60106
:101880004D916D01F401E20FF31F40838330910508
:10189000C9F4B401CE0101960E94F50BFE01319608
:1018A000C701800F911FA191B0E0A05EBD4F2C91A8
:1018B000DC012D93CD01E815F905A9F70C5F1F4F49
:1018C00080E090E09C01D6CF69012115310509F433
:1018D00043C02330310554F4E5E0F0E0EC0FFD1F88
:1018E000E20FF31F10822F5F3F4FF3CFBE016B5FFC
:1018F0007F4FFE0131965F01CF010E94F50BF5018C
:10190000C701800F911FA191B0E0A05EBD4F2C9147
:10191000DC012D93CD019F012A193B09C216D30684
:1019200094F70F5F1F4FC601D7FE02C080E090E022
:10193000080F191FF701E00FF11FCE18DF08C01ABA
:10194000D10A2DE38F010E191F09C6018E0F9F1FAB
:10195000039714F42193F6CFF701E00FF11F1082E3
:10196000C80127960FB6F894DEBF0FBECDBFDF913A
:10197000CF911F910F91FF90EF90DF90CF90BF908C
:10198000AF909F908F9008959C01FC01EE57FF4F00
:1019900080819181680F791F6138710530F47183FE
:1019A00060830296820F931F089580E090E008956F
:1019B000FC01108216AE0895FC01EA5DFE4F208105
:1019C0003181232B41F0329620813181232B79F410
:1019D000E1E0F0E002C0E0E0F0E0ED56FF4FEE0F96
:1019E000FF1FE80FF91F7183608381E0089580E095
:1019F0000895875B9F4FFC01718360830895EF9288
:101A0000FF920F931F93CF93DF937C01CCEDEC1AE1
:101A1000CEEFFC0AF701A081B181AF31B10561F4CD
:101A200068E670E08DE596E0DF91CF911F910F9110
:101A3000FF90EF900C94471D17E01A9FF0011B9F39
:101A4000F00D1124E80FF91FCF01855B9F4FEC01CA
:101A5000798368830296EC01288339834A835B8308
:101A6000EF5AFF4F00831196F701B183A083DF91F6
:101A7000CF911F910F91FF90EF900895CF92DF9239
:101A8000EF92FF920F931F93CF93DF9300D000D07C
:101A9000CDB7DEB77C016B018A01F9018081882313
:101AA00059F05A83498381E692E09C838B83B90184
:101AB000CE0101960E9428091A83098384E692E0E8
:101AC0009C838B83B601CE0101960E942809F70101
:101AD000EA5DFE4F0190F081E02D309711F0C801D2
:101AE0000995F701E85DFE4F0190F081E02D3097F8
:101AF00011F0C80109950F900F900F900F90DF9192
:101B0000CF911F910F91FF90EF90DF90CF900895AC
:101B10000F931F93CF93DF93CDB7DEB7C054D10996
:101B20000FB6F894DEBF0FBECDBF8C01FC018081E3
:101B30008823B1F010828EE192E09A838983219606
:101B40001FAE1EAE2197CE0101960E94F615980198
:101B5000225C3F4FAC016BE672E0C8010E943E0D73
:101B6000C05CDF4F0FB6F894DEBF0FBECDBFDF9174
:101B7000CF911F910F9108959B0164E772E00C943F
:101B80003E0D2F923F924F925F926F927F928F9273
:101B90009F92AF92BF92CF92DF92EF92FF920F93FC
:101BA0001F93CF93DF93CDB7DEB7CE50D1400FB6A2
:101BB000F894DEBF0FBECDBF8C0182ED92E0CB5713
:101BC000DF4F99838883C558D040C95FDE4F1982A3
:101BD0001882C750D1409A838983CD57DF4F19822D
:101BE0001882C358D040CE010196C35FDE4F688390
:101BF000CD50D140C25FDE4F7883CE50D1400E949D
:101C0000F6157C014AE0C35FDE4F6881CD50D140BC
:101C1000C25FDE4F7881CE50D140CE018B579F4FAF
:101C20000E940B166C01DC018D919C91892B09F4AB
:101C3000EFC06BE772E0C6010E946E16892B09F4B3
:101C400002C16BE772E0C6010E946E16009729F090
:101C500004960E94C7164C0102C0812C912C61E6AB
:101C600072E0C6010E946E16892B79F061E672E07F
:101C7000C6010E946E16009729F004960E94C716AE
:101C80005C0107C0A12CB12C04C07FE0A72E73E03B
:101C9000B72EF801EC5DFE4F208031802801612CC9
:101CA000712C621473040CF09CC0F201E55BFF4FD1
:101CB00060817181C4010E94E325B7E04B0E511C85
:101CC000892B21F0EFEF6E1A7E0AEBCF77FC89C0EB
:101CD00027E0269DC001279D900D1124800F911FA4
:101CE000FC01EF5AFF4F2081222361F1329740819E
:101CF0005181835B9F4F9A0135952795B801675BAA
:101D00007F4F40FD02C0FC010DC0DB01ED91FC9155
:101D1000E20FF31F0190F081E02DDC018D919C9189
:101D2000E80FF91FA081B181FB0180819181A7019A
:101D3000B601820F931FFD0109959501A7016BE67E
:101D400072E04AC0D8012C91222389F0C75FDE4F90
:101D5000F982E882C950D14082E191E0C55FDE4F4F
:101D600099838883CB50D1406FE772E04AC0FC0171
:101D7000E15BFF4F40815181835B9F4FB801675BFF
:101D80007F4F9A013595279540FD02C0FC010DC09B
:101D9000DB01ED91FC91E20FF31F0190F081E02D4A
:101DA000DC018D919C91E80FF91FA081B181FB01AD
:101DB00080819181A701B601820F931FFD010995D2
:101DC000B501C801CE960E94EC2581E0D8018C9324
:101DD0009501A7016DE972E0C8010E943E0D81E006
:101DE00033C0C75FDE4FF982E882C950D14082E13B
:101DF00091E0C55FDE4F99838883CB50D14066EA7E
:101E000072E0CE01875F9E4F0E942809950117C09E
:101E1000C75FDE4FF982E882C950D14082E191E08C
:101E2000C55FDE4F99838883CB50D1406DEB72E064
:101E3000CE01875F9E4F0E9428092FE033E0A70163
:101E400068EC72E0C9CF80E0C25FDE4F0FB6F89455
:101E5000DEBF0FBECDBFDF91CF911F910F91FF90DD
:101E6000EF90DF90CF90BF90AF909F908F907F903A
:101E70006F905F904F903F902F900895FC012181CB
:101E800032812115310511F0C901F8CFFC017283AF
:101E900061830895FC01848195818532910529F43F
:101EA00084B19681892B84B90EC08832910529F4BA
:101EB00087B19681892B87B906C08B9721F48AB1A7
:101EC0009681892B8AB90180F281E02D309719F72C
:101ED0000895CF93C82F8091990590919A05009706
:101EE00011F00E944A0FF894C130F1F41092800072
:101EF00010928100109285001092840080EC9DE584
:101F000090938900809388008091810088608093FD
:101F100081008091810081608093810080916F00B9
:101F2000826080936F001DC01092B0001092B100CB
:101F30001092B2008DE58093B3008091B000826072
:101F40008093B0008091B10082608093B100809155
:101F5000B10084608093B1008091700082608093B2
:101F600070007894CF91089521E0FC0123830895B7
:101F7000FC0113820895FC011782108611861286D7
:101F80000895FC01478350876187728723872083E8
:101F90000895FC01478150856185728581E0452B5C
:101FA000462B472B09F080E0089590E080E040FF49
:101FB00006C060FF02C0806801C08F7766959730C9
:101FC00011F0869546959F5F983089F708951F9385
:101FD000CF93DF93FC01C481D58128814681142FE2
:101FE000109512230E94D50F812B8883DF91CF910A
:101FF0001F91089598E080E040FF08C060FF02C094
:10200000886001C0877F413009F0869566954695C6
:10201000915091F70895CF93DF93EC01EC81FD810E
:1020200060814E810E94FA0F823051F028F0843096
:1020300061F0883079F012C08B85813049F40FC08F
:102040008B85813071F081E00DC08B85813039F452
:1020500088E008C08B85813021F404C003C082E091
:1020600001C084E0DF91CF91089560E00C94E70F08
:10207000CF93DF93EC017D836C834E831F821886A0
:1020800019861A861B820E943510809199059091BD
:102090009A05009729F0BE01DF91CF910C943E0F75
:1020A000D0939A05C0939905DF91CF910895CF936E
:1020B000DF93EC014F81588569857A8514161506E2
:1020C000160617061CF48B81882329F0CE01DF91B8
:1020D000CF910C9435104F81588569857A85415090
:1020E0005109610971094F83588769877A87CE0141
:1020F0000E940B10682FCE01DF91CF910C94E70F57
:10210000CF93DF93EC01CE010E9457100980DA8152
:10211000C02D2097C1F7DF91CF9108958091990547
:1021200090919A05009711F00C94801008951F92D9
:102130000F920FB60F9211242F933F934F935F93FB
:102140006F937F938F939F93AF93BF93EF93FF937F
:102150000E948E10FF91EF91BF91AF919F918F914F
:102160007F916F915F914F913F912F910F900FBE93
:102170000F901F90189581E090E008950F931F93A2
:10218000CF93DF93EC018B01FC011192119265E179
:1021900071E0CF010E94B625EF9619830883DF9185
:1021A000CF911F910F910895CF92DF92EF92FF92FE
:1021B0000F931F93CF93DF93CDB7DEB728970FB65A
:1021C000F894DEBF0FBECDBF7B018C01015C1F4FB9
:1021D000D8018D919C91DC01ED91FC910190F081F1
:1021E000E02D61E80995D801ED91FC910190F08115
:1021F000E02DC080D18018861F8288ED92E09E83FA
:102200008D83CE0105969A8389831C821B82BE0131
:102210006F5F7F4FC7010E948C166B816F77F8014B
:1022200080819181F6010995D8018D919C919A83C5
:1022300089831C821B82BE016F5F7F4FC7010E9492
:102240008C1628960FB6F894DEBF0FBECDBFDF9177
:10225000CF911F910F91FF90EF90DF90CF90089555
:10226000CF92DF92EF92FF920F931F93CF93DF9362
:1022700000D000D0CDB7DEB719821A821B821C8233
:10228000DC012D913C912330310509F082C04730AB
:1022900051050CF47EC0FB01008107FF7DC00F706B
:1022A000013019F0083009F077C0FB01A1811A2F25
:1022B0001F77212F30E0F9013596E417F5070CF070
:1022C00068C01D3708F068C0A7FD09C00830A1F03C
:1022D0006B01F6E0CF0ED11C462FFB013FC0DB01A6
:1022E0001296FE013196AE014B5F5F4FFD90F19269
:1022F000E417F507D9F7EACF8C01015C1F4FD8012D
:102300008D919C91DC01ED91FC910190F081E02D8B
:1023100068E80995F80180819181DC01ED91FC91DB
:102320000190F081E02D62E00995F80180819181B2
:10233000DC01ED91FC910190F081E02D63E00995C5
:10234000F80180819181DC01ED91FC910190F08197
:10235000E02D69EE099584E090E020C08E2F841B6B
:10236000811780F4D6015D916D018370EE24E394B2
:10237000F12CEC0EFD1EE80EF11CD7018C91852787
:102380008193ECCFFB01E20FF31F108282E090E01B
:1023900005C083E090E002C085E090E00F900F90D0
:1023A0000F900F90DF91CF911F910F91FF90EF90C1
:1023B000DF90CF900895EF92FF920F931F93CF93EA
:1023C000DF93CDB7DEB7E3970FB6F894DEBF0FBE4D
:1023D000CDBF8C018BE995E00E94C812B8016E5FF9
:1023E0007F4F8BE995E00E943A1D8BE995E00E94B2
:1023F0006115FE017F969E012D5C3F4FBF01DC0100
:102400004D91CD014193E217F307C9F71BAA44E1AF
:1024100050E0CE0101960E94190C7801BFE3EB0E4B
:10242000F11C67E870E0F701808191810E94171D1F
:10243000BE016F5F7F4FD7018D919C910E943A1D25
:1024400062E870E0F701808191810E94171DF80118
:10245000EF5BFF4F108283E090E0D8018D939C9357
:10246000E3960FB6F894DEBF0FBECDBFDF91CF91DC
:102470001F910F91FF90EF900895EF92FF920F93AD
:102480001F93CF93DF93EC018B017A01FC01EF5B8B
:10249000FF4F14161506ECF488819981833091055D
:1024A000C1F0DB01A40FB51F11972C912A3011F058
:1024B0002D3079F420812F5F20830297A9F52430F5
:1024C00099F583E090E099838883CE010E94DB1127
:1024D0002BC0108287E1E816F1044CF147E150E08F
:1024E0006DEF70E0C8010E94D525892B19F481E0B9
:1024F00090E018C08BE2E816F104C9F443E150E023
:1025000069EE70E0C8010E94D525892B81F4B801DD
:102510006D5E7F4F48E150E0CE0102960E94F325A8
:1025200082E090E09983888380E090E002C081E0BF
:1025300090E0DF91CF911F910F91FF90EF90089560
:10254000EF92FF920F931F93CF93DF93EC018B01D8
:102550007A010E943D12892B79F088819981039735
:1025600071F4A701B801CE01DF91CF911F910F91B6
:10257000FF90EF900C94301180E090E002C086E074
:1025800090E0DF91CF911F910F91FF90EF90089510
:10259000CF93DF93EC0144E150E062E571E08B5BA7
:1025A0009F4F0E94AD25FE01E75AFF4F1082118216
:1025B00012821382CC5BDF4F1882DF91CF91089596
:1025C0002F923F924F925F926F927F928F929F9243
:1025D000AF92BF92CF92DF92EF92FF920F931F9331
:1025E000CF93DF93CDB7DEB7A0970FB6F894DEBFD9
:1025F0000FBECDBF9E8F8D8F9C012B5B3F4FD901AE
:102600004D915D916D917C914D835E836F83788751
:102610002C5F3F4FD9014D915D916D917C91498720
:102620005A876B877C872C5F3F4FD9014D915D9115
:102630006D917C914D875E876F87788B2C5F3F4FC4
:10264000D9014D915D916D917C91498B5A8B6B8B2A
:102650007C8B2C5F3F4FD9014D915D916D917C91A9
:102660004D8B5E8B6F8B788F498F5A8F6B8F7C8FE2
:1026700009891A892B893C89CD84DE84EF84F88806
:1026800089849A84AB84BC844D815E816F81788516
:1026900049835A836B837C83212C312C422D40311A
:1026A00098F4D901C8018C259D25AE25BF25882128
:1026B0009921AA21BB2180279127A227B3278756DA
:1026C0009648AD47B54A8FC0822D8F706D8D7E8D37
:1026D00054E0859F600D711D1124D1011D96AF70CE
:1026E000BB271196AA0FBB1FAA0FBB1F8D8D9E8DF6
:1026F000A80FB91FF1013896EF70FF273196EE0F42
:10270000FF1FEE0FFF1FE80FF91F8D919D910D9098
:10271000BC91A02D408051806280738084259525D6
:10272000A625B725FB0144805580668077808425E7
:102730009525A625B725F1013296EF70FF27319632
:10274000EE0FFF1FEE0FFF1F6D8C7E8CE60DF71D49
:10275000408051806280738084259525A625B72509
:10276000880F991FAA1FBB1F811DFB0184839583BE
:10277000A683B783443108F494CFD701C601483209
:1027800068F488259925AA25BB2580279127A227AB
:10279000B3278F559441A642B14925C04C33B8F4B4
:1027A00088299929AA29BB2980239123A223B3230D
:1027B00026013701482059206A207B208429952949
:1027C000A629B72984529344A44EB0470CC088254B
:1027D0009925AA25BB2580279127A227B3278A52AE
:1027E0009E43AD49B5434F706D8C7E8C54E0459F40
:1027F000600C711C112478A26F8E49815A816B8103
:102800007C81EBE17695679557954795EA95D1F7E9
:1028100049805A806B807C80F5E0440C551C661C16
:10282000771CFA95D1F74429552966297729EF8D28
:10283000F8A14480558066807780440D551D661D43
:10284000771D480F591F6A1F7B1F898D9A8DAB8D8D
:10285000BC8D480F591F6A1F7B1FD501C401E2E0E0
:10286000B695A79597958795EA95D1F7FEE1880CDF
:10287000991CAA1CBB1CFA95D1F7882A992AAA2A66
:10288000BB2A9FEF291A390AA0E52A16310489F0DC
:10289000098F1A8F2B8F3C8F970186017501640178
:1028A00089809A80AB80BC8049835A836B837C8308
:1028B000F5CEED8DFE8DEB5BFF4F8D819E81AF815F
:1028C000B885480F591F6A1F7B1F4083518362835D
:1028D00073836D8C7E8C99E4690E711C89819A8159
:1028E000AB81BC8149855A856B857C85840F951F9A
:1028F000A61FB71FF30180839183A283B383ED8D5D
:10290000FE8DE35BFF4F4D855E856F857889840E74
:10291000951EA61EB71E80829182A282B382ED8D83
:10292000FE8DEF5AFF4F69897A898B899C89C60E83
:10293000D71EE81EF91EC082D182E282F3824D8D3D
:102940005E8D4B5A5F4F8D899E89AF89B88D080F78
:10295000191F2A1F3B1FDA010D931D932D933C93E2
:102960001397A0960FB6F894DEBF0FBECDBFDF91D0
:10297000CF911F910F91FF90EF90DF90CF90BF907C
:10298000AF909F908F907F906F905F904F903F900F
:102990002F900895CF93DF93EC01CC5BDF4F38810C
:1029A00023E02327FC01E20FF11D648321E0230FC4
:1029B0002883203419F40E94E0121882DF91CF910D
:1029C0000895262FFC01E75AFF4F40815181628113
:1029D00073814F5F5F4F6F4F7F4F4083518362839F
:1029E0007383622F0E94CA1481E090E008950F93D0
:1029F0001F93CF93DF93EC0160E80E94CA148E010D
:102A00000C5B1F4FF801808160E0883321F0CE011C
:102A10000E94CA14F7CFCE010E94CA1460E0CE0112
:102A20000E94CA1460E0CE010E94CA148E01075AA7
:102A30001F4FF8016081718182819381EDE196954C
:102A4000879577956795EA95D1F7CE010E94CA14CC
:102A5000F8016081718182819381F5E19695879576
:102A600077956795FA95D1F7CE010E94CA14F801BF
:102A70006081718182819381ADE09695879577958C
:102A80006795AA95D1F7CE010E94CA14F80160811A
:102A9000718182819381B5E0969587957795679549
:102AA000BA95D1F7CE010E94CA14F8016081660F71
:102AB000660F660FCE01DF91CF911F910F910C949D
:102AC000CA14CF93DF93EC010E94F714AE0125E006
:102AD00030E0FA01EB5BFF4F60817181828193816D
:102AE0000E94F9236083718382839383215031098B
:102AF0004C5F5F4F2115310561F7CE018B5B9F4F16
:102B0000DF91CF91089510929E0510929D0580EE61
:102B100092E090939C0580939B050895CF93DF935B
:102B2000EC0188819981DC01ED91FC910190F081AB
:102B3000E02D09952A813B81280F391F3B832A8389
:102B4000DF91CF9108950F931F93CF93DF93EC0103
:102B50008B016BE5C8010E948E150A80DB81C02DB8
:102B6000209779F0B801CE0102960E94EB160990E9
:102B7000D881C02D209729F06CE2C8010E948E15E3
:102B8000F1CF6DE5C801DF91CF911F910F910C94AA
:102B90008E1510924D0610924C0610924F06109210
:102BA0004E060895DB01109749F0ED91FC911197C5
:102BB0000190F081E02DBC01CD01099480E090E00E
:102BC0000895CF93DF93EC01BC0184E090E00E9474
:102BD000D215FC01009729F0D183C08313821282A1
:102BE00002C08CE496E0DF91CF910895CF93DF93FC
:102BF000EC01BC0184E090E00E94D215FC0100973A
:102C000029F0D183C0831382128202C080E596E04E
:102C1000DF91CF910895CF93DF93CDB7DEB727979C
:102C20000FB6F894DEBF0FBECDBF9A8389836115BE
:102C3000710519F48FE093E001C0CB019C838B8375
:102C40007E836D834F83CE0101960E94F1172796F4
:102C50000FB6F894DEBF0FBECDBFDF91CF910895C0
:102C6000FF920F931F93CF93DF93EC018B016115BC
:102C7000710591F464EE72E0888199810E943A1D99
:102C80002A813B81280F391F3B832A83DF91CF9113
:102C90001F910F91FF90089562E2CE010E948E1560
:102CA000F80161918F01662351F0EEEEF2E0F080C1
:102CB000FF2099F39181961759F03296F8CF62E28E
:102CC000CE01DF91CF911F910F91FF900C948E1543
:102CD0006CE5CE010E948E156F2DDFCF0F931F93F1
:102CE000CF93DF938B01FC01C281D381209759F0F0
:102CF000B8018A819B810E94E325892B39F00990D4
:102D0000D881C02DF3CF80E090E001C0CE01DF91EB
:102D1000CF911F910F9108950F931F93CF93DF933E
:102D20008C01EB016BE7CE010E948E15F801028148
:102D3000138101151105D1F0F80162817381CE0173
:102D40000E9430166AE3CE010E948E15BE01C801B2
:102D500004960E94EB16F8010081118101151105FE
:102D600029F06CE2CE010E948E15E6CF6DE7CE0110
:102D7000DF91CF911F910F910C948E1510925106F7
:102D800010925006109253061092520608950F9317
:102D90001F93CF93DF93EC01088119810130110556
:102DA00059F46A817B816115710531F084EE92E0FE
:102DB0000E94E325892B41F00150110902301105D1
:102DC00018F48A819B8102C080E090E0DF91CF916E
:102DD0001F910F910895CF93DF93FC01EB012081A8
:102DE00031812530310531F482819381DF91CF919A
:102DF0000C94A3152630310531F482819381DF9143
:102E0000CF910C948C162230310539F46281738194
:102E1000CE01DF91CF910C9430162130310519F499
:102E2000628173811EC02430310559F4428153817F
:102E3000648175812AE030E0888199810E94B21D09
:102E400022C02330310591F482819381A481B58120
:102E5000892B8A2B8B2B19F069EE72E002C06CE093
:102E600071E0888199810E943A1D0DC0273031059B
:102E700084F0275030E042815381648175818881DC
:102E800099810E94E71E2A813B81280F391F3B83CD
:102E90002A83DF91CF910895FC0120812D3051F0DC
:102EA00024F42950223030F505C0203219F02F3299
:102EB00019F008950196F0CFFC0121812A3219F012
:102EC0002F3279F008950296FC012081222321F30C
:102ED0002A3229F421812F3211F40296DDCF019696
:102EE000F3CFFC013296CF0121912223A9F22A309F
:102EF000D1F7D2CF08950F931F93CF93DF931F92F3
:102F0000CDB7DEB78C01FC018281938169830E9479
:102F10004C17FC0120816981261308C001960E948C
:102F20004C17F8019383828381E001C080E00F9009
:102F3000DF91CF911F910F910895CF93DF93EC0113
:102F4000AA81BB814C813D812C91273219F4C42F79
:102F5000D32F15C02232D9F3C42FD32FFD012AC09D
:102F60003C3559F4FD01329612963C91A2EFB2E045
:102F70006C91611110C0332339F13993DF01AE0137
:102F8000FD01319611963C9111973323E9F03213EC
:102F9000E7CF319619C0631303C011963C91EBCF74
:102FA0001296E6CF322F3F7D31543A3148F42993BF
:102FB00031962081AE0130ED320F3A30C0F3F2CFBE
:102FC00033ED320F323098F3DA011D92EC012C818F
:102FD0003D81FB83EA83BD83AC83C901DF91CF913F
:102FE0000895BF92CF92DF92EF92FF920F931F93BB
:102FF000CF93DF9300D000D000D0CDB7DEB78C01E7
:10300000FC01808191810E94F6156C016BE7C8017B
:103010000E947B17882309F444C06DE7C8010E9411
:103020007B1781113CC086E0B82EC8010E949D1715
:103030007C010097B1F16AE3C8010E947B178823E5
:1030400081F11A821982BE016F5F7F4FC8010E9411
:103050006318882331F1B701C6010E946E160097EC
:1030600041F4C6010E9414190097D9F0FC01F382C3
:10307000E282FE013196DC0114968B2D01900D92B7
:103080008A95E1F76DE7C8010E947B17811107C09F
:103090006CE2C8010E947B178111C7CF02C0C60134
:1030A00002C080E596E026960FB6F894DEBF0FBE0C
:1030B000CDBFDF91CF911F910F91FF90EF90DF90E7
:1030C000CF90BF900895FF920F931F93CF93DF93FC
:1030D000EC018B018E81882309F447C081508E83D7
:1030E0008A819B810E944C179B838A83FC0180818B
:1030F0008B3519F08B3761F01CC0CE010E94BC18D3
:10310000FC0120813181232B59F125E030E00AC0F8
:10311000CE010E94F117FC0120813181232B01F1A6
:1031200026E030E0F801318320839383828381E0BD
:1031300018C0873231F091E0823209F090E0F92E28
:1031400002C0FF24F394CE010E949D17009741F026
:10315000FF2019F022E030E0E5CF21E030E0E2CFBF
:1031600080E09E819F5F9E8301C080E0DF91CF91D0
:103170001F910F91FF900895DF92EF92FF920F93AE
:103180001F93CF93DF9300D000D000D0CDB7DEB730
:103190008C01FC01808191810E94E1157C016BE52D
:1031A000C8010E947B17882379F16DE5C8010E9450
:1031B0007B17811127C096E0D92E1A821982BE0191
:1031C0006F5F7F4FC8010E9463188823E9F0C70131
:1031D0000E9437190097C1F0FE013196DC0112966A
:1031E0008D2D01900D928A95E1F76DE5C8010E9441
:1031F0007B17811107C06CE2C8010E947B17811107
:10320000DCCF02C0C70102C08CE496E026960FB660
:10321000F894DEBF0FBECDBFDF91CF911F910F910C
:10322000FF90EF90DF900895CF93DF93EC016881DA
:1032300079818AE090E00E94D215009729F0FC0184
:103240001182108215821482EA81FB81309751F03D
:10325000208131812115310511F0F901F9CF9183D8
:10326000808302C09B838A83DF91CF910895CF939F
:10327000DF93EC016881798188E090E00E94D215AB
:10328000009729F0FC011182108213821282EA81D8
:10329000FB81309751F0208131812115310511F0EA
:1032A000F901F9CF9183808302C09B838A83DF91E8
:1032B000CF9108951F920F920FB60F9211242F9362
:1032C0003F938F939F93AF93BF93809155069091B7
:1032D0005606A0915706B09158063091540626E044
:1032E000230F2D3720F40296A11DB11D05C029E83A
:1032F000230F0396A11DB11D2093540680935506FC
:1033000090935606A0935706B0935806809159069D
:1033100090915A06A0915B06B0915C060196A11DA2
:10332000B11D8093590690935A06A0935B06B09303
:103330005C06BF91AF919F918F913F912F910F901C
:103340000FBE0F901F9018952FB7F89460915506F7
:103350007091560680915706909158062FBF089598
:103360003FB7F8948091590690915A06A0915B0658
:10337000B0915C0626B5A89B05C02F3F19F00196B9
:10338000A11DB11D3FBF6627782F892F9A2F620F8D
:10339000711D811D911D43E0660F771F881F991FC6
:1033A0004A95D1F708958330910528F0880F991F29
:1033B00004970197F1F70895789484B5826084BDED
:1033C00084B5816084BD85B5826085BD85B5816029
:1033D00085BDEEE6F0E0808181608083E1E8F0E089
:1033E0001082808182608083808181608083E0E8B8
:1033F000F0E0808181608083E1EBF0E08081846097
:103400008083E0EBF0E0808181608083EAE7F0E098
:1034100080818460808380818260808380818E7FD0
:1034200080838081806880831092C10008958E30EF
:1034300008F08E5087702091060190E4299F90013A
:103440001124822B80937C0080917A008064809389
:103450007A0080917A0086FDFCCF809178002091DF
:10346000790090E0922B0895833081F028F4813028
:1034700099F08230A1F008958730A9F08830B9F032
:103480008430D1F4809180008F7D03C080918000D2
:103490008F7780938000089584B58F7702C084B5BC
:1034A0008F7D84BD08958091B0008F7703C0809197
:1034B000B0008F7D8093B0000895CF93DF9390E0AC
:1034C000FC01E658FE4F2491FC01E257FE4F849127
:1034D000882349F190E0880F991FFC01EA54FE4FC0
:1034E000A591B49184559E4FFC01C591D4919FB78D
:1034F000611108C0F8948C91209582238C93888167
:1035000082230AC0623051F4F8948C91322F3095A6
:1035100083238C938881822B888304C0F8948C91B8
:10352000822B8C939FBFDF91CF9108950F931F93B0
:10353000CF93DF931F92CDB7DEB7282F30E0F9018C
:10354000EA59FE4F8491F901E658FE4F1491F901B2
:10355000E257FE4F04910023C9F0882321F06983CC
:103560000E94341A6981E02FF0E0EE0FFF1FE4554E
:10357000FE4FA591B4919FB7F8948C91611103C04F
:103580001095812301C0812B8C939FBF0F90DF91F9
:10359000CF911F910F910895CF93DF93282F30E0A3
:1035A000F901EA59FE4F8491F901E658FE4FD49192
:1035B000F901E257FE4FC491CC2391F081110E9492
:1035C000341AEC2FF0E0EE0FFF1FEE55FE4FA591E1
:1035D000B4912C912D2381E090E021F480E002C091
:1035E00080E090E0DF91CF910895FC01818D228DE4
:1035F00090E0805C9F4F821B91098F7399270895FB
:10360000FC01918D828D981731F0828DE80FF11DAC
:10361000858D90E008958FEF9FEF0895FC01918DC7
:10362000828D981761F0828DDF01A80FB11D5D9624
:103630008C91928D9F5F9F73928F90E008958FEF92
:103640009FEF08958CE89CE1892B49F080E090E0A1
:10365000892B29F00E948C1C81110C940000089584
:10366000FC01848DDF01A80FB11DA35ABF4F2C911F
:10367000848D90E001968F739927848FA689B789EE
:103680002C93A089B1898C9180648C93938D848DC7
:10369000981306C00288F389E02D80818F7D808396
:1036A0000895CF93DF93EC01888D8823C9F0EA89D0
:1036B000FB89808185FD05C0A889B9898C9186FD2B
:1036C0000FC00FB607FCF5CF808185FFF2CFA88928
:1036D000B9898C9185FFEDCFCE010E94301BE7CFD9
:1036E000DF91CF910895CF92DF92FF920F931F93B6
:1036F000CF93DF931F92CDB7DEB76C0181E0D60187
:1037000058968C9358975B969C915B975C968C919E
:103710005C97981307C05096ED91FC91519780816A
:1037200085FD2EC0F601038D10E00F5F1F4F0F7354
:103730001127F02EF601848DF81211C00FB607FC88
:10374000F9CFD6015096ED91FC915197808185FF7C
:10375000F1CFC60169830E94301B6981EBCF838D55
:10376000E80FF11DE35AFF4F6083D6015B960C937F
:103770005B975296ED91FC915397808180620CC0CB
:10378000D6015696ED91FC91579760835096ED9136
:10379000FC91519780818064808381E090E00F905C
:1037A000DF91CF911F910F91FF90DF90CF900895FF
:1037B000BF92CF92DF92EF92FF92CF93DF93EC0113
:1037C0006A017B01B22E60E874E88EE190E0A70107
:1037D00096010E94B823215031094109510956959B
:1037E000479537952795E889F98982E080832115E7
:1037F00080E1380798F0E889F989108260E472E482
:103800008FE090E0A70196010E94B8232150310972
:10381000410951095695479537952795EC85FD85C2
:103820003083EE85FF852083188EEC89FD89B08278
:10383000EA89FB89808180618083EA89FB898081B4
:1038400088608083EA89FB89808180688083EA8937
:10385000FB8980818F7D8083DF91CF91FF90EF90F6
:10386000DF90CF90BF9008951F920F920FB60F92E6
:1038700011242F938F939F93EF93FF93E0916D0605
:10388000F0916E068081E0917306F091740682FDDE
:1038900012C09081809176068F5F8F73209177069A
:1038A000821751F0E0917606F0E0E35AF94F958FD8
:1038B0008093760601C08081FF91EF919F918F9157
:1038C0002F910F900FBE0F901F9018951F920F927F
:1038D0000FB60F9211242F933F934F935F936F93E3
:1038E0007F938F939F93AF93BF93EF93FF938DE558
:1038F00096E00E94301BFF91EF91BF91AF919F9195
:103900008F917F916F915F914F913F912F910F9088
:103910000FBE0F901F9018958DE596E00E94F51A46
:1039200021E0892B09F420E0822F0895109260068F
:1039300010925F0688EE93E0A0E0B0E0809361060D
:1039400090936206A0936306B093640681E093E0CF
:1039500090935E0680935D0685EC90E090936A06F6
:103960008093690684EC90E090936C0680936B06DC
:1039700080EC90E090936E0680936D0681EC90E071
:103980009093700680936F0682EC90E0909372069D
:103990008093710686EC90E0909374068093730692
:1039A0001092760610927706109278061092790699
:1039B0000895CF92DF92EF92FF920F931F93CF93D0
:1039C000DF937C016A01EB0100E010E00C151D059E
:1039D00071F06991D701ED91FC910190F081E02D9A
:1039E000C7010995892B19F00F5F1F4FEFCFC80151
:1039F000DF91CF911F910F91FF90EF90DF90CF90CB
:103A000008956115710581F0DB010D900020E9F743
:103A1000AD0141505109461B570BDC01ED91FC9162
:103A20000280F381E02D099480E090E00895EF9208
:103A3000FF920F931F93CF93DF938C017B01C0E024
:103A4000D0E0F701EC0FFD1F6491662359F0F801F7
:103A5000A081B181ED91FC91C8010995892B11F0EC
:103A60002196EFCFCE01DF91CF911F910F91FF9063
:103A7000EF9008950C94011DDC01ED91FC910190F3
:103A8000F081E02D09946DE073E00C94011D0F931B
:103A90001F93CF93DF93EC010E94171D8C01CE0181
:103AA0000E94431D800F911FDF91CF911F910F91B5
:103AB00008958F929F92AF92BF92CF92DF92EF9232
:103AC000FF920F931F93CF93DF93CDB7DEB7A197EC
:103AD0000FB6F894DEBF0FBECDBF7C01C42EE52F1C
:103AE000CB01D22E19A221E02D1510F02AE0D22E02
:103AF0008E010F5D1F4F8D2C912CA12CB12C6C2DA4
:103B00007E2FA50194010E94B8238C2DD29E80198E
:103B10001124015011098A3014F4805D01C0895CC0
:103B2000F8018083211531054105510521F0C22E90
:103B3000E32FCA01E4CFB801C7010E94011DA1967D
:103B40000FB6F894DEBF0FBECDBFDF91CF911F91AE
:103B50000F91FF90EF90DF90CF90BF90AF909F902C
:103B60008F900895CF92DF92EF92FF920F931F9361
:103B7000CF93DF93EC016A017B012115310579F4C4
:103B8000E881F9810190F081E02D642FDF91CF91E0
:103B90001F910F91FF90EF90DF90CF9009942A3002
:103BA0003105E9F477FF1AC06DE20E943C1D8C01DB
:103BB00044275527BA014C195D096E097F092AE08F
:103BC000CE010E94591D800F911FDF91CF911F914F
:103BD0000F91FF90EF90DF90CF9008952AE0B7010A
:103BE000A601CE01DF91CF911F910F91FF90EF9031
:103BF000DF90CF900C94591D4F925F926F927F92FD
:103C00008F929F92AF92BF92CF92DF92EF92FF92EC
:103C10000F931F93CF93DF93EC016A017B01B22EC8
:103C20009A01AB01C701B6010E94B423882319F0A1
:103C300060E173E027C026013701E89477F82FEFA1
:103C40003FEF4FE75FE7C301B2010E94B423811148
:103C50000DC02FEF3FEF4FE75FE7C301B2010E94B6
:103C6000FE2118161CF464E173E00CC02FEF3FEF47
:103C70004FE75FE4C701B6010E944D231816ACF46C
:103C800068E173E0CE01DF91CF911F910F91FF901A
:103C9000EF90DF90CF90BF90AF909F908F907F90EC
:103CA0006F905F904F900C94011D2FEF3FEF4FE707
:103CB0005FECC701B6010E94FE2187FDE1CF20E045
:103CC00030E0A901C701B6010E94FE2187FF0AC0AA
:103CD0006DE2CE010E943C1D8C01F7FAF094F7F8DA
:103CE000F09402C000E010E0A12C60E070E080E001
:103CF0009FE3AB1441F020E030E040E251E40E9449
:103D00000222A394F6CF9B01AC01C701B6010E9429
:103D10009A216B017C010E946F222B013C010E94C1
:103D20009B229B01AC01C701B6010E9499216B0146
:103D30007C012AE0B301A201CE010E94591D080FA7
:103D4000191FBB2039F06CE173E0CE010E94011D08
:103D5000080F191F7B2C772041F120E030E040E272
:103D600051E4C701B6010E9451236B017C010E94FE
:103D70006A224B01AA2497FCA094BA2C2AE030E0D6
:103D8000B501A401CE010E94B21D080F191FC50183
:103D9000B4010E949D229B01AC01C701B6010E94A3
:103DA00099216B017C017A94D6CFC801DF91CF9124
:103DB0001F910F91FF90EF90DF90CF90BF90AF9049
:103DC0009F908F907F906F905F904F9008950C948C
:103DD000FC1D3F924F925F926F927F928F929F92C3
:103DE000AF92BF92CF92DF92EF92FF920F931F9309
:103DF000CF93DF9300D000D0CDB7DEB78B01290180
:103E00003A0190910701981721F09F3F09F0DAC11C
:103E100004C0E0ECF1E0349081C080930701E0EC55
:103E2000F1E0E491EF3F09F4CDC1E13031F1E2304E
:103E300009F44BC0E11171C014BC15BC94B592607B
:103E400094BD95B5916095BD282F30E0F901E257FA
:103E5000FE4FE491F0E0EE0FFF1FE455FE4F459159
:103E6000549150930A0740930907F901E658FE4F11
:103E7000249120930807312C53C010928000109297
:103E800081009091810098609093810090918100D1
:103E9000916090938100282F30E0F901E257FE4FA6
:103EA000E491F0E0EE0FFF1FE455FE4F4591549171
:103EB0005093030740930207F901E658FE4F2491FF
:103EC00020930107332433942BC01092B00010923A
:103ED000B1009091B00092609093B0009091B100C9
:103EE00091609093B100282F30E0F901E257FE4F26
:103EF000E491F0E0EE0FFF1FE455FE4F4591549121
:103F00005093FC064093FB06F901E658FE4F2491BE
:103F10002093FA0652E0352E03C03E2E37FC52C1E4
:103F200061E00E945D1A4801A12CB12C832D8D7F88
:103F300009F0C7C060E079E08DE390E0A50194014D
:103F40000E94DA2329833A834B835C8369017A01D7
:103F500081E0C81AD108E108F1089FEFC916D10421
:103F6000E104F10409F008F49AC060E271EA87E024
:103F700090E0A50194010E94DA2369017A01E1E051
:103F8000CE1AD108E108F108F2E03F1219C08FEF14
:103F9000C816D104E104F10409F008F48AC068E409
:103FA00078EE81E090E0A50194010E94DA23690196
:103FB0007A0191E0C91AD108E108F10883E001C053
:103FC00082E0EFEFCE16D104E104F10409F008F429
:103FD00067C064E274EF80E090E0A50194010E9464
:103FE000DA2369017A01F1E0CF1AD108E108F1087A
:103FF0003320E1F082E038121BC09FEFC916D104D4
:10400000E104F10409F008F4DBC062E17AE780E042
:1040100090E0A50194010E94DA2369017A01E1E0B0
:10402000CE1AD108E108F10885E003C083E001C0A1
:1040300084E0FFEFCF16D104E104F10489F180F1AF
:1040400069E07DE380E090E0A50194010E94DA231D
:1040500069017A0181E0C81AD108E108F10831103C
:1040600002C084E001C086E09FEFC916D104E104DC
:10407000F104B1F0A8F0C980DA80EB80FC809AE00E
:10408000F594E794D794C7949A95D1F7E1E0CE1AC6
:10409000D108E108F108332031F087E00BC081E05E
:1040A000332011F007C085E095B5987F982B95BD1A
:1040B00038C082E09091B100987F982B9093B10026
:1040C00030C060E079E08DE390E0A50194010E94AA
:1040D000DA2369017A01F1E0CF1AD108E108F10889
:1040E000C114D10481E0E806F10488F064E274EFC1
:1040F00080E090E0A50194010E94DA2369017A0131
:1041000091E0C91AD108E108F10893E001C091E0FB
:10411000E1E03E1206C080918100887F892B809368
:104120008100411451046104710471F0D801AA0F97
:10413000BB1FA30192010E94002428EE33E040E05F
:1041400050E00E94B82303C02FEF3FEFA901F1E038
:104150003F16A1F082E0381619F1311033C0C7BC08
:1041600020930B0730930C0740930D0750930E07D5
:1041700080916E00826080936E0024C0D09289008E
:10418000C0928800209304073093050740930607E8
:104190005093070780916F00826080936F0012C078
:1041A000C092B3002093FD063093FE064093FF06B5
:1041B000509300078091700082608093700002C06D
:1041C00084E078CF0F900F900F900F90DF91CF91F8
:1041D0001F910F91FF90EF90DF90CF90BF90AF9025
:1041E0009F908F907F906F905F904F903F90089539
:1041F000813039F018F0823051F0089510926E003D
:10420000089580916F008D7F80936F000895809155
:1042100070008D7F8093700081E08093B00080916A
:10422000B100887F84608093B1001092B30008953C
:10423000CF93C82F809107018C1307C0E0ECF1E009
:1042400084919FEF9093070101C08FEF0E94F820A7
:1042500060E08C2FCF910C94961A1F920F920FB69C
:104260000F9211242F933F934F935F936F937F93FC
:104270008F939F93AF93BF93EF93FF938091FD062E
:104280009091FE06A091FF06B0910007892B8A2B22
:104290008B2B51F19091FA06E091FB06F091FC0610
:1042A0008081892780838091FD069091FE06A091F0
:1042B000FF06B0910007181619061A061B06C4F46B
:1042C0008091FD069091FE06A091FF06B091000737
:1042D0000197A109B1098093FD069093FE06A09372
:1042E000FF06B093000704C0809107010E941821C7
:1042F000FF91EF91BF91AF919F918F917F916F91BE
:104300005F914F913F912F910F900FBE0F901F9093
:10431000189508950E94DC190E9489210E942E019F
:10432000C2E2DBE10E9436012097E1F30E94221BEA
:10433000F9CF5058BB27AA270ED075C166D130F0EF
:104340006BD120F031F49F3F11F41EF45BC10EF4E9
:10435000E095E7FB51C1E92F77D180F3BA176207E7
:1043600073078407950718F071F49EF58FC10EF45A
:10437000E0950B2EBA2FA02D0B01B90190010C0175
:10438000CA01A0011124FF27591B99F0593F50F48D
:10439000503E68F11A16F040A22F232F342F4427E5
:1043A000585FF3CF469537952795A795F0405395DD
:1043B000C9F77EF41F16BA0B620B730B840BBAF0AD
:1043C0009150A1F0FF0FBB1F661F771F881FC2F718
:1043D0000EC0BA0F621F731F841F48F4879577952C
:1043E0006795B795F7959E3F08F0B3CF9395880FE3
:1043F00008F09927EE0F979587950895D9D008F47E
:1044000081E008950CD00FC107D140F0FED030F00C
:1044100021F45F3F19F0F0C0511139C1F3C014D13C
:1044200098F39923C9F35523B1F3951B550BBB277B
:10443000AA2762177307840738F09F5F5F4F220F28
:10444000331F441FAA1FA9F333D00E2E3AF0E0E821
:1044500030D091505040E695001CCAF729D0FE2F6D
:1044600027D0660F771F881FBB1F261737074807FF
:10447000AB07B0E809F0BB0B802DBF01FF279358B5
:104480005F4F2AF09E3F510568F0B6C000C15F3F04
:10449000ECF3983EDCF3869577956795B795F7959D
:1044A0009F5FC9F7880F911D9695879597F9089595
:1044B000E1E0660F771F881FBB1F62177307840731
:1044C000BA0720F0621B730B840BBA0BEE1F88F740
:1044D000E095089504D06894B111D9C00895BCD076
:1044E00088F09F5790F0B92F9927B751A0F0D1F0DD
:1044F000660F771F881F991F1AF0BA95C9F712C067
:10450000B13081F0C3D0B1E00895C0C0672F782FDB
:104510008827B85F39F0B93FCCF3869577956795D2
:10452000B395D9F73EF490958095709561957F4F3E
:104530008F4F9F4F0895E89409C097FB3EF49095E4
:104540008095709561957F4F8F4F9F4F9923A9F06C
:10455000F92F96E9BB279395F695879577956795FB
:10456000B795F111F8CFFAF4BB0F11F460FF1BC03F
:104570006F5F7F4F8F4F9F4F16C0882311F096E9D2
:1045800011C0772321F09EE8872F762F05C0662380
:1045900071F096E8862F70E060E02AF09A95660F39
:1045A000771F881FDAF7880F9695879597F90895F2
:1045B000990F0008550FAA0BE0E8FEEF1616170634
:1045C000E807F907C0F012161306E407F50798F09C
:1045D000621B730B840B950B39F40A2661F0232BB5
:1045E000242B252B21F408950A2609F4A140A69531
:1045F0008FEF811D811D089597F99F6780E870E016
:1046000060E008959FEF80EC089500240A94161648
:10461000170618060906089500240A9412161306B0
:10462000140605060895092E0394000C11F488233E
:1046300052F0BB0F40F4BF2B11F460FF04C06F5F5A
:104640007F4F8F4F9F4F089557FD9058440F551F30
:1046500059F05F3F71F04795880F97FB991F61F004
:104660009F3F79F087950895121613061406551F7B
:10467000F2CF4695F1DF08C0161617061806991FE7
:10468000F1CF86957105610508940895E894BB27DC
:1046900066277727CB0197F908958ADF08F48FEF13
:1046A00008950BD0C0CFB1DF28F0B6DF18F0952306
:1046B00009F0A2CFA7CF1124EACFC6DFA0F3959FC0
:1046C000D1F3950F50E0551F629FF001729FBB27F9
:1046D000F00DB11D639FAA27F00DB11DAA1F649FA5
:1046E0006627B00DA11D661F829F2227B00DA11D58
:1046F000621F739FB00DA11D621F839FA00D611DDE
:10470000221F749F3327A00D611D231F849F600DFE
:10471000211D822F762F6A2F11249F5750408AF037
:10472000E1F088234AF0EE0FFF1FBB1F661F771FC3
:10473000881F91505040A9F79E3F510570F05CCF03
:10474000A6CF5F3FECF3983EDCF3869577956795AF
:10475000B795F795E7959F5FC1F7FE2B880F911DE1
:104760009695879597F9089523DF880B990B0895FF
:10477000A1E21A2EAA1BBB1BFD010DC0AA1FBB1F65
:10478000EE1FFF1FA217B307E407F50720F0A21BD7
:10479000B30BE40BF50B661F771F881F991F1A9444
:1047A00069F760957095809590959B01AC01BD016E
:1047B000CF010895052E97FB1EF400940E94F1236B
:1047C00057FD07D00E94B82307FC03D04EF40C9489
:1047D000F12350954095309521953F4F4F4F5F4FB6
:1047E000089590958095709561957F4F8F4F9F4F5D
:1047F00008956927962769277827872778270895B6
:104800000E941124A59F900DB49F900DA49F800D30
:10481000911D11240895EE0FFF1F0590F491E02DD6
:104820000994A29FB001B39FC001A39F700D811D89
:104830001124911DB29F700D811D1124911D0895A9
:10484000A0E0B0E0E6E2F4E20C94C3288B0161152D
:10485000710521F0DB018C9311969C93EC015E01B4
:10486000BFEFAB1ABB0A7501C8808C2D90E00E9487
:10487000A525892B11F0E501F2CFEDE2CE1208C09B
:104880007E01F2E0EF0EF11CC980DD24D39409C053
:104890002BE2C21205C07E0142E0E40EF11CC98089
:1048A000D12CE701219743E050E069EC71E0CE01A3
:1048B0000E94BD25892BC1F4239645E050E064ECAD
:1048C00071E0CE010E94BD25892B09F425960115C2
:1048D000110519F0D801CD93DC93D11006C160E029
:1048E00070E080E89FE70AC143E050E061EC71E0CE
:1048F000CE010E94BD25892B59F40115110509F43B
:10490000F9C0B2E0EB0EF11CF801F182E082F2C0D6
:10491000F70160E070E0CB01C0E0D0E07F01A0EDE6
:10492000AA2EAC0C29E02A1530F14D2D4260B42E90
:104930002D2D2870D2FE04C0211125C0219623C040
:1049400021112197A5E0B0E09B01AC010E94002459
:10495000660F771F881F991F6A0D711D811D911D9C
:104960006839A9E97A078A07A9E19A0760F0BD2D9D
:10497000B660BB2E08C02EEFA2120AC0D3FC50C0F6
:104980004D2D4860B42E3196D701CC90DB2CC6CF8C
:104990002C2D2F7D253409F043C0A081AD3241F488
:1049A000BD2DB061DB2E7F0122E0E20EF11C0CC0B8
:1049B0007F01AB3231F04FEFE41AF40A21E030E02E
:1049C00006C0A2E0EA0EF11CA18122E030E0A05373
:1049D000AA3018F0E21AF30A23C0F70120E030E011
:1049E0002038BCE03B075CF4A901440F551F440F7D
:1049F000551F240F351F220F331F2A0F311DAF0102
:104A00004F5F5F4F7A01A081A053AA3010F4FA01E2
:104A1000E7CFD4FE03C0319521953109C20FD31FD2
:104A2000D1FE09C00115110531F0E1E0EE1AF108DF
:104A3000D801ED92FC920E949B222D2D23702330F1
:104A400019F04B015C0106C04B015C01B7FAB09450
:104A5000B7F8B09420E030E0A901C501B4010E948C
:104A6000FE21882309F43EC0D7FF06C0D195C19529
:104A7000D10900EE11E002C008EF11E06801B8E1D1
:104A8000CB1AD10890E2E92EF12CCE15DF0574F097
:104A9000F8012591359145915491C501B4010E94C9
:104AA00051234B015C01CE19DF09EFCF04501109EE
:104AB000F594E7940C151D0541F78A2D880F8B2D71
:104AC000881F8F3F49F020E030E0A901C501B40103
:104AD0000E94FE21811106C082E290E090931007AF
:104AE00080930F07C501B40109C060E070E080E861
:104AF0009FEF04C060E070E080EC9FE7CDB7DEB7C9
:104B0000ECE00C94DF28662777270C942024FC0126
:104B100088279927E89421912032E9F3293010F071
:104B20002E30C8F32B3241F02D3239F4689404C092
:104B30000E940226820F911D219120532A30C0F33A
:104B40001EF4909581959F4F089591116DC280320A
:104B500019F089508550D0F70895FB01DC0102C09F
:104B600005900D9241505040D8F70895FB01DC01AB
:104B700005900D920020E1F70895FB01DC01415002
:104B8000504088F08D9181341CF08B350CF4805EA0
:104B9000659161341CF06B350CF4605E861B61110D
:104BA00071F3990B0895881BFCCFFB01DC01415088
:104BB000504030F08D910590801919F40020B9F71C
:104BC000881B990B0895FB01DC018D9101908019E0
:104BD0000110D9F3990B0895FB01DC0101900D92AE
:104BE0000020E1F70895FB01DC014150504048F0FE
:104BF00001900D920020C9F701C01D924150504014
:104C0000E0F708957AE0979F902D879F802D910D72
:104C100011240895AEE0B0E0E0E1F6E20C94CB2878
:104C20000D891E8986E08C831A8309838FEF9FE7A5
:104C30009E838D83AE01475E5F4F6F89788DCE0175
:104C400001960E942C26EF81F885E00FF11F10825B
:104C50002E96E4E00C94E728ACE0B0E0E2E3F6E264
:104C60000C94BD287C016B018A01FC01178216821D
:104C7000838181FFBDC1CE0101964C01F701938173
:104C8000F60193FD859193FF81916F01882309F4CB
:104C9000ABC1853239F493FD859193FF81916F010A
:104CA000853229F4B70190E00E942D28E7CF512CDE
:104CB000312C20E02032A0F48B3269F030F48032C5
:104CC00059F0833269F420612CC08D3239F0803381
:104CD00039F4216026C02260246023C0286021C0EE
:104CE00027FD27C030ED380F3A3078F426FF06C094
:104CF000FAE05F9E300D1124532E13C08AE0389ED7
:104D0000300D1124332E20620CC08E3221F426FD8A
:104D10006BC1206406C08C3611F4206802C088364E
:104D200041F4F60193FD859193FF81916F0181110B
:104D3000C1CF982F9F7D9554933028F40C5F1F4F5F
:104D4000FFE3F9830DC0833631F0833771F083358B
:104D500009F05BC022C0F801808189830E5F1F4F7C
:104D600044244394512C540115C03801F2E06F0ED5
:104D7000711CF801A080B18026FF03C0652D70E092
:104D800002C06FEF7FEFC5012C870E9422282C0103
:104D900083012C852F77222E17C03801F2E06F0E89
:104DA000711CF801A080B18026FF03C0652D70E062
:104DB00002C06FEF7FEFC5012C870E9417282C01DE
:104DC0002C852068222E830123FC1BC0832D90E0BC
:104DD00048165906B0F4B70180E290E00E942D28F1
:104DE0003A94F4CFF50127FC859127FE81915F016C
:104DF000B70190E00E942D2831103A94F1E04F1A4B
:104E000051084114510471F7E5C0843611F0893618
:104E100039F5F80127FF07C0608171818281938194
:104E20000C5F1F4F08C060817181882777FD8095D6
:104E3000982F0E5F1F4F2F76B22E97FF09C09095C7
:104E40008095709561957F4F8F4F9F4F2068B22E50
:104E50002AE030E0A4010E945F28A82EA81844C0D0
:104E6000853729F42F7EB22E2AE030E025C0F22FBC
:104E7000F97FBF2E8F36C1F018F4883579F0B4C0B1
:104E8000803719F0883721F0AFC02F2F2061B22E64
:104E9000B4FE0DC08B2D8460B82E09C024FF0AC05B
:104EA0009F2F9660B92E06C028E030E005C020E1B3
:104EB00030E002C020E132E0F801B7FE07C06081B7
:104EC0007181828193810C5F1F4F06C06081718167
:104ED00080E090E00E5F1F4FA4010E945F28A82E83
:104EE000A818FB2DFF77BF2EB6FE0BC02B2D2E7FF3
:104EF000A51450F4B4FE0AC0B2FC08C02B2D2E7EBF
:104F000005C07A2C2B2D03C07A2C01C0752C24FFF0
:104F10000DC0FE01EA0DF11D8081803311F4297E60
:104F200009C022FF06C07394739404C0822F867850
:104F300009F0739423FD13C020FF06C05A2C73148C
:104F400018F4530C5718732C731468F4B70180E2EB
:104F500090E02C870E942D2873942C85F5CF731434
:104F600010F4371801C0312C24FF12C0B70180E3C0
:104F700090E02C870E942D282C8522FF17C021FF4E
:104F800003C088E590E002C088E790E0B7010CC05C
:104F9000822F867859F021FD02C080E201C08BE2A9
:104FA00027FD8DE2B70190E00E942D28A51438F46A
:104FB000B70180E390E00E942D285A94F7CFAA947D
:104FC000F401EA0DF11D8081B70190E00E942D28C7
:104FD000A110F5CF332009F451CEB70180E290E063
:104FE0000E942D283A94F6CFF7018681978102C05E
:104FF0008FEF9FEF2C96E2E10C94D928F999FECF20
:1050000092BD81BDF89A992780B50895262FF99908
:10501000FECF1FBA92BD81BD20BD0FB6F894FA9A9B
:10502000F99A0FBE01960895992788270895FC01E3
:105030000590615070400110D8F7809590958E0FC3
:105040009F1F0895FC016150704001900110D8F736
:10505000809590958E0F9F1F08950F931F93CF9368
:10506000DF93182F092FEB018B8181FD03C08FEF98
:105070009FEF20C082FF10C04E815F812C813D8157
:10508000421753077CF4E881F9819F012F5F3F4F5E
:1050900039832883108306C0E885F985812F099517
:1050A000892B29F72E813F812F5F3F4F3F832E832E
:1050B000812F902FDF91CF911F910F910895FA01C9
:1050C000AA27283051F1203181F1E8946F936E7F47
:1050D0006E5F7F4F8F4F9F4FAF4FB1E03ED0B4E038
:1050E0003CD0670F781F891F9A1FA11D680F791F79
:1050F0008A1F911DA11D6A0F711D811D911DA11D8A
:1051000020D009F468943F912AE0269F1124301999
:10511000305D3193DEF6CF010895462F4770405D34
:105120004193B3E00FD0C9F7F6CF462F4F70405DE3
:105130004A3318F0495D31FD4052419302D0A9F73E
:10514000EACFB4E0A6959795879577956795BA9538
:10515000C9F700976105710508959B01AC010A2EFE
:1051600006945795479537952795BA95C9F7620FD5
:10517000731F841F951FA01D08952F923F924F9279
:105180005F926F927F928F929F92AF92BF92CF92D7
:10519000DF92EF92FF920F931F93CF93DF93CDB7E0
:1051A000DEB7CA1BDB0B0FB6F894DEBF0FBECDBF58
:1051B00009942A88398848885F846E847D848C8429
:1051C0009B84AA84B984C884DF80EE80FD800C8132
:1051D0001B81AA81B981CE0FD11D0FB6F894DEBF15
:0C51E0000FBECDBFED010895F894FFCF85
:1051EC0000001107800001FF6172670066616C733B
:1051FC0065006D73670076657273696F6E00706918
:10520C006E6700757074696D65007061757365000B
:10521C00726573756D650073746F7000636F6C6C81
:10522C00696465537461746500636F6C6C69646563
:10523C004E6F7469667900666F6C6C6F775374612E
:10524C00746500666F6C6C6F774E6F74696679006D
:10525C00736C61636B43616C6962726174696F6ECC
:10526C00006D6F766543616C6962726174696F6E13
:10527C00007475726E43616C6962726174696F6EF1
:10528C000063616C6962726174654D6F7665006371
:10529C00616C6962726174655475726E00666F72CE
:1052AC0077617264006261636B0072696768740095
:1052BC006C6566740070656E75700070656E646FF9
:1052CC00776E00666F6C6C6F7700636F6C6C6964E3
:1052DC006500626565700063616C6962726174651A
:1052EC00536C61636B00302E380025642E257300DF
:1052FC006E6F6E6500626F746800000000004701FD
:10530C004142434445464748494A4B4C4D4E4F5009
:10531C005152535455565758595A616263646566D5
:10532C006768696A6B6C6D6E6F7071727374757689
:10533C007778797A303132333435363738392B2F18
:10534C000069640073746174757300636F6D706CC5
:10535C00657465006E6F7469667900636D640050E6
:10536C00726576696F757320636F6D6D616E642005
:10537C006E6F742066696E6973686564006163633F
:10538C00657074656400436F6D6D616E64206E6F43
:10539C0074207265636F676E69736564004A534F5E
:1053AC004E207061727365206572726F720000001E
:1053BC000000C40C00000000BB10D91C0000000051
:1053CC00E114D91C6E756C6C007472756500222228
:1053DC005C5C6208660C6E0A720D740900000000B9
:1053EC0000731BD91CF51A0E1B001B511B0D0A0058
:0E53FC006E616E00696E66006F7666002E00B0
:00000001FF
