:100000000C9470000C9498000C9498000C94980038
:100010000C9498000C9498000C9498000C949218EE
:100020000C9498000C9498000C9498000C94C10EB9
:100030000C9498000C9498000C9498000C949800E0
:100040000C94AB110C9498000C94AF140C94E11424
:100050000C9498000C9498000C9498000C949800C0
:100060000C9498000C9498000123456789ABCDEF60
:10007000FEDCBA9876543210F0E1D2C300000008DA
:10008000000201000003040700000000000000005F
:10009000010204081020408001020408102001021F
:1000A00004081020040404040404040402020202EC
:1000B00002020303030303030000000023002600E1
:1000C000290000000000250028002B00000000008F
:1000D000240027002A000200AD00D104A011111550
:1000E00011241FBECFEFD8E0DEBFCDBF13E0A0E0EC
:1000F000B1E0E8E3F9E302C005900D92A63FB10735
:10010000D9F726E0A6EFB3E001C01D92AB3AB207E3
:10011000E1F710E0C0EED0E004C02297FE010E949B
:100120004419C83DD107C9F70E9455150C949A1C73
:100130000C94000026E040E051EE60E070E089EFB2
:1001400095E00E94531469EF75E086EF93E00C94FC
:10015000250486EF93E00C94BD0486EF93E00C94A5
:10016000B100CF93DF93EC0181E08A830E94F51107
:100170006A877B878C879D8788E090E0998F888F3E
:100180009B8F8A8F80ED97E09D8F8C8F88EE93E018
:100190009F8F8E8FDF91CF910895CF93DF93EC01E6
:1001A00080E090E00E94A71B803F31F481E090E066
:1001B0000E94A71B8D3019F0188219820AC082E0B4
:1001C00090E00E94A71B888383E090E00E94A71B19
:1001D0008983DF91CF910895CF92DF92EF92FF92C2
:1001E0000F931F93CF93DF9300D000D0CDB7DEB72E
:1001F0007C016B01FB0180E090E000E010E02191C8
:1002000030ED320F3A3048F4A1E0B0E0AC0FBD1F42
:10021000A80FB91F2C93019607C02E3229F4FE01B6
:10022000E80FF91F118205C00F5F1F4F093011053C
:1002300031F7CE0101960E945719F701808320E023
:1002400030E00930110509F1F601E00FF11F80815E
:1002500090ED980F9A3050F4E1E0F0E0EC0FFD1FC4
:10026000E20FF31F80832F5F3F4F0CC081110AC044
:10027000E1E0F0E0EC0FFD1FE20FF31F10822F5FB3
:100280003F4F03C00F5F1F4FDCCFE1E0F0E0EC0F0A
:10029000FD1FE20FF31F1082CE0101960E94571935
:1002A000F701818360EF80E090E00E94AF1B6DE07A
:1002B00081E090E00E94AF1BF701608182E090E056
:1002C0000E94AF1BF701618183E090E00E94AF1BA9
:1002D0000F900F900F900F90DF91CF911F910F9182
:1002E000FF90EF90DF90CF900895CF93DF93EC01D4
:1002F00082E395E00E94DF0D87E295E00E94DF0D2A
:1003000081E08D8BDF91CF910895CF93DF93EC0146
:1003100082E395E00E94E30D87E295E00E94E30D01
:100320001D8ADF91CF910895CF93DF93EC0182E393
:1003300095E00E94E60D87E295E00E94E60D1E8A98
:100340001F8ADF91CF91089564E670E080E090E02D
:100350000E942412E0910001F0910101099421E032
:10036000FC01268B0895CF93DF938EE00E949212BA
:10037000EC018FE00E9492129E01281B390BC901EB
:10038000DF91CF91089521E0FC01278B08950F9311
:100390001F93CF93DF93EB0181E10E9447138C0100
:1003A00080E10E94471321E0892B09F020E0012B16
:1003B00041F4222319F064E071E00AC069E071E0C1
:1003C00007C0222319F06EE071E002C064E171E021
:1003D000CE01DF91CF911F910F910C9487199B0152
:1003E000442737FD4095542F66E071E089E00C9476
:1003F0004E16CF93DF93EC0182E395E00E94F30D5C
:10040000882349F087E295E00E94F30D882319F0D4
:1004100081E09C89911180E0DF91CF9108958F92C6
:100420009F92AF92BF92CF92DF92EF92FF920E9483
:10043000F51124E630E040E050E00E941119490136
:100440005A018AE0C82ED12CE12CF12CCA01B90145
:10045000A70196010E941119672B682B692B91F057
:10046000C501B4016250710981099109A701960182
:100470000E94111921E0672B682B692B09F020E0FD
:10048000622F01C061E08DE0FF90EF90DF90CF9090
:10049000BF90AF909F908F900C9411130F931F9368
:1004A000CF93DF93EC018C898823D1F10E94011254
:1004B000088919892A893B89601771078207930780
:1004C00078F18C8981508C8B61E083E00E9411135C
:1004D0008E859F85892B29F40E9401124C8D5D8D9C
:1004E00004C00E9401124E8D5F8D00EE1EE2041BBF
:1004F000150B222717FD2095322F600F711F821FC9
:10050000931F688B798B8A8B9B8BCA010E944C123C
:1005100060E083E0DF91CF911F910F910C94111354
:10052000DF91CF911F910F910895CF93DF93EC014D
:100530008A81882361F0CE010E94F901811107C0F0
:100540008C898823C1F3CE010E944E02F4CFDF9143
:10055000CF9108950F931F93CF93DF93EC018B01FD
:10056000888D998D689FA001699F500D789F500DCF
:100570001124662757FD6095762F21E082E395E0F0
:100580000E94EC0D888D998D089FA001099F500D48
:10059000189F500D1124662757FD6095762F20E097
:1005A00087E295E00E94EC0DCE01DF91CF911F9183
:1005B0000F910C9495020F931F93CF93DF93EC014F
:1005C0008B01888D998D689FA001699F500D789F40
:1005D000500D1124662757FD6095762F20E082E3A9
:1005E00095E00E94EC0D888D998D089FA001099FD0
:1005F000500D189F500D1124662757FD6095762FDA
:1006000021E087E295E00E94EC0DCE01DF91CF91D1
:100610001F910F910C9495020F931F93CF93DF932B
:10062000EC018B018A8D9B8D689FA001699F500D05
:10063000789F500D1124662757FD6095762F21E095
:1006400082E395E00E94EC0D8A8D9B8D089FA001AE
:10065000099F500D189F500D1124662757FD609576
:10066000762F21E087E295E00E94EC0DCE01DF912C
:10067000CF911F910F910C9495020F931F93CF93DD
:10068000DF93EC018B018A8D9B8D689FA001699F90
:10069000500D789F500D1124662757FD6095762FD9
:1006A00020E082E395E00E94EC0D8A8D9B8D089FEF
:1006B000A001099F500D189F500D1124662757FD6A
:1006C0006095762F20E087E295E00E94EC0DCE0148
:1006D000DF91CF911F910F910C9495020F931F936F
:1006E000CF93DF93EC0182E395E00E94F30D882322
:1006F00091F187E295E00E94F30D882361F18EE08D
:100700000E9492128C018FE00E9492129801281B85
:10071000390BC901263031054CF061E070E0CE01A3
:10072000DF91CF911F910F910C943D038B3F9F4F11
:100730004CF461E070E0CE01DF91CF911F910F91F9
:100740000C940C0365E070E0CE01DF91CF911F9116
:100750000F910C94AA02DF91CF911F910F910895F0
:100760000F931F93CF93DF93EC0181E10E94471316
:100770008C0180E10E94471328853985232BE9F4F9
:10078000012B19F483E090E004C0892B69F481E027
:1007900090E09987888762E370E0CE01DF91CF9186
:1007A0001F910F910C94DB026AE070E0CE01DF91A3
:1007B000CF911F910F910C94AA0282E395E00E94C1
:1007C000F30D882391F187E295E00E94F30D8823D1
:1007D00061F1888599858230910519F4198618860A
:1007E00024C0833091057CF40197F9F482E090E015
:1007F000998788876AE570E0CE01DF91CF911F91DC
:100800000F910C940C038330910569F484E090E01F
:10081000998788876AE570E0CE01DF91CF911F91BB
:100820000F910C943D030497C9F2DF91CF911F9172
:100830000F910895FC01178616862FE0248B108AED
:10084000118A128A138A0C9495020F931F93CF93E7
:10085000DF93EC018B0181E00E94940D61E083E065
:100860000E94D81262E081E10E94D81262E080E129
:100870000E94D812198618861F861E868FE08C8BE0
:10088000188A198A1A8A1B8A1A82AE01B80186E16F
:1008900094E00E940E0661E08DE00E94D812CE0125
:1008A0000E941A04CE01DF91CF911F910F910C94F9
:1008B000CD0021E030E0FC01378726872FE0248B34
:1008C000108A118A128A138A0C949502FC012689D7
:1008D00021110C946E03FC01278921110C94B003A3
:1008E00008950F931F93CF93DF93EC018B8188239F
:1008F00039F181E10E94471301E0892B09F000E002
:1009000080E10E94471321E0892B09F020E0102F9D
:10091000110F122B8D81181799F0002341F022231B
:1009200019F064E071E007C069E071E004C02223BF
:1009300031F06EE071E086E194E00E94830A1D834D
:100940008C818823A9F08EE00E9492128C018FE0A6
:100950000E949212081B190B8E819F81081719079C
:1009600029F0B80186E194E00E948A0A1F830E8371
:10097000DF91CF911F910F910895CF93DF93EC01F9
:100980000E940F02CE010E944E02CE010E94660418
:10099000CE010E94710486E194E0DF91CF910C9426
:1009A0008E0C4DE165E270E082E395E00E94620EFC
:1009B00040EF6BE270E087E295E00E94620E86E114
:1009C00094E00C94B205DC01FB018081869586954C
:1009D0008C9390819370818182958F7020E1929F9A
:1009E000800D112411968C93119781818F70880F3F
:1009F000880F92819295969596959370890F12968D
:100A00008C93129782818F7313968C9308958F9293
:100A10009F92AF92BF92CF92DF92EF92FF920F938D
:100A20001F93CF93DF93CDB7DEB727970FB6F89418
:100A3000DEBF0FBECDBF7C015A016B01A60EB71EF3
:100A400000E010E020E030E04E0185E0880E911CCF
:100A5000CA14DB0439F1C9010196D6014D916D012B
:100A6000F401E20FF31F408383309105C9F4B40110
:100A7000CE0101960E94E304FE013196C701800F6A
:100A8000911FA191B0E0A75EBE4F2C91DC012D9388
:100A9000CD01E815F905A9F70C5F1F4F80E090E044
:100AA0009C01D6CF69012115310509F443C02330DB
:100AB000310554F4E5E0F0E0EC0FFD1FE20FF31F09
:100AC00010822F5F3F4FF3CFBE016B5F7F4FFE0160
:100AD00031965F01CF010E94E304F501C701800F49
:100AE000911FA191B0E0A75EBE4F2C91DC012D9328
:100AF000CD019F012A193B09C216D30694F70F5F57
:100B00001F4FC601D7FE02C080E090E0080F191FFA
:100B1000F701E00FF11FCE18DF08C01AD10A2DE34C
:100B20008F010E191F09C6018E0F9F1F039714F422
:100B30002193F6CFF701E00FF11F1082C80127962D
:100B40000FB6F894DEBF0FBECDBFDF91CF911F91DE
:100B50000F91FF90EF90DF90CF90BF90AF909F905C
:100B60008F900895CF93DF93EC011F821E82FC01CA
:100B7000E550FF4F10823196118210826AE571E0D4
:100B800008960E948719C35FDE4F188219821A8265
:100B90001B82DF91CF910895CF93DF93EC0167E93A
:100BA00071E0888199810E94A215C450DF4F82E0D4
:100BB00090E099838883DF91CF910895CF93DF935D
:100BC000EC0184E090E004B601FE1BC00E94A71B6C
:100BD00061E0680F633020F0CE010E94CC0560E038
:100BE00084E090E00E94AF1B0E94F511C35FDE4FCE
:100BF00068577C4E8F4F9F4F688379838A839B838E
:100C000009C00E94A71B882329F060E084E090E0DF
:100C10000E94AF1B14BEDF91CF910895FC01158295
:100C2000148271836083538342830C94DE05CF92D8
:100C3000DF92EF92FF920F931F93CF93DF93EC011C
:100C40008C0104501F4FF801808191818230910501
:100C500009F048C0613671F46BE971E088819981CF
:100C6000DF91CF911F910F91FF90EF90DF90CF9088
:100C70000C94A2157E01FAEFEF0EF11CF7019081A2
:100C800081E0890F8083FE01E90FF11DEA5BFF4FD0
:100C90006083833008F46EC06E01F6E4CF0ED11C81
:100CA00043E050E06DE971E0C6010E948E19892B86
:100CB00031F483E090E0F8019183808342C043E007
:100CC00050E067E971E0C6010E948E19892B09F096
:100CD00051C06CEC72E0888199810E94A21586E077
:100CE00090E045C08330910549F461EA71E0888164
:100CF00099810E94BF1584E090E039C0843091054D
:100D000071F5CE0186509F4F7C016D3011F06A3035
:100D1000D9F4F70180818823B9F043E050E06DE910
:100D200071E0CE018A5B9F4F0E948E19892B49F496
:100D300060EB71E0888199810E94BF15F8011182F2
:100D40001082F701108216C0F701808191E0980FA0
:100D50009083C80FD11DCA5BDF4F68830BC0069715
:100D600049F46D3011F06A3029F483E090E0F80125
:100D700091838083DF91CF911F910F91FF90EF902E
:100D8000DF90CF900895DF92EF92FF920F931F9321
:100D9000CF93DF93CDB7DEB7E3970FB6F894DEBFFE
:100DA0000FBECDBF8C01FC01E650FF4FD08086E125
:100DB0008D1598F447E150E065EB71E0C8018A5B5E
:100DC0009F4F0E948E19892B59F481E090E0D80141
:100DD00015969C938E931497B1C0B2E1BD15A0F502
:100DE0007801E6E4EE0EF11C4AE050E06DEC71E0B3
:100DF000C7010E948E19892B41F484E090E0D8014C
:100E000015969C938E93149779C0BBE2DB121CC09D
:100E100043E150E068ED71E0C7010E948E19892B13
:100E200009F08BC0B801675A7F4F48E150E0C80114
:100E300008960E949C1982E090E0F80195838483D3
:100E4000EB5BFF4F10825AC0D11077C0D8011496C7
:100E50008D919C9115978230910509F051C07801D0
:100E6000B5E4EB0EF11CF70180818F5F8083843045
:100E700009F063C08FE395E00E94E50EB801685F5A
:100E80007F4F8FE395E00E94A2158FE395E00E94CB
:100E90007E11FE017F969E012D5C3F4FBF01DC015C
:100EA0004D91CD014193E217F307C9F71BAA44E125
:100EB00050E0CE0101960E9407056CEE71E0F8014A
:100EC000808191810E94A215BE016F5F7F4FD80182
:100ED0008D919C910E94A2156AEC72E0F8018081CC
:100EE00091810E94A215D7011C9283E090E0F80145
:100EF0009583848382E090E09783868381E01EC09F
:100F00000597D9F4F801EB5BFF4F80818F5F8083F9
:100F1000843099F486E090E0D80115969C938E93E6
:100F2000149781E090E017969C938E9316976EE449
:100F300072E08D919C910E94A21580E0E3960FB61D
:100F4000F894DEBF0FBECDBFDF91CF911F910F91FF
:100F5000FF90EF90DF900895AF92BF92CF92DF9213
:100F6000EF92FF920F931F93CF93DF931F92CDB712
:100F7000DEB75C016B017A018901FB010190002061
:100F8000E9F73197E61BF70BDA018C91811103C069
:100F90007DE07E0F0AC0DA010D900020E9F711977D
:100FA000A41BB50B77E17E0F7A0FF80180818823AF
:100FB00049F0D8010D900020E9F71197A01BB10B63
:100FC000775F7A0FD50116962D913C9117978D91E9
:100FD0009C9122303105B1F4DC01ED91FC9101903E
:100FE000F081E02D61E879830995F5018081918197
:100FF000FC01A081B1817981672F6F77ED91FC9120
:10100000099508C02130310529F44AE050E0672FE6
:101010000E9437166FE972E0D5018D919C910E9474
:10102000A215B601F501808191810E94A2156CEB99
:1010300072E0D5018D919C910E94A215F7018081EB
:101040008823A1F06BEA72E0D5018D919C910E94FA
:10105000A215B701F501808191810E94A2156CEB68
:1010600072E0D5018D919C910E94A215F8018081BA
:101070008823A1F065EB72E0D5018D919C910E94CF
:10108000A215B801F501808191810E94A2156CEB37
:1010900072E0D5018D919C910E94A2156EEB72E0D9
:1010A000F501808191810E94A215D50116968D913E
:1010B0009C911797019771F460EC72E0C6010E9451
:1010C0007E19892B39F469EC72E0F50180819181F8
:1010D0000E94A215D50116968D919C911797892B88
:1010E00089F46CEC72E08D919C910F90DF91CF911F
:1010F0001F910F91FF90EF90DF90CF90BF90AF9036
:101100000C94A2150F90DF91CF911F910F91FF903A
:10111000EF90DF90CF90BF90AF9008956F927F9245
:101120008F929F92AF92BF92CF92DF92EF92FF92F7
:101130000F931F93CF93DF93CDB7DEB728970FB6EA
:10114000F894DEBF0FBECDBF8C017B015A0169014F
:101150006FEC72E0C7010E947E19892B09F488C0E8
:1011600064ED72E0C7010E947E19892B81F496011B
:101170004EEC52E060EC72E0C8010E94AC07D8016E
:1011800012968D919C9113970E94A401A7C163EFC1
:1011900072E0C7010E947E19892B21F496014AED65
:1011A00052E08CC061EF72E0C7010E947E19892B6A
:1011B00091F4D8011296ED91FC9113978081918161
:1011C000811106C0911104C0960140EE52E076C034
:1011D0001F929F9318C06EEE72E0C7010E947E19A5
:1011E000892B59F5B501D80112968D919C911397D1
:1011F0000E94EC00D8011296ED91FC911397818129
:101200001F928F9380811F928F9388EE92E09F931D
:101210008F93FE0131967F01FF92EF930E94B319E5
:101220009601A70160EC72E0C8010E94AC070FB6FE
:10123000F894DEBF0FBECDBF51C16BEF72E0C701A6
:101240000E947E19892B41F4D80112968D919C91B0
:1012500013970E9475010CC061E073E0C7010E9402
:101260007E19892B49F4F801828193810E948501BE
:1012700096014EEC52E022C068E073E0C7010E9484
:101280007E19892B41F4D80112968D919C91139768
:101290000E949401EDCF6DE073E0C7010E947E19BA
:1012A000892B79F4BE016F5F7F4FF80182819381B2
:1012B0000E94C7019601AE014F5F5F4F60EC72E084
:1012C0000AC16AE173E0C7010E947E19892B89F483
:1012D00068E273E0C5010E947E19D8011296ED9173
:1012E000FC911397892B11F41382C2CF81E0838381
:1012F000BFCF6EE273E0C7010E947E19892B01F512
:10130000F801828193810E94B3019F938F938BEEAA
:1013100092E09F938F93CE0101967C01FF928F9371
:101320000E94B3199601A70160EC72E0C8010E9407
:10133000AC070F900F900F900F900F900F90CEC0B2
:101340006AE373E0C7010E947E19892B89F468E281
:1013500073E0C5010E947E19D8011296ED91FC91AF
:101360001397892B11F4148283CF81E0848380CF7B
:101370003801BBEF6B0E711CF3018081882321F0D3
:10138000960147E453E09FC04801FEEF8F0E911C89
:10139000B601C4010E94871981E0D3018C936BE6EA
:1013A00073E0C7010E947E19892B51F4C5010E9488
:1013B0005719BC01F801828193810E94AA0286C05C
:1013C00063E773E0C7010E947E19892B61F4C501B0
:1013D0000E945719BC01D80112968D919C911397C8
:1013E0000E94DB0273C06EE071E0C7010E947E19AB
:1013F000892B51F4C5010E945719BC01F801828163
:1014000093810E943D0362C069E071E0C7010E94C0
:101410007E19892B61F4C5010E945719BC01D801BE
:1014200012968D919C9113970E940C034FC068E710
:1014300073E0C7010E947E19892B31F4F801828183
:1014400093810E941A0442C06EE773E0C7010E94B4
:101450007E19892B41F4D80112968D919C91139796
:101460000E94590433C066E873E0C7010E947E19E8
:10147000892B31F4F801828193810E94AF0126C04B
:101480006DE873E0C7010E947E19892B41F4D801F1
:1014900012968D919C9113970E94C30117C065E924
:1014A00073E0C7010E947E19892B51F4C5010E9487
:1014B0005719BC01F801828193810E94EF0106C097
:1014C00096014AE953E065E673E005C094014EECED
:1014D00052E061EB73E0C8010E94AC0728960FB69A
:1014E000F894DEBF0FBECDBFDF91CF911F910F915A
:1014F000FF90EF90DF90CF90BF90AF909F908F9034
:101500007F906F900895AB012DE833E06AEB73E0B4
:101510000C94AC07EF92FF920F931F93CF93DF933E
:1015200000D000D000D0CDB7DEB77C017F936F93A1
:101530002BEE32E03F932F938E010F5F1F4F1F93CF
:101540000F930E94B31926E833E0A8016AEB73E019
:10155000C7010E94AC070F900F900F900F900F9053
:101560000F9026960FB6F894DEBF0FBECDBFDF9169
:10157000CF911F910F91FF90EF9008950F931F93BC
:10158000CF93DF93FA0110E0C0E0D0E050E080E0BC
:1015900090E04081442309F467C08130910569F0EF
:1015A0008330910559F1009709F05CC0423209F08F
:1015B00059C050E081E090E055C0423261F4CF0163
:1015C0000196FC01408101964A33D9F34032C9F3B8
:1015D00083E090E013C0DB01A50FB11D57FDBA9564
:1015E000AC91A4133FC05F5FDB01A50FB11D57FD98
:1015F000BA954C91411136C0D1E034C040811111EF
:101600000BC0C11102C04B3509F1423209F1CC23A4
:1016100049F04D3521F41EC0423279F41DC04032EC
:1016200061F420C04C3221F0403211F04D3729F4E2
:10163000DD23A1F0F901108217C0DD2399F0D90153
:101640004D93015071F4F90111820EC0C1E00AC03E
:1016500011E008C0C0E006C010E004C080E090E0E7
:1016600001C09D01319695CFDF91CF911F910F91D0
:101670000895CF92DF92EF92FF920F93CF93DF9373
:10168000CDB7DEB7A4970FB6F894DEBF0FBECDBFBF
:101690007C01FC01E650FF4F80818823D9F167016E
:1016A00096E4C90ED11CF60190819B3799F5F7019C
:1016B000E80FF11DEB5BFF4F80818D3759F50DE091
:1016C0009E012F5F3F4FA60161EC73E0C7010E94AE
:1016D000BE0A0AE09E01265E3F4FA60165EC73E05C
:1016E000C7010E94BE0A9E01215F3F4FA60169EC1F
:1016F00073E0C7010E94BE0A9E01215F3F4FAE0109
:10170000465E5F4FBE016F5F7F4FC7010E948E082C
:1017100081E001C080E0A4960FB6F894DEBF0FBE52
:10172000CDBFDF91CF910F91FF90EF90DF90CF90E1
:101730000895CF93DF93EC01FC01E650FF4F8081C9
:10174000882399F0E45BF10990819B3771F4FE01E5
:10175000E80FF11DEB5BFF4F80818D3731F41F8265
:101760001E82CE010E94390B0DC0CE010E94C3061D
:10177000811108C081E02C813D812330310519F4AD
:1017800080E001C081E0DF91CF910895AF92BF92D8
:10179000CF92DF92EF92FF920F931F93CF93DF933D
:1017A00000D000D0CDB7DEB78C0119821A821B821F
:1017B0001C82DC0114968D919C911597039709F07A
:1017C0009DC0F801E650FF4F8081873008F496C035
:1017D000AA5BBF4F9C91792F7F7097FD05C0713038
:1017E00019F0783009F08AC0D801A95BBF4F6C911D
:1017F000B62FBF77FB2E2B2F30E0A9014B5F5F4F39
:1018000090E0481759070CF079C05CE75B1708F4C3
:101810006AC067FD03C0E02EC8010FC0D801A85BF5
:10182000BF4F8C91898311968C918A8311968C91EC
:101830008B8311968C918C83EECF482F4E194F15C8
:10184000C0F45C01A6E4AA0EB11C4370CC24C3947E
:10185000D12CCC0EDD1EC40ED11CAC01445B5F4FFD
:10186000D6016C91DA014C916427D5016C930196F5
:10187000E4CFF082200F311FF901EA5BFF4F1082A5
:10188000783069F5F80180819181DC01ED91FC915E
:101890000190F081E02D68E80995F801808191813F
:1018A000DC01ED91FC910190F081E02D62E0099561
:1018B000F80180819181DC01ED91FC910190F08132
:1018C000E02D63E00995F80180819181DC01ED91C3
:1018D000FC910190F081E02D69EE09950DC0C801E1
:1018E0000E94390B09C02EEC32E04CEC53E065E667
:1018F00073E0C8010E94AC0781E001C080E00F9056
:101900000F900F900F90DF91CF911F910F91FF904B
:10191000EF90DF90CF90BF90AF900895AF92BF92BD
:10192000CF92DF92EF92FF920F931F93CF93DF93AB
:101930001F92CDB7DEB75C018C0105501F4FD80157
:101940008C91882379F0F501828193810E94F901BD
:10195000882341F0F501E450FF4F80819181892B6C
:1019600009F471C08501035F1E4FD801CD90DD9051
:10197000ED90FC901C141D041E041F0444F40E94EE
:10198000F511C616D706E806F90608F469C0F50190
:1019900080819181DC01ED91FC910480F581E02D45
:1019A00009958501075F1E4F18161906B4F50E94A8
:1019B000F511F8016083718382839383D5018D9142
:1019C0009C91DC01ED91FC910680F781E02D099559
:1019D000682FF501E450FF4F20813181232B71F0F6
:1019E000C5010F90DF91CF911F910F91FF90EF9064
:1019F000DF90CF90BF90AF900C94170685010650F2
:101A00001F4F8D3011F08A30B9F5C50169830E94EE
:101A1000990B698181114FC02FC00E94F511D80127
:101A2000CD90DD90ED90FC906C197D098E099F0999
:101A3000643F71408105910508F43FC0F501E6500F
:101A4000FF4F10823AC0F8011082950122503F4F9B
:101A50004EEC52E060EC72E0C5010E94AC0782CF10
:101A6000D8011D921D921D921C92139760E084E094
:101A700090E00E94AF1B8BCFD8018C9191E0980F22
:101A80009C93F501E80FF11DEA5BFF4F6083C501F0
:101A90000E94C60B882311F0F8011082D8018C91A6
:101AA000843B59F42EEC32E04CEC53E065E673E0F5
:101AB000C5010E94AC07F801C4CF0F90DF91CF9110
:101AC0001F910F91FF90EF90DF90CF90BF90AF905C
:101AD0000895FC01208131812115310511F0C901E2
:101AE000F8CFFC01718360830895FC0183819481A8
:101AF0008532910529F484B19581892B84B90EC072
:101B00008832910529F487B19581892B87B906C060
:101B10008B9721F48AB19581892B8AB90190F08144
:101B2000E02D309719F70895CF93C82F80913D0588
:101B300090913E05009711F00E94750DF894C13008
:101B4000F1F41092800010928100109285001092A2
:101B5000840080EC9DE590938900809388008091BB
:101B600081008860809381008091810081608093F2
:101B7000810080916F00826080936F001DC0109281
:101B8000B0001092B1001092B2008DE58093B300C6
:101B90008091B00082608093B0008091B10082603B
:101BA0008093B1008091B10084608093B1008091F6
:101BB00070008260809370007894CF91089521E046
:101BC000FC0122830895FC0112820895FC01168213
:101BD0001782108611860895FC014683578360871B
:101BE000718722870895FC01468157816085718540
:101BF00081E0452B462B472B09F080E0089590E0CB
:101C000080E040FF06C060FF02C0806801C08F779F
:101C10006695973011F0869546959F5F983089F7C5
:101C200008951F93CF93DF93FC01C381D481288152
:101C30004581142F109512230E94FF0D812B88835C
:101C4000DF91CF911F91089598E080E040FF08C098
:101C500060FF02C0886001C0877F413009F086952F
:101C600066954695915091F70895CF93DF93EC01D7
:101C7000EB81FC8160814D810E94240E823051F005
:101C800028F0843061F0883079F012C08A85813084
:101C900049F40FC08A85813071F081E00DC08A85DA
:101CA000813039F488E008C08A85813021F404C08D
:101CB00003C082E001C084E0DF91CF91089560E02D
:101CC0000C94110ECF93DF93EC017C836B834D83D7
:101CD0001E821F82188619861A820E945F0E8091CA
:101CE0003D0590913E05009729F0BE01DF91CF910F
:101CF0000C94690DD0933E05C0933D05DF91CF91C3
:101D00000895CF93DF93EC014E815F8168857985DB
:101D100014161506160617061CF48A81882329F066
:101D2000CE01DF91CF910C945F0E4E815F8168856B
:101D3000798541505109610971094E835F83688734
:101D40007987CE010E94350E682FCE01DF91CF91A9
:101D50000C94110ECF93DF93EC01CE010E94810E03
:101D60000990D881C02D2097C1F7DF91CF910895B8
:101D700080913D0590913E05009711F00C94AA0EBC
:101D800008951F920F920FB60F9211242F933F9335
:101D90004F935F936F937F938F939F93AF93BF9373
:101DA000EF93FF930E94B80EFF91EF91BF91AF9117
:101DB0009F918F917F916F915F914F913F912F9163
:101DC0000F900FBE0F901F901895CF93DF93EC01EB
:101DD00044E150E068E670E08B5B9F4F0E9475190C
:101DE000FE01E75AFF4F1082118212821382CC5BF0
:101DF000DF4F1882DF91CF9108952F923F924F923B
:101E00005F926F927F928F929F92AF92BF92CF928A
:101E1000DF92EF92FF920F931F93CF93DF93CDB793
:101E2000DEB7A0970FB6F894DEBF0FBECDBF9E8F72
:101E30008D8F9C012B5B3F4FD9014D915D916D9131
:101E40007C914D835E836F8378872C5F3F4FD901F0
:101E50004D915D916D917C9149875A876B877C8705
:101E60002C5F3F4FD9014D915D916D917C914D87D4
:101E70005E876F87788B2C5F3F4FD9014D915D91C5
:101E80006D917C91498B5A8B6B8B7C8B2C5F3F4F78
:101E9000D9014D915D916D917C914D8B5E8B6F8BD6
:101EA000788F498F5A8F6B8F7C8F09891A892B897C
:101EB0003C89CD84DE84EF84F88889849A84AB845D
:101EC000BC844D815E816F81788549835A836B83A1
:101ED0007C83212C312C422D403198F4D901C8014A
:101EE0008C259D25AE25BF2588219921AA21BB21BE
:101EF00080279127A227B32787569648AD47B54A32
:101F00008FC0822D8F706D8D7E8D54E0859F600D0A
:101F1000711D1124D1011D96AF70BB271196AA0F18
:101F2000BB1FAA0FBB1F8D8D9E8DA80FB91FF1017E
:101F30003896EF70FF273196EE0FFF1FEE0FFF1F51
:101F4000E80FF91F8D919D910D90BC91A02D4080BF
:101F500051806280738084259525A625B725FB01D5
:101F6000448055806680778084259525A625B725F1
:101F7000F1013296EF70FF273196EE0FFF1FEE0F43
:101F8000FF1F6D8C7E8CE60DF71D408051806280B6
:101F9000738084259525A625B725880F991FAA1F2C
:101FA000BB1F811DFB0184839583A683B7834431C6
:101FB00008F494CFD701C601483268F488259925E2
:101FC000AA25BB2580279127A227B3278F559441A7
:101FD000A642B14925C04C33B8F488299929AA29C9
:101FE000BB2980239123A223B32326013701482054
:101FF00059206A207B2084299529A629B729845253
:102000009344A44EB0470CC088259925AA25BB252A
:1020100080279127A227B3278A529E43AD49B54313
:102020004F706D8C7E8C54E0459F600C711C1124A8
:1020300078A26F8E49815A816B817C81EBE1769524
:10204000679557954795EA95D1F749805A806B80F7
:102050007C80F5E0440C551C661C771CFA95D1F782
:102060004429552966297729EF8DF8A144805580A8
:1020700066807780440D551D661D771D480F591FDA
:102080006A1F7B1F898D9A8DAB8DBC8D480F591FA0
:102090006A1F7B1FD501C401E2E0B695A79597950D
:1020A0008795EA95D1F7FEE1880C991CAA1CBB1C08
:1020B000FA95D1F7882A992AAA2ABB2A9FEF291ACA
:1020C000390AA0E52A16310489F0098F1A8F2B8F5F
:1020D0003C8F970186017501640189809A80AB80ED
:1020E000BC8049835A836B837C83F5CEED8DFE8D56
:1020F000EB5BFF4F8D819E81AF81B885480F591FE3
:102100006A1F7B1F40835183628373836D8C7E8C37
:1021100099E4690E711C89819A81AB81BC814985E2
:102120005A856B857C85840F951FA61FB71FF30109
:1021300080839183A283B383ED8DFE8DE35BFF4F9C
:102140004D855E856F857889840E951EA61EB71E07
:1021500080829182A282B382ED8DFE8DEF5AFF4F75
:1021600069897A898B899C89C60ED71EE81EF91E5B
:10217000C082D182E282F3824D8D5E8D4B5A5F4FD9
:102180008D899E89AF89B88D080F191F2A1F3B1FA3
:10219000DA010D931D932D933C931397A0960FB6E0
:1021A000F894DEBF0FBECDBFDF91CF911F910F918D
:1021B000FF90EF90DF90CF90BF90AF909F908F9067
:1021C0007F906F905F904F903F902F900895CF93A6
:1021D000DF93EC01CC5BDF4F388123E02327FC0148
:1021E000E20FF11D648321E0230F2883203419F4CA
:1021F0000E94FD0E1882DF91CF910895262FFC01D9
:10220000E75AFF4F40815181628173814F5F5F4F79
:102210006F4F7F4F4083518362837383622F0E948D
:10222000E71081E090E008950F931F93CF93DF9321
:10223000EC0160E80E94E7108E010C5B1F4FF80173
:10224000808160E0883321F0CE010E94E710F7CF53
:10225000CE010E94E71060E0CE010E94E71060E02E
:10226000CE010E94E7108E01075A1F4FF8016081CE
:10227000718182819381EDE1969587957795679538
:10228000EA95D1F7CE010E94E710F80160817181D3
:1022900082819381F5E19695879577956795FA9573
:1022A000D1F7CE010E94E710F8016081718182812F
:1022B0009381ADE09695879577956795AA95D1F727
:1022C000CE010E94E710F8016081718182819381C3
:1022D000B5E09695879577956795BA95D1F7CE0134
:1022E0000E94E710F8016081660F660F660FCE014D
:1022F000DF91CF911F910F910C94E710CF93DF9353
:10230000EC010E941411AE0125E030E0FA01EB5B14
:10231000FF4F60817181828193810E9430196083B7
:10232000718382839383215031094C5F5F4F211564
:10233000310561F7CE018B5B9F4FDF91CF910895FF
:10234000109242051092410581EE93E09093400572
:1023500080933F0508951F920F920FB60F9211249C
:102360002F933F938F939F93AF93BF938091F105EA
:102370009091F205A091F305B091F4053091F0052C
:1023800026E0230F2D3720F40296A11DB11D05C0B4
:1023900029E8230F0396A11DB11D2093F00580931A
:1023A000F1059093F205A093F305B093F4058091A5
:1023B000F5059091F605A091F705B091F805019605
:1023C000A11DB11D8093F5059093F605A093F70527
:1023D000B093F805BF91AF919F918F913F912F914D
:1023E0000F900FBE0F901F9018952FB7F894609123
:1023F000F1057091F2058091F3059091F4052FBFDE
:1024000008953FB7F8948091F5059091F605A09155
:10241000F705B091F80526B5A89B05C02F3F19F028
:102420000196A11DB11D3FBF6627782F892F9A2FD6
:10243000620F711D811D911D43E0660F771F881F7C
:10244000991F4A95D1F70895CF92DF92EF92FF92AC
:10245000CF93DF936B017C010E940112EB01C11449
:10246000D104E104F10489F00E94EE180E940112E7
:102470006C1B7D0B683E734090F381E0C81AD10855
:10248000E108F108C851DC4FEACFDF91CF91FF900E
:10249000EF90DF90CF9008958130910539F0029749
:1024A00029F0880F991F01970197F1F70895789403
:1024B00084B5826084BD84B5816084BD85B5826049
:1024C00085BD85B5816085BDEEE6F0E080818160E7
:1024D0008083E1E8F0E010828081826080838081E7
:1024E00081608083E0E8F0E0808181608083E1EBBF
:1024F000F0E0808184608083E0EBF0E080818160A7
:102500008083EAE7F0E0808184608083808182605C
:102510008083808181608083808180688083109245
:10252000C10008958E3008F08E508770209102010E
:1025300090E4299F90011124822B80937C0080914C
:102540007A00806480937A0080917A0086FDFCCFC7
:10255000809178002091790090E0922B089583304B
:1025600081F028F4813099F08230A1F0089587300D
:10257000A9F08830B9F08430D1F4809180008F7D4B
:1025800003C0809180008F7780938000089584B588
:102590008F7702C084B58F7D84BD08958091B0008F
:1025A0008F7703C08091B0008F7D8093B000089535
:1025B000CF93DF9390E0FC01E057FF4F2491FC01A3
:1025C000EC55FF4F8491882349F190E0880F991FC3
:1025D000FC01E453FF4FA591B4918E539F4FFC0132
:1025E000C591D4919FB7611108C0F8948C91209542
:1025F00082238C93888182230AC0623051F4F8943C
:102600008C91322F309583238C938881822B888301
:1026100004C0F8948C91822B8C939FBFDF91CF9153
:1026200008950F931F93CF93DF931F92CDB7DEB71B
:10263000282F30E0F901E458FF4F8491F901E05769
:10264000FF4F1491F901EC55FF4F04910023C9F09D
:10265000882321F069830E94AF126981E02FF0E0A6
:10266000EE0FFF1FEE53FF4FA591B4919FB7F89463
:102670008C91611103C01095812301C0812B8C9333
:102680009FBF0F90DF91CF911F910F910895CF932E
:10269000DF93282F30E0F901E458FF4F8491F901CE
:1026A000E057FF4FD491F901EC55FF4FC491CC2373
:1026B00091F081110E94AF12EC2FF0E0EE0FFF1F9E
:1026C000E854FF4FA591B4912C912D2381E090E027
:1026D00021F480E002C080E090E0DF91CF91089586
:1026E000FC01818D228D90E0805C9F4F821B9109BF
:1026F0008F7399270895FC01918D828D981731F081
:10270000828DE80FF11D858D90E008958FEF9FEF8A
:102710000895FC01918D828D981761F0828DDF0103
:10272000A80FB11D5D968C91928D9F5F9F73928FC4
:1027300090E008958FEF9FEF089587E095E1892B52
:1027400049F080E090E0892B29F00E940715811163
:102750000C9400000895FC01848DDF01A80FB11DC9
:10276000A35ABF4F2C91848D90E001968F739927C7
:10277000848FA689B7892C93A089B1898C918064B4
:102780008C93938D848D981306C00288F389E02D75
:1027900080818F7D80830895CF93DF93EC01888DB6
:1027A0008823C9F0EA89FB89808185FD05C0A88955
:1027B000B9898C9186FD0FC00FB607FCF5CF8081DB
:1027C00085FFF2CFA889B9898C9185FFEDCFCE0125
:1027D0000E94AB13E7CFDF91CF910895CF92DF92A4
:1027E000FF920F931F93CF93DF931F92CDB7DEB766
:1027F0006C01DC015B969C915B975C968C915C977D
:10280000981307C05096ED91FC915197808185FDFA
:1028100032C0F601038D10E00F5F1F4F0F731127B9
:10282000F02EF601848DF81211C00FB607FCF9CF17
:10283000D6015096ED91FC915197808185FFF1CFA3
:10284000C60169830E94AB136981EBCF838DE80FCA
:10285000F11DE35AFF4F6083D6015B960C935B97A3
:102860005296ED91FC91539780818062808381E044
:1028700058968C930DC0D6015696ED91FC915797C2
:1028800060835096ED91FC915197808180648083A4
:1028900081E090E00F90DF91CF911F910F91FF9019
:1028A000DF90CF900895BF92CF92DF92EF92FF9288
:1028B000CF93DF93EC016A017B01B22E60E874E8EC
:1028C0008EE190E0A70196010E94EF182150310996
:1028D000410951095695479537952795E889F98912
:1028E00082E08083211580E1380798F0E889F98932
:1028F000108260E472E48FE090E0A70196010E94EC
:10290000EF182150310941095109569547953795DE
:102910002795EC85FD853083EE85FF852083188E15
:10292000EC89FD89B082EA89FB898081806180839E
:10293000EA89FB89808188608083EA89FB898081BC
:1029400080688083EA89FB8980818F7D8083DF9125
:10295000CF91FF90EF90DF90CF90BF9008951F929E
:102960000F920FB60F9211242F938F939F93EF9393
:10297000FF93E0910906F0910A068081E0910F062D
:10298000F091100682FD12C09081809112068F5F37
:102990008F7320911306821751F0E0911206F0E038
:1029A000E750FA4F958F8093120601C08081FF9106
:1029B000EF919F918F912F910F900FBE0F901F90CD
:1029C00018951F920F920FB60F9211242F933F93D9
:1029D0004F935F936F937F938F939F93AF93BF9327
:1029E000EF93FF9389EF95E00E94AB13FF91EF9176
:1029F000BF91AF919F918F917F916F915F914F9117
:102A00003F912F910F900FBE0F901F90189589EF57
:102A100095E00E94701321E0892B09F420E0822FB9
:102A200008951092FC051092FB0588EE93E0A0E05B
:102A3000B0E08093FD059093FE05A093FF05B09351
:102A4000000689EE93E09093FA058093F90585ECF2
:102A500090E0909306068093050684EC90E09093B6
:102A600008068093070680EC90E090930A06809316
:102A7000090681EC90E090930C0680930B0682ECA3
:102A800090E090930E0680930D0686EC90E0909374
:102A9000100680930F0610921206109213061092E1
:102AA000140610921506089508950E9457120E9468
:102AB00054150E949A00CDE9D3E10E94A900209705
:102AC000E1F30E949D13F9CFCF92DF92EF92FF9234
:102AD0000F931F93CF93DF936C017A01EB01E60E06
:102AE000F71E00E010E0CE15DF0561F06991D60118
:102AF000ED91FC910190F081E02DC6010995080F40
:102B0000191FF1CFC801DF91CF911F910F91FF9055
:102B1000EF90DF90CF9008956115710581F0DB0192
:102B20000D900020E9F7AD0141505109461B570BAC
:102B3000DC01ED91FC910280F381E02D099480E0AD
:102B400090E008950C948C15DC01ED91FC910190BE
:102B5000F081E02D09940F931F93CF93DF93EC0145
:102B60006DE00E94A4158C016AE0CE010E94A415BC
:102B7000800F911FDF91CF911F910F9108950F93B7
:102B80001F93CF93DF93EC010E948C158C01CE0133
:102B90000E94AB15800F911FDF91CF911F910F9174
:102BA00008958F929F92AF92BF92CF92DF92EF9251
:102BB000FF920F931F93CF93DF93CDB7DEB7A1970B
:102BC0000FB6F894DEBF0FBECDBF7C01C42EE52F3B
:102BD000CB01D22E19A221E02D1510F02AE0D22E21
:102BE0008E010F5D1F4F8D2C912CA12CB12C6C2DC3
:102BF0007E2FA50194010E94EF188C2DD29E801982
:102C00001124015011098A3014F4805D01C0895CDF
:102C1000F8018083211531054105510521F0C22EAF
:102C2000E32FCA01E4CFB801C7010E948C15A19619
:102C30000FB6F894DEBF0FBECDBFDF91CF911F91CD
:102C40000F91FF90EF90DF90CF90BF90AF909F904B
:102C50008F9008952115310541F4DC01ED91FC912F
:102C60000190F081E02D642F09940C94D1150F93FD
:102C70001F93CF93DF93EC019A01462F50E060E061
:102C800070E00E942A168C01CE010E94AB15800FC5
:102C9000911FDF91CF911F910F9108953F924F9215
:102CA0005F926F927F928F929F92AF92BF92CF92DC
:102CB000DF92EF92FF920F931F93CF93DF9300D099
:102CC00000D0CDB7DEB78B0129013A019091030105
:102CD000981721F09F3F09F0DAC104C0E6EDF0E05B
:102CE000349081C080930301E6EDF0E0E491EF3F82
:102CF00009F4CDC1E13031F1E23009F44BC0E1110A
:102D000071C014BC15BC94B5926094BD95B591602A
:102D100095BD282F30E0F901EC55FF4FE491F0E02C
:102D2000EE0FFF1FEE53FF4F459154915093A606AF
:102D30004093A506F901E057FF4F24912093A40684
:102D4000312C53C01092800010928100909181002C
:102D500098609093810090918100916090938100A0
:102D6000282F30E0F901EC55FF4FE491F0E0EE0F31
:102D7000FF1FEE53FF4F4591549150939F06409390
:102D80009E06F901E057FF4F249120939D063324BE
:102D900033942BC01092B0001092B1009091B0000B
:102DA00092609093B0009091B10091609093B100C7
:102DB000282F30E0F901EC55FF4FE491F0E0EE0FE1
:102DC000FF1FEE53FF4F4591549150939806409347
:102DD0009706F901E057FF4F24912093960652E0A1
:102DE000352E03C03E2E37FC52C161E00E94D8123E
:102DF0004801A12CB12C832D8D7F09F0C7C060E064
:102E000079E08DE390E0A50194010E9411192983D6
:102E10003A834B835C8369017A0181E0C81AD10847
:102E2000E108F1089FEFC916D104E104F10409F0AB
:102E300008F49AC060E271EA87E090E0A50194018D
:102E40000E94111969017A01E1E0CE1AD108E10866
:102E5000F108F2E03F1219C08FEFC816D104E10467
:102E6000F10409F008F48AC068E478EE81E090E0AB
:102E7000A50194010E94111969017A0191E0C91A12
:102E8000D108E108F10883E001C082E0EFEFCE163F
:102E9000D104E104F10409F008F467C064E274EFBE
:102EA00080E090E0A50194010E94111969017A0166
:102EB000F1E0CF1AD108E108F1083320E1F082E017
:102EC00038121BC09FEFC916D104E104F10409F0C8
:102ED00008F4DBC062E17AE780E090E0A5019401AC
:102EE0000E94111969017A01E1E0CE1AD108E108C6
:102EF000F10885E003C083E001C084E0FFEFCF1656
:102F0000D104E104F10489F180F169E07DE380E01E
:102F100090E0A50194010E94111969017A0181E0F4
:102F2000C81AD108E108F108311002C084E001C0DC
:102F300086E09FEFC916D104E104F104B1F0A8F0D6
:102F4000C980DA80EB80FC809AE0F594E794D7940E
:102F5000C7949A95D1F7E1E0CE1AD108E108F108BB
:102F6000332031F087E00BC081E0332011F007C03F
:102F700085E095B5987F982B95BD38C082E09091FB
:102F8000B100987F982B9093B10030C060E079E059
:102F90008DE390E0A50194010E94111969017A0165
:102FA000F1E0CF1AD108E108F108C114D10481E0A1
:102FB000E806F10488F064E274EF80E090E0A50197
:102FC00094010E94111969017A0191E0C91AD1088E
:102FD000E108F10893E001C091E0E1E03E1206C093
:102FE00080918100887F892B809381004114510456
:102FF0006104710471F0D801AA0FBB1FA3019201F3
:103000000E94371928EE33E040E050E00E94EF18AC
:1030100003C02FEF3FEFA901F1E03F16A1F082E0DE
:10302000381619F1311033C0C7BC2093A70630936E
:10303000A8064093A9065093AA0680916E0082606C
:1030400080936E0024C0D0928900C09288002093A3
:10305000A0063093A1064093A2065093A306809148
:103060006F00826080936F0012C0C092B300209303
:10307000990630939A0640939B0650939C06809144
:10308000700082608093700002C084E078CF0F905F
:103090000F900F900F90DF91CF911F910F91FF90A4
:1030A000EF90DF90CF90BF90AF909F908F907F90E8
:1030B0006F905F904F903F900895813039F018F0F5
:1030C000823051F0089510926E00089580916F0043
:1030D0008D7F80936F000895809170008D7F809325
:1030E000700081E08093B0008091B100887F84609F
:1030F0008093B1001092B3000895CF93C82F8091B0
:1031000003018C1307C0E6EDF0E084919FEF9093EC
:10311000030101C08FEF0E945D1860E08C2FCF91FA
:103120000C9411131F920F920FB60F9211242F932C
:103130003F934F935F936F937F938F939F93AF933F
:10314000BF93EF93FF938091990690919A06A09177
:103150009B06B0919C06892B8A2B8B2B51F1909169
:103160009606E0919706F0919806808189278083E2
:103170008091990690919A06A0919B06B0919C0629
:10318000181619061A061B06C4F480919906909128
:103190009A06A0919B06B0919C060197A109B109DE
:1031A0008093990690939A06A0939B06B0939C06F1
:1031B00004C0809103010E947D18FF91EF91BF919F
:1031C000AF919F918F917F916F915F914F913F91BF
:1031D0002F910F900FBE0F901F9018950895A1E2A8
:1031E0001A2EAA1BBB1BFD010DC0AA1FBB1FEE1F81
:1031F000FF1FA217B307E407F50720F0A21BB30BCC
:10320000E40BF50B661F771F881F991F1A9469F747
:1032100060957095809590959B01AC01BD01CF01A3
:103220000895052E97FB1EF400940E94281957FD5F
:1032300007D00E94EF1807FC03D04EF40C94281915
:1032400050954095309521953F4F4F4F5F4F0895D2
:1032500090958095709561957F4F8F4F9F4F089502
:1032600069279627692778278727782708950E9456
:103270004819A59F900DB49F900DA49F800D911D9E
:1032800011240895EE0FFF1F0590F491E02D09948D
:10329000A29FB001B39FC001A39F700D811D112497
:1032A000911DB29F700D811D1124911D0895FC0187
:1032B00088279927E89421912032E9F3293010F0EA
:1032C0002E30C8F32B3241F02D3239F4689404C00B
:1032D0000E94AB19820F911D219120532A30C0F317
:1032E0001EF4909581959F4F0895FB01DC0102C06B
:1032F00005900D9241505040D8F70895FB01DC0134
:103300008D91019080190110D9F3990B0895FB015B
:10331000DC0101900D920020E1F70895FB01DC0132
:103320004150504030F08D910190801919F40020E7
:10333000B9F7881B990B0895FB01DC0141505040FF
:1033400048F001900D920020C9F701C01D92415034
:103350005040E0F708957AE0979F902D879F802D49
:10336000910D11240895AEE0B0E0E9EBF9E10C9481
:10337000711C0D891E8986E08C831A8309838FEF67
:103380009FE79E838D83AE01475E5F4F6F89788D87
:10339000CE0101960E94D519EF81F885E00FF11F4B
:1033A00010822E96E4E00C948D1CACE0B0E0EBEDC6
:1033B000F9E10C94631C7C016B018A01FC0117820A
:1033C0001682838181FFBDC1CE0101964C01F701B8
:1033D0009381F60193FD859193FF81916F0188237D
:1033E00009F4ABC1853239F493FD859193FF819146
:1033F0006F01853229F4B70190E00E94D31BE7CF1B
:10340000512C312C20E02032A0F48B3269F030F4C2
:10341000803259F0833269F420612CC08D3239F04A
:10342000803339F4216026C02260246023C02860E4
:1034300021C027FD27C030ED380F3A3078F426FF41
:1034400006C0FAE05F9E300D1124532E13C08AE0AF
:10345000389E300D1124332E20620CC08E3221F4A0
:1034600026FD6BC1206406C08C3611F4206802C0B2
:10347000883641F4F60193FD859193FF81916F01A8
:103480008111C1CF982F9F7D9554933028F40C5F04
:103490001F4FFFE3F9830DC0833631F0833771F09E
:1034A000833509F05BC022C0F801808189830E5FFB
:1034B0001F4F44244394512C540115C03801F2E0AD
:1034C0006F0E711CF801A080B18026FF03C0652D2E
:1034D00070E002C06FEF7FEFC5012C870E94C81B10
:1034E0002C0183012C852F77222E17C03801F2E0A2
:1034F0006F0E711CF801A080B18026FF03C0652DFE
:1035000070E002C06FEF7FEFC5012C870E94BD1BEA
:103510002C012C852068222E830123FC1BC0832DC7
:1035200090E048165906B0F4B70180E290E00E949E
:10353000D31B3A94F4CFF50127FC859127FE8191A6
:103540005F01B70190E00E94D31B31103A94F1E083
:103550004F1A51084114510471F7E5C0843611F037
:10356000893639F5F80127FF07C0608171818281B2
:1035700093810C5F1F4F08C060817181882777FDA0
:103580008095982F0E5F1F4F2F76B22E97FF09C0A0
:1035900090958095709561957F4F8F4F9F4F2068D4
:1035A000B22E2AE030E0A4010E94051CA82EA81823
:1035B00044C0853729F42F7EB22E2AE030E025C0A2
:1035C000F22FF97FBF2E8F36C1F018F4883579F0CD
:1035D000B4C0803719F0883721F0AFC02F2F206199
:1035E000B22EB4FE0DC08B2D8460B82E09C024FF0E
:1035F0000AC09F2F9660B92E06C028E030E005C0B3
:1036000020E130E002C020E132E0F801B7FE07C05F
:1036100060817181828193810C5F1F4F06C0608140
:10362000718180E090E00E5F1F4FA4010E94051C95
:10363000A82EA818FB2DFF77BF2EB6FE0BC02B2D92
:103640002E7FA51450F4B4FE0AC0B2FC08C02B2D86
:103650002E7E05C07A2C2B2D03C07A2C01C0752C30
:1036600024FF0DC0FE01EA0DF11D8081803311F4AD
:10367000297E09C022FF06C07394739404C0822F70
:10368000867809F0739423FD13C020FF06C05A2CDE
:10369000731418F4530C5718732C731468F4B7018F
:1036A00080E290E02C870E94D31B73942C85F5CF89
:1036B000731410F4371801C0312C24FF12C0B70165
:1036C00080E390E02C870E94D31B2C8522FF17C03B
:1036D00021FF03C088E590E002C088E790E0B701D1
:1036E0000CC0822F867859F021FD02C080E201C013
:1036F0008BE227FD8DE2B70190E00E94D31BA51459
:1037000038F4B70180E390E00E94D31B5A94F7CFBE
:10371000AA94F401EA0DF11D8081B70190E00E94A6
:10372000D31BA110F5CF332009F451CEB70180E2AD
:1037300090E00E94D31B3A94F6CFF70186819781DF
:1037400002C08FEF9FEF2C96E2E10C947F1CF99959
:10375000FECF92BD81BDF89A992780B50895262F96
:10376000F999FECF1FBA92BD81BD20BD0FB6F89466
:10377000FA9AF99A0FBE01960895FC0105906150DE
:1037800070400110D8F7809590958E0F9F1F089577
:10379000FC016150704001900110D8F78095909520
:1037A0008E0F9F1F08950F931F93CF93DF93182FB2
:1037B000092FEB018B8181FD03C08FEF9FEF20C0AC
:1037C00082FF10C04E815F812C813D8142175307DB
:1037D0007CF4E881F9819F012F5F3F4F3983288373
:1037E000108306C0E885F985812F0995892B29F773
:1037F0002E813F812F5F3F4F3F832E83812F902F5C
:10380000DF91CF911F910F910895FA01AA272830D7
:1038100051F1203181F1E8946F936E7F6E5F7F4F9D
:103820008F4F9F4FAF4FB1E03ED0B4E03CD0670F19
:10383000781F891F9A1FA11D680F791F8A1F911D6C
:10384000A11D6A0F711D811D911DA11D20D009F4BC
:1038500068943F912AE0269F11243019305D3193FE
:10386000DEF6CF010895462F4770405D4193B3E0E7
:103870000FD0C9F7F6CF462F4F70405D4A3318F08E
:10388000495D31FD4052419302D0A9F7EACFB4E03F
:10389000A6959795879577956795BA95C9F70097F7
:1038A0006105710508959B01AC010A2E0694579598
:1038B000479537952795BA95C9F7620F731F841FEF
:1038C000951FA01D08952F923F924F925F926F9285
:1038D0007F928F929F92AF92BF92CF92DF92EF92A0
:1038E000FF920F931F93CF93DF93CDB7DEB7CA1B21
:1038F000DB0B0FB6F894DEBF0FBECDBF09942A884C
:10390000398848885F846E847D848C849B84AA84F3
:10391000B984C884DF80EE80FD800C811B81AA8180
:10392000B981CE0FD11D0FB6F894DEBF0FBECDBF4B
:08393000ED010895F894FFCFAA
:10393800003C01FF626F7468006C65667400726910
:10394800676874006E6F6E650041424344454647A0
:1039580048494A4B4C4D4E4F505152535455565767
:1039680058595A6162636465666768696A6B6C6D09
:103978006E6F707172737475767778797A303132C8
:10398800333435363738392B2F002D2D2D2D2D2D4D
:103998002D2D2D2D2D2D2D2D2D2D2D2D2D2D2D2D4F
:1039A8002D2D32353845414641352D453931342D97
:1039B800343744412D393543412D43354142304454
:1039C800433835423131002B2B2B0061002B6F6BB4
:1039D8000041542B574D4F44453D415053544100ED
:1039E80041542B5A00474554202F776562736F6303
:1039F8006B657420485454502F312E31004745547C
:103A0800202F687474703F005365632D57656253A7
:103A18006F636B65742D4B65793A20004854545098
:103A28002F312E3120313031205377697463686922
:103A38006E672050726F746F636F6C730D0A5570E8
:103A480067726164653A20776562736F636B65744A
:103A58000D0A436F6E6E656374696F6E3A20557018
:103A680067726164650D0A5365632D576562536F0C
:103A7800636B65742D4163636570743A2000485424
:103A880054502F312E3120323030204F4B0D0A4305
:103A98006F6E74656E742D547970653A206170701C
:103AA8006C69636174696F6E2F6A736F6E3B0D0A80
:103AB8005472616E736665722D456E636F64696ECC
:103AC800673A206368756E6B65640D0A0D0A007BA2
:103AD80022737461747573223A22002C20226D734C
:103AE80067223A22002C20226964223A22007D00B3
:103AF800636F6D706C65746500300D0A0D0A007097
:103B0800696E6700726573657400322E302E32005C
:103B1800756E6B6E6F776E0025642E256400736575
:103B280074687776657273696F6E00706175736516
:103B380000726573756D650073746F7000636F6CE8
:103B48006C696465537461746500636F6C6C696457
:103B5800654E6F746966790066616C736500666F9F
:103B68006C6C6F77537461746500666F6C6C6F77FB
:103B78004E6F746966790050726576696F75732047
:103B8800636F6D6D616E64206E6F742066696E6917
:103B980073686564006572726F7200666F72776130
:103BA8007264006261636B0070656E7570007065A9
:103BB8006E646F776E00666F6C6C6F7700636F6C06
:103BC8006C696465006265657000436F6D6D616E58
:103BD80064206E6F74207265636F676E69736564C5
:103BE800006163636570746564006E6F74696679FB
:103BF80000636D6400617267006964004D657373EA
:103C080061676520746F6F206C6F6E67000000003D
:103C180000FE10641500000000EE1364157013898F
:063C2800137B13CC130016
:00000001FF
