:100000000C940A010C9432010C9432010C943201CC
:100010000C9432010C9432010C9432010C94F51AB8
:100020000C9432010C9432010C9432010C943D1169
:100030000C9432010C9432010C9432010C94320174
:100040000C9427140C9432010C9429170C945B1710
:100050000C9432010C9432010C9432010C94320154
:100060000C9432010C9432010123456789ABCDEF2A
:10007000FEDCBA9876543210F0E1D2C300000008DA
:10008000000201000003040700000000000000005F
:10009000010204081020408001020408102001021F
:1000A00004081020040404040404040402020202EC
:1000B00002020303030303030000000023002600E1
:1000C000290000000000250028002B00000000008F
:1000D000240027002A00024E414E494E49545949F6
:1000E0004E46CDCCCC3D0AD7233C17B7D13877CC80
:1000F0002B329595E6241FB14F0A000020410000E5
:10010000C84200401C4620BCBE4CCA1B0E5AAEC59D
:100110009D7400407A10F35A00A0724E1809001026
:10012000A5D4E80000E87648170000E40B5402006C
:1001300000CA9A3B000000E1F50500008096980097
:10014000000040420F000000A086010000001027C0
:1001500000000000E8030000000064000000000050
:100160000A00000000000100000000002C76D88882
:10017000DC674F0823DFC1DFAE59E1B1B796E5E395
:10018000E453C63AE651997696E8E6C28426EB89AE
:100190008C9B62ED407C6FFCEFBC9C9F40F2BAA54B
:1001A0006FA5F490055A2AF75C936B6CF9676DC1E3
:1001B0001BFCE0E40D47FEF520E6B500D0ED902EE7
:1001C0000300943577050080841E080000204E0A45
:1001D000000000C80C333333330F986E1283114183
:1001E000EF8D2114893BE65516CFFEE6DB18D1844E
:1001F0004B381BF77C1D901DA4BBE4242032847275
:100200005E228100C9F124ECA1E53D274701C40627
:100210001C148B1711241FBECFEFD8E0DEBFCDBF5B
:1002200014E0A0E0B1E0E4E9F8E402C005900D922A
:10023000AA36B107D9F727E0AAE6B4E001C01D92BB
:10024000A333B207E1F712E0C4E1D2E004C0229781
:10025000FE010E94F11CCC30D107C9F70E94CF17D4
:100260000C9448240C94000026E040E051EE60E03D
:1002700070E08FE796E00E94CD166FE776E08AE6A1
:1002800094E00C94C4058AE694E00C94AD068AE6EA
:1002900094E00C944B01CF93DF93EC0181E08D87C8
:1002A0000E9471146D8B7E8B8F8B988F1FA61BA65F
:1002B0001CA61DA61EA682E0888388E090E09CA371
:1002C0008BA39EA38DA380ED97E098A78FA388EEC4
:1002D00093E09AA789A7DF91CF9108950F931F9379
:1002E000CF93DF93EC0160EF80E190E00E94811FEB
:1002F0006DE081E190E00E94811F219602E110E013
:100300006991C8010E94811F0F5F1F4F0E311105B7
:10031000B9F7DF91CF911F910F9108950F931F931C
:10032000CF93DF93EC0180E190E00E94791F803F42
:1003300099F481E190E00E94791F8D3069F4219653
:1003400002E110E0C8010E94791F89930F5F1F4FDF
:100350000E311105B9F719C019821A828EE090E0AA
:100360009C838B8340E050E060E87FE34D835E83B5
:100370006F83788749875A876B877C87CE01DF91A7
:10038000CF911F910F910C946E01DF91CF911F912E
:100390000F910895CF92DF92EF92FF920F931F93E8
:1003A000CF93DF9300D000D0CDB7DEB77C016B01D7
:1003B000FB0120E030E000E010E0819190ED980F2B
:1003C0009A3050F4A1E0B0E0AC0FBD1FA20FB31FF4
:1003D0008C932F5F3F4F07C08E3229F4FE01E20F4E
:1003E000F31F118205C00F5F1F4F0930110529F758
:1003F000CE0101960E94291DF701818320E030E0A3
:100400000930110509F1F601E00FF11F808190ED2F
:10041000980F9A3050F4E1E0F0E0EC0FFD1FE20F8E
:10042000F31F80832F5F3F4F0CC081110AC0E1E0B2
:10043000F0E0EC0FFD1FE20FF31F10822F5F3F4F24
:1004400003C00F5F1F4FDCCFE1E0F0E0EC0FFD1FBA
:10045000E20FF31F1082CE0101960E94291DF701C1
:100460008283C7010E946E010F900F900F900F9032
:10047000DF91CF911F910F91FF90EF90DF90CF9080
:1004800008951F93CF93DF93EC01262F142F8091B3
:10049000B705861741F04B815C8160E070E087EB27
:1004A00095E00E9467108091AB05811761F04B8148
:1004B0005C8160E070E0212F8BEA95E0DF91CF91C5
:1004C0001F910C946710DF91CF911F910895CF93E6
:1004D000DF93EC0187EB95E00E945A108BEA95E0E0
:1004E0000E945A1081E088A3DF91CF910895CF93A5
:1004F000DF93EC0187EB95E00E945E108BEA95E0BC
:100500000E945E1018A2DF91CF910895CF93DF93E0
:10051000EC0187EB95E00E9461108BEA95E00E9468
:10052000611019A21AA21FA6DF91CF91089564E667
:1005300070E080E090E00E94A014E0910001F09152
:100540000101099421E0FC0121A30895CF93DF93D9
:100550008EE00E940C15EC018FE00E940C159E01AC
:10056000281B390BC901DF91CF91089521E0FC01CF
:1005700022A308950F931F93CF93DF93EB0181E1A3
:100580000E94C1158C0180E10E94C11521E0892BD8
:1005900009F020E0012B41F4222319F064E071E01E
:1005A0000AC069E071E007C0222319F06EE071E033
:1005B00002C064E171E0CE01DF91CF911F910F91F4
:1005C0000C94591DCF92DF92EF92FF92CF93DF935D
:1005D000EC016B01EE24D7FCE094FE2CA701960100
:1005E00066E071E089E00E94B1180E9471146C0D00
:1005F0007D1D8E1D9F1D6BA77CA78DA79EA7DF91DC
:10060000CF91FF90EF90DF90CF900895CF92DF923F
:10061000EF92FF92CF93DF93EC0187EB95E00E947E
:100620006F10811102C080E017C08BEA95E00E9434
:100630006F108823C1F38F8D8111F5CFCBA4DCA47B
:10064000EDA4FEA40E94711421E0C616D706E806A8
:10065000F90608F020E0822FDF91CF91FF90EF9014
:10066000DF90CF9008958F929F92AF92BF92CF92DA
:10067000DF92EF92FF920E94711424E630E040E096
:1006800050E00E94BE1C49015A018AE0C82ED12CBC
:10069000E12CF12CCA01B901A70196010E94BE1CF0
:1006A000672B682B692B91F0C501B4016250710969
:1006B00081099109A70196010E94BE1C21E0672BC8
:1006C000682B692B09F020E0622F01C061E08DE00A
:1006D000FF90EF90DF90CF90BF90AF909F908F9062
:1006E0000C948B150F931F93CF93DF93EC018F8D99
:1006F0008823D1F10E947D140B8D1C8D2D8D3E8D94
:10070000601771078207930778F18F8D81508F8F63
:1007100061E083E00E948B15898D9A8D892B29F4E5
:100720000E947D144FA158A504C00E947D1449A5C4
:100730005AA500EE1EE2041B150B222717FD20957B
:10074000322F600F711F821F931F6B8F7C8F8D8FD5
:100750009E8FCA010E94C81460E083E0DF91CF91B0
:100760001F910F910C948B15DF91CF911F910F91D9
:100770000895CF93DF93EC018D85882361F0CE013E
:100780000E940603811107C08F8D8823C1F3CE011B
:100790000E947203F4CFDF91CF9108950F931F93BE
:1007A000CF93DF93EC018B0140E061E00E944102B6
:1007B0008BA19CA1089FB001099F700D189F700D1F
:1007C0001124882777FD8095982F0E94891B2D8101
:1007D0003E814F8158850E94391C0E94561BAB01F7
:1007E000BC0121E087EB95E00E9467108BA19CA1E2
:1007F000089FB001099F700D189F700D1124882764
:1008000077FD8095982F0E94891B2D813E814F8115
:1008100058850E94391C0E94561BAB01BC0120E088
:100820008BEA95E00E946710CE01DF91CF911F9176
:100830000F910C94B9030F931F93CF93DF93EC01A7
:100840008B0141E060E00E9441028BA19CA1089FC6
:10085000B001099F700D189F700D1124882777FD36
:100860008095982F0E94891B2D813E814F8158854C
:100870000E94391C0E94561BAB01BC0120E087EB93
:1008800095E00E9467108BA19CA1089FB001099F71
:10089000700D189F700D1124882777FD8095982F73
:1008A0000E94891B2D813E814F8158850E94391CF1
:1008B0000E94561BAB01BC0121E08BEA95E00E942F
:1008C0006710CE01DF91CF911F910F910C94B90366
:1008D0000F931F93CF93DF93EC018B0141E061E015
:1008E0000E9441028DA19EA1089FB001099F700D39
:1008F000189F700D1124882777FD8095982F0E94EE
:10090000891B29853A854B855C850E94391C0E948C
:10091000561BAB01BC0121E087EB95E00E946710FC
:100920008DA19EA1089FB001099F700D189F700DA9
:100930001124882777FD8095982F0E94891B29858F
:100940003A854B855C850E94391C0E94561BAB0181
:10095000BC0121E08BEA95E00E946710CE01DF9197
:10096000CF911F910F910C94B9030F931F93CF93C5
:10097000DF93EC018B0140E060E00E9441028DA119
:100980009EA1089FB001099F700D189F700D112442
:10099000882777FD8095982F0E94891B29853A85A5
:1009A0004B855C850E94391C0E94561BAB01BC0123
:1009B00020E087EB95E00E9467108DA19EA1089F23
:1009C000B001099F700D189F700D1124882777FDC5
:1009D0008095982F0E94891B29853A854B855C85D7
:1009E0000E94391C0E94561BAB01BC0120E08BEA1F
:1009F00095E00E946710CE01DF91CF911F910F917A
:100A00000C94B9030F931F93CF93DF93EC0187EB03
:100A100095E00E946F108823E9F18BEA95E00E942F
:100A20006F108823B9F18EE00E940C158C018FE0C5
:100A30000E940C159801281B390BC901263031057D
:100A4000BCF08881813049F461E070E0CE01DF9133
:100A5000CF911F910F910C94B5048230D9F461E0CD
:100A600070E0CE01DF91CF911F910F910C9468043B
:100A70008B3F9F4F34F48881813089F3823051F469
:100A8000E3CF65E070E0CE01DF91CF911F910F9130
:100A90000C94CE03DF91CF911F910F9108950F9386
:100AA0001F93CF93DF93EC0181E10E94C1158C016C
:100AB00080E10E94C1152B893C89232BE9F4012B8D
:100AC00019F483E090E004C0892B69F481E090E0A0
:100AD0009C8B8B8B62E370E0CE01DF91CF911F91F5
:100AE0000F910C941B046AE070E0CE01DF91CF916E
:100AF0001F910F910C94CE0387EB95E00E946F102D
:100B0000882391F18BEA95E00E946F10882361F1B0
:100B10008B899C898230910519F41C8A1B8A24C018
:100B2000833091057CF40197F9F482E090E09C8B8E
:100B30008B8B6AE570E0CE01DF91CF911F910F9111
:100B40000C9468048330910569F484E090E09C8BF8
:100B50008B8B6AE570E0CE01DF91CF911F910F91F1
:100B60000C94B5040497C9F2DF91CF911F910F91B6
:100B70000895FC01128E118E2FE0278F138E148E94
:100B8000158E168E0C94B9030F931F93CF93DF939A
:100B9000EC018B0181E00E940F1061E083E00E9474
:100BA000521562E081E10E94521562E080E10E94EC
:100BB00052151C8A1B8A1A8E198E8FE08F8F1B8EFE
:100BC0001C8E1D8E1E8E1D86AE01B8018AE994E032
:100BD0000E94050861E08DE00E945215CE010E943E
:100BE0008E01CE01DF91CF911F910F910C94B90529
:100BF00021E030E0FC01328F218F2FE0278F138E10
:100C0000148E158E168E0C94B903FC0121A12111AE
:100C10000C940205FC0122A121110C944F050895AA
:100C20000F931F93CF93DF93EC018E85882339F1C7
:100C300081E10E94C11501E0892B09F000E080E10B
:100C40000E94C11521E0892B09F020E0102F110F1F
:100C5000122B8889181799F0002341F0222319F0EC
:100C600064E071E007C069E071E004C0222331F064
:100C70006EE071E08AE994E00E94FE0C188B8F858B
:100C80008823A9F08EE00E940C158C018FE00E9451
:100C90000C15081B190B89899A890817190729F05F
:100CA000B8018AE994E00E94050D1A8B098BDF9147
:100CB000CF911F910F910895CF93DF93EC017C8327
:100CC0006B830E946E0181E08FA721E041E050E03C
:100CD00060E070E087EB95E00E94671020E041E063
:100CE00050E060E070E08BEA95E0DF91CF910C94EA
:100CF0006710FC0145835683678370870C946E01EF
:100D0000FC0141875287638774870C946E01CF93EF
:100D1000DF93EC018FA58823E9F087EB95E00E9433
:100D20006F108823B9F08BEA95E00E946F1088233A
:100D300089F041E08091AB05813009F440E061E049
:100D40008091B705813009F460E0CE01DF91CF9149
:100D50000C944102DF91CF910895CF93DF93EC0182
:100D60000E943303CE010E947203CE010E94050649
:100D7000CE010E948706CE010E9410068AE994E007
:100D8000DF91CF910C94090F4DE165E270E087EBA4
:100D900095E00E94DE1040EF6BE270E08BEA95E098
:100DA0000E94DE108AE994E00C94A507DC01FB01A7
:100DB0008081869586958C939081937081818295B0
:100DC0008F7020E1929F800D112411968C931197C2
:100DD00081818F70880F880F928192959695969554
:100DE0009370890F12968C93129782818F7313964A
:100DF0008C9308958F929F92AF92BF92CF92DF9281
:100E0000EF92FF920F931F93CF93DF93CDB7DEB78F
:100E100027970FB6F894DEBF0FBECDBF7C015A01F5
:100E20006B01A60EB71E00E010E020E030E04E019E
:100E300085E0880E911CCA14DB0439F1C9010196C2
:100E4000D6014D916D01F401E20FF31F4083833011
:100E50009105C9F4B401CE0101960E94D606FE01A7
:100E60003196C701800F911FA191B0E0A75EBE4FE0
:100E70002C91DC012D93CD01E815F905A9F70C5F44
:100E80001F4F80E090E09C01D6CF6901211531050C
:100E900009F443C02330310554F4E5E0F0E0EC0FF1
:100EA000FD1FE20FF31F10822F5F3F4FF3CFBE01F4
:100EB0006B5F7F4FFE0131965F01CF010E94D60626
:100EC000F501C701800F911FA191B0E0A75EBE4F51
:100ED0002C91DC012D93CD019F012A193B09C216EB
:100EE000D30694F70F5F1F4FC601D7FE02C080E004
:100EF00090E0080F191FF701E00FF11FCE18DF086F
:100F0000C01AD10A2DE38F010E191F09C6018E0FD9
:100F10009F1F039714F42193F6CFF701E00FF11F01
:100F20001082C80127960FB6F894DEBF0FBECDBF62
:100F3000DF91CF911F910F91FF90EF90DF90CF90B5
:100F4000BF90AF909F908F900895CF93DF93EC0167
:100F50001F821E82FC01E550FF4F108231961182E4
:100F600010826AE571E008960E94591DFE01E35F58
:100F7000FE4F1082118212821382C250DF4F1882FC
:100F8000DF91CF910895CF93DF93EC0167E971E092
:100F9000888199810E941C18C450DF4F82E090E044
:100FA00099838883DF91CF910895CF93DF93EC01EC
:100FB00084E090E004B601FE1BC00E94791F61E04E
:100FC000680F633020F0CE010E94C30760E084E028
:100FD00090E00E94811F0E947114C35FDE4F68572A
:100FE0007C4E8F4F9F4F688379838A839B8309C090
:100FF0000E94791F882329F060E084E090E00E943D
:10100000811F14BEDF91CF910895FC0115821482D7
:1010100071836083538342830C94D507CF92DF9210
:10102000EF92FF920F931F93CF93DF93EC018C010C
:1010300004501F4FF801808191818230910509F0A1
:1010400048C0613671F46BE971E088819981DF9164
:10105000CF911F910F91FF90EF90DF90CF900C9464
:101060001C187E01FAEFEF0EF11CF701908181E070
:10107000890F8083FE01E90FF11DEA5BFF4F60835A
:10108000833008F46EC06E01F6E4CF0ED11C43E04D
:1010900050E06DE971E0C6010E94601D892B31F4BA
:1010A00083E090E0F8019183808342C043E050E008
:1010B00067E971E0C6010E94601D892B09F051C0EB
:1010C0006CEC72E0888199810E941C1886E090E0A7
:1010D00045C08330910549F461EA71E088819981C6
:1010E0000E94221884E090E039C08430910571F5A7
:1010F000CE0186509F4F7C016D3011F06A30D9F4DB
:10110000F70180818823B9F043E050E06DE971E098
:10111000CE018A5B9F4F0E94601D892B49F460EBD2
:1011200071E0888199810E942218F8011182108251
:10113000F701108216C0F701808191E0980F90832B
:10114000C80FD11DCA5BDF4F68830BC0069749F4F7
:101150006D3011F06A3029F483E090E0F80191835A
:101160008083DF91CF911F910F91FF90EF90DF90DF
:10117000CF900895DF92EF92FF920F931F93CF933A
:10118000DF93CDB7DEB7E3970FB6F894DEBF0FBE9F
:10119000CDBF8C01FC01E650FF4FD08086E18D155C
:1011A00098F447E150E065EB71E0C8018A5B9F4F1E
:1011B0000E94601D892B59F481E090E0D8011596BA
:1011C0009C938E931497B1C0B2E1BD15A0F5780140
:1011D000E6E4EE0EF11C4AE050E06DEC71E0C70170
:1011E0000E94601D892B41F484E090E0D80115969F
:1011F0009C938E93149779C0BBE2DB121CC043E131
:1012000050E068ED71E0C7010E94601D892B09F074
:101210008BC0B801675A7F4F48E150E0C80108967B
:101220000E946E1D82E090E0F80195838483EB5B61
:10123000FF4F10825AC0D11077C0D80114968D91FB
:101240009C9115978230910509F051C07801B5E461
:10125000EB0EF11CF70180818F5F8083843009F0F1
:1012600063C085EC95E00E946111B801685F7F4F13
:1012700085EC95E00E941C1885EC95E00E94FA131D
:10128000FE017F969E012D5C3F4FBF01DC014D9119
:10129000CD014193E217F307C9F71BAA44E150E0DF
:1012A000CE0101960E94FA066CEE71E0F801808191
:1012B00091810E941C18BE016F5F7F4FD8018D91F4
:1012C0009C910E941C186AEC72E0F8018081918167
:1012D0000E941C18D7011C9283E090E0F8019583CE
:1012E000848382E090E09783868381E01EC0059727
:1012F000D9F4F801EB5BFF4F80818F5F80838430EE
:1013000099F486E090E0D80115969C938E931497FB
:1013100081E090E017969C938E9316976EE472E0AE
:101320008D919C910E941C1880E0E3960FB6F89472
:10133000DEBF0FBECDBFDF91CF911F910F91FF9008
:10134000EF90DF900895AF92BF92CF92DF92EF922D
:10135000FF920F931F93CF93DF931F92CDB7DEB70A
:101360005C016B017A018901FB0101900020E9F722
:101370003197E61BF70BDA018C91811103C07DE0F8
:101380007E0F0AC0DA010D900020E9F71197A41B27
:10139000B50B77E17E0F7A0FF8018081882349F041
:1013A000D8010D900020E9F71197A01BB10B775FD2
:1013B0007A0FD50116962D913C9117978D919C919E
:1013C00022303105B1F4DC01ED91FC910190F08106
:1013D000E02D61E879830995F50180819181FC0117
:1013E000A081B1817981672F6F77ED91FC9109958B
:1013F00008C02130310529F44AE050E0672F0E94EF
:101400009A186FE972E0D5018D919C910E941C1889
:10141000B601F501808191810E941C186CEB72E08D
:10142000D5018D919C910E941C18F7018081882321
:10143000A1F06BEA72E0D5018D919C910E941C187D
:10144000B701F501808191810E941C186CEB72E05C
:10145000D5018D919C910E941C18F80180818823F0
:10146000A1F065EB72E0D5018D919C910E941C1852
:10147000B801F501808191810E941C186CEB72E02B
:10148000D5018D919C910E941C186EEB72E0F501C4
:10149000808191810E941C18D50116968D919C9196
:1014A0001797019771F460EC72E0C6010E94501D1D
:1014B000892B39F469EC72E0F501808191810E94F9
:1014C0001C18D50116968D919C911797892B89F43C
:1014D0006CEC72E08D919C910F90DF91CF911F91F8
:1014E0000F91FF90EF90DF90CF90BF90AF900C9452
:1014F0001C180F90DF91CF911F910F91FF90EF90EB
:10150000DF90CF90BF90AF9008956F927F928F92AF
:101510009F92AF92BF92CF92DF92EF92FF920F9382
:101520001F93CF93DF93CDB7DEB72A970FB6F8940A
:10153000DEBF0FBECDBF7C018B015A0169016FEC8C
:1015400072E0C8010E94501D892B09F473C164ED3B
:1015500072E0C8010E94501D892B49F40E94711449
:101560009F938F937F936F938BED92E057C06FEDB6
:1015700072E0C8010E94501D892B81F496014EEC47
:1015800052E060EC72E0C7010E94A309D7011296F5
:101590008D919C9113970E9497021BC26EEF72E08F
:1015A000C8010E94501D892B21F4960145EE52E09E
:1015B00044C16CEF72E0C8010E94501D892B91F468
:1015C000D7011296ED91FC9113978181928181113F
:1015D00006C0911104C096014BEE52E02EC11F923D
:1015E0009F9318C069EF72E0C8010E94501D892BBB
:1015F00059F5B501D70112968D919C9113970E94D0
:10160000CA01D7011296ED91FC91139782811F9226
:101610008F9381811F928F9383EF92E09F938F939B
:101620008E010F5F1F4F1F930F930E94851D960120
:10163000A80160EC72E0C7010E94A3090FB6F894FC
:10164000DEBF0FBECDBFC5C166E073E0C8010E941A
:10165000501D892B41F4D70112968D919C911397BF
:101660000E946702E7C06CE073E0C8010E94501D51
:10167000892B31F4F701828193810E947702DAC0CD
:1016800063E173E0C8010E94501D892B41F4D7012A
:1016900012968D919C9113970E948602CBC068E1AF
:1016A00073E0C8010E94501D892B69F4BE016F5F71
:1016B0007F4FF701828193810E94BA029601AE01A9
:1016C0004F5F5F4FBAC065E273E0C8010E94501DD2
:1016D000892B89F463E373E0C5010E94501DD70193
:1016E0001296ED91FC911397892B11F41686A2C0E6
:1016F00081E086879FC069E373E0C8010E94501DA6
:10170000892B39F4F701828193810E94A6029F936D
:1017100027C065E473E0C8010E94501D892B89F43D
:1017200063E373E0C5010E94501DD7011296ED914D
:10173000FC911397892B11F417867CC081E0878771
:1017400079C062E573E0C8010E94501D892B11F534
:10175000D7011296ED91FC91139784818F93838129
:101760008F9386EF92E09F938F938E010F5F1F4FB1
:101770001F930F930E94851D9601A80160EC72E0F3
:10178000C7010E94A3090F900F900F900F900F9028
:101790000F901FC163E673E0C8010E94501D892BA2
:1017A00051F4D7011296ED91FC91139765817681E2
:1017B0008781908510C063E773E0C8010E94501DC7
:1017C000892B99F4D7011296ED91FC9113976185BD
:1017D0007285838594858E010F5F1F4F26E042E05E
:1017E0000E94041D9601A80128C063E873E0C801A7
:1017F0000E94501D892B59F4C5010E94251DAB0183
:10180000BC01F701828193810E94790613C061E9CE
:1018100073E0C8010E94501D892B91F4C5010E94FC
:10182000251DAB01BC01D70112968D919C91139798
:101830000E94800696014EEC52E060EC72E0C6C059
:101840003701BBEF6B0E711CF3018081882321F0FF
:1018500096014FE953E0B2C04701FEEF8F0E911C95
:10186000B601C4010E94591D81E0D3018C9363EC41
:1018700073E0C8010E94501D892B51F4C5010E94DC
:10188000291DBC01F701828193810E94CE0399C07A
:101890006BEC73E0C8010E94501D892B61F4C501F7
:1018A0000E94291DBC01D70112968D919C9113971E
:1018B0000E941B0486C06EE071E0C8010E94501DAA
:1018C000892B51F4C5010E94291DBC01F7018281B9
:1018D00093810E94B50475C069E071E0C8010E945F
:1018E000501D892B61F4C5010E94291DBC01D7013F
:1018F00012968D919C9113970E94680462C060EDCE
:1019000073E0C8010E94501D892B31F4F7018281D8
:1019100093810E94B90555C066ED73E0C8010E942D
:10192000501D892B41F4D70112968D919C911397EC
:101930000E94F80546C06EED73E0C8010E94501D7C
:10194000892B31F4F701828193810E94A20239C070
:1019500065EE73E0C8010E94501D892B41F4D70148
:1019600012968D919C9113970E94B6022AC06DEE3B
:1019700073E0C8010E94501D892B51F4C5010E94DB
:10198000291DBC01F701828193810E94E20219C0E6
:1019900062EF73E0C8010E94501D892B61F4C501FC
:1019A0000E94291DBC01D70112968D919C9113971D
:1019B0000E945C0606C0960141E054E06DEB73E0C6
:1019C00005C094014EEC52E068E174E0C7010E944A
:1019D000A3092A960FB6F894DEBF0FBECDBFDF91E4
:1019E000CF911F910F91FF90EF90DF90CF90BF901C
:1019F000AF909F908F907F906F900895AB0125EEF0
:101A000033E061E274E00C94A309EF92FF920F932C
:101A10001F93CF93DF9300D000D000D0CDB7DEB7B7
:101A20007C017F936F9326EF32E03F932F938E01DB
:101A30000F5F1F4F1F930F930E94851D2EED33E004
:101A4000A80161E274E0C7010E94A3090F900F9002
:101A50000F900F900F900F9026960FB6F894DEBF60
:101A60000FBECDBFDF91CF911F910F91FF90EF90EF
:101A700008950F931F93CF93DF93FA0110E0C0E016
:101A8000D0E050E080E090E04081442309F467C05A
:101A90008130910569F08330910559F1009709F083
:101AA0005CC0423209F059C050E081E090E055C07E
:101AB000423261F4CF010196FC01408101964A3324
:101AC000D9F34032C9F383E090E013C0DB01A50FE6
:101AD000B11D57FDBA95AC91A4133FC05F5FDB0108
:101AE000A50FB11D57FDBA954C91411136C0D1E0FB
:101AF00034C0408111110BC0C11102C04B3509F136
:101B0000423209F1CC2349F04D3521F41EC0423256
:101B100079F41DC0403261F420C04C3221F04032D3
:101B200011F04D3729F4DD23A1F0F901108217C01F
:101B3000DD2399F0D9014D93015071F4F90111821F
:101B40000EC0C1E00AC011E008C0C0E006C010E04D
:101B500004C080E090E001C09D01319695CFDF91F7
:101B6000CF911F910F910895CF92DF92EF92FF9244
:101B70000F93CF93DF93CDB7DEB7AA970FB6F89444
:101B8000DEBF0FBECDBF7C01FC01E650FF4F808160
:101B90008823D9F1670196E4C90ED11CF601908122
:101BA0009B3799F5F701E80FF11DEB5BFF4F808143
:101BB0008D3759F504E19E012F5F3F4FA60168E282
:101BC00074E0C7010E94390D0AE09E01205E3F4F7C
:101BD000A6016CE274E0C7010E94390D9E012B5EE4
:101BE0003F4FA60160E374E0C7010E94390D9E01DA
:101BF0002B5E3F4FAE01405E5F4FBE016F5F7F4F78
:101C0000C7010E94850A81E001C080E0AA960FB654
:101C1000F894DEBF0FBECDBFDF91CF910F91FF9043
:101C2000EF90DF90CF900895CF93DF93EC01FC010C
:101C3000E650FF4F8081882399F0E45BF1099081A1
:101C40009B3771F4FE01E80FF11DEB5BFF4F8081C4
:101C50008D3731F41F821E82CE010E94B40D0DC05B
:101C6000CE010E94BA08811108C081E02C813D811B
:101C70002330310519F480E001C081E0DF91CF917C
:101C80000895AF92BF92CF92DF92EF92FF920F939F
:101C90001F93CF93DF9300D000D0CDB7DEB78C0178
:101CA00019821A821B821C82DC0114968D919C91F0
:101CB0001597039709F09DC0F801E650FF4F80810A
:101CC000873008F496C0AA5BBF4F9C91792F7F7034
:101CD00097FD05C0713019F0783009F08AC0D8013D
:101CE000A95BBF4F6C91B62FBF77FB2E2B2F30E037
:101CF000A9014B5F5F4F90E0481759070CF079C07E
:101D00005CE75B1708F46AC067FD03C0E02EC801FA
:101D10000FC0D801A85BBF4F8C91898311968C911D
:101D20008A8311968C918B8311968C918C83EECF44
:101D3000482F4E194F15C0F45C01A6E4AA0EB11C41
:101D40004370CC24C394D12CCC0EDD1EC40ED11C08
:101D5000AC01445B5F4FD6016C91DA014C91642772
:101D6000D5016C930196E4CFF082200F311FF90169
:101D7000EA5BFF4F1082783069F5F801808191812C
:101D8000DC01ED91FC910190F081E02D68E809956E
:101D9000F80180819181DC01ED91FC910190F0814D
:101DA000E02D62E00995F80180819181DC01ED91DF
:101DB000FC910190F081E02D63E00995F8018081AC
:101DC0009181DC01ED91FC910190F081E02D69EEB3
:101DD00009950DC0C8010E94B40D09C02EEC32E077
:101DE00043E354E06DEB73E0C8010E94A30981E076
:101DF00001C080E00F900F900F900F90DF91CF9176
:101E00001F910F91FF90EF90DF90CF90BF90AF9018
:101E10000895AF92BF92CF92DF92EF92FF920F930D
:101E20001F93CF93DF931F92CDB7DEB75C018C0178
:101E300005501F4FD8018C91882379F0F5018281DC
:101E400093810E940603882341F0F501E450FF4F7F
:101E500080819181892B09F471C08501035F1E4F38
:101E6000D801CD90DD90ED90FC901C141D041E0453
:101E70001F0444F40E947114C616D706E806F9063A
:101E800008F469C0F50180819181DC01ED91FC913C
:101E90000480F581E02D09958501075F1E4F181616
:101EA0001906B4F50E947114F8016083718382836E
:101EB0009383D5018D919C91DC01ED91FC9106807D
:101EC000F781E02D0995682FF501E450FF4F20813F
:101ED0003181232B71F0C5010F90DF91CF911F91BC
:101EE0000F91FF90EF90DF90CF90BF90AF900C9448
:101EF0000E08850106501F4F8D3011F08A30B9F55C
:101F0000C50169830E94140E698181114FC02FC0E1
:101F10000E947114D801CD90DD90ED90FC906C1969
:101F20007D098E099F09643F71408105910508F480
:101F30003FC0F501E650FF4F10823AC0F801108211
:101F4000950122503F4F4EEC52E060EC72E0C5012B
:101F50000E94A30982CFD8011D921D921D921C924E
:101F6000139760E084E090E00E94811F8BCFD8013E
:101F70008C9191E0980F9C93F501E80FF11DEA5BBD
:101F8000FF4F6083C5010E94410E882311F0F801C4
:101F90001082D8018C91843B59F42EEC32E043E35B
:101FA00054E06DEB73E0C5010E94A309F801C4CFB2
:101FB0000F90DF91CF911F910F91FF90EF90DF90E5
:101FC000CF90BF90AF900895FC01218132812115FF
:101FD000310511F0C901F8CFFC01728361830895C6
:101FE000FC01848195818532910529F484B1968123
:101FF000892B84B90EC08832910529F487B1968166
:10200000892B87B906C08B9721F48AB19681892BD9
:102010008AB90180F281E02D309719F70895CF93A6
:10202000C82F8091C3059091C405009711F00E94BC
:10203000F00FF894C130F1F41092800010928100FA
:10204000109285001092840080EC9DE590938900A9
:1020500080938800809181008860809381008091C6
:10206000810081608093810080916F008260809305
:102070006F001DC01092B0001092B1001092B2001B
:102080008DE58093B3008091B00082608093B000B2
:102090008091B10082608093B1008091B100846032
:1020A0008093B1008091700082608093700078947A
:1020B000CF91089521E0FC0123830895FC01138250
:1020C0000895FC0117821086118612860895FC017E
:1020D0004783508761877287238720830895FC0197
:1020E000478150856185728581E0452B462B472BC2
:1020F00009F080E0089590E080E040FF06C060FFB6
:1021000002C0806801C08F776695973011F0869580
:1021100046959F5F983089F708951F93CF93DF937B
:10212000FC01C481D58128814681142F109512238A
:102130000E947B10812B8883DF91CF911F9108959E
:1021400098E080E040FF08C060FF02C0886001C0E6
:10215000877F413009F0869566954695915091F7B5
:102160000895CF93DF93EC01EC81FD8160814E8176
:102170000E94A010823051F028F0843061F0883045
:1021800079F012C08B85813049F40FC08B85813086
:1021900071F081E00DC08B85813039F488E008C092
:1021A0008B85813021F404C003C082E001C084E04B
:1021B000DF91CF91089560E00C948D10CF93DF9361
:1021C000EC017D836C834E831F82188619861A86E4
:1021D0001B820E94DB108091C3059091C40500977B
:1021E00029F0BE01DF91CF910C94E40FD093C40588
:1021F000C093C305DF91CF910895CF93DF93EC0196
:102200004F81588569857A851416150616061706B6
:102210001CF48B81882329F0CE01DF91CF910C949F
:10222000DB104F81588569857A85415051096109D4
:1022300071094F83588769877A87CE010E94B11050
:10224000682FCE01DF91CF910C948D10CF93DF9347
:10225000EC01CE010E94FD100980DA81C02D20978B
:10226000C1F7DF91CF9108958091C3059091C40586
:10227000009711F00C94261108951F920F920FB63B
:102280000F9211242F933F934F935F936F937F93FC
:102290008F939F93AF93BF93EF93FF930E9434115B
:1022A000FF91EF91BF91AF919F918F917F916F912E
:1022B0005F914F913F912F910F900FBE0F901F9004
:1022C0001895CF93DF93EC0144E150E068E670E0AD
:1022D0008B5B9F4F0E94471DFE01E75AFF4F108204
:1022E000118212821382CC5BDF4F1882DF91CF9173
:1022F00008952F923F924F925F926F927F928F92AA
:102300009F92AF92BF92CF92DF92EF92FF920F9384
:102310001F93CF93DF93CDB7DEB7A0970FB6F89496
:10232000DEBF0FBECDBF9E8F8D8F9C012B5B3F4FBD
:10233000D9014D915D916D917C914D835E836F8349
:1023400078872C5F3F4FD9014D915D916D917C91C4
:1023500049875A876B877C872C5F3F4FD9014D9106
:102360005D916D917C914D875E876F87788B2C5F37
:102370003F4FD9014D915D916D917C91498B5A8B65
:102380006B8B7C8B2C5F3F4FD9014D915D916D9193
:102390007C914D8B5E8B6F8B788F498F5A8F6B8FB3
:1023A0007C8F09891A892B893C89CD84DE84EF844E
:1023B000F88889849A84AB84BC844D815E816F8166
:1023C000788549835A836B837C83212C312C422D61
:1023D000403198F4D901C8018C259D25AE25BF2533
:1023E00088219921AA21BB2180279127A227B327E1
:1023F00087569648AD47B54A8FC0822D8F706D8D38
:102400007E8D54E0859F600D711D1124D1011D96B4
:10241000AF70BB271196AA0FBB1FAA0FBB1F8D8DD4
:102420009E8DA80FB91FF1013896EF70FF273196E6
:10243000EE0FFF1FEE0FFF1FE80FF91F8D919D910B
:102440000D90BC91A02D40805180628073808425C6
:102450009525A625B725FB014480558066807780A9
:1024600084259525A625B725F1013296EF70FF2723
:102470003196EE0FFF1FEE0FFF1F6D8C7E8CE60D69
:10248000F71D408051806280738084259525A625A4
:10249000B725880F991FAA1FBB1F811DFB018483CD
:1024A0009583A683B783443108F494CFD701C6013E
:1024B000483268F488259925AA25BB2580279127CD
:1024C000A227B3278F559441A642B14925C04C336A
:1024D000B8F488299929AA29BB2980239123A2230A
:1024E000B32326013701482059206A207B20842904
:1024F0009529A629B72984529344A44EB0470CC00D
:1025000088259925AA25BB2580279127A227B327AF
:102510008A529E43AD49B5434F706D8C7E8C54E01A
:10252000459F600C711C112478A26F8E49815A81DD
:102530006B817C81EBE17695679557954795EA9598
:10254000D1F749805A806B807C80F5E0440C551CA3
:10255000661C771CFA95D1F74429552966297729F5
:10256000EF8DF8A14480558066807780440D551D1D
:10257000661D771D480F591F6A1F7B1F898D9A8D15
:10258000AB8DBC8D480F591F6A1F7B1FD501C4013D
:10259000E2E0B695A79597958795EA95D1F7FEE184
:1025A000880C991CAA1CBB1CFA95D1F7882A992A79
:1025B000AA2ABB2A9FEF291A390AA0E52A16310454
:1025C00089F0098F1A8F2B8F3C8F97018601750137
:1025D000640189809A80AB80BC8049835A836B8375
:1025E0007C83F5CEED8DFE8DEB5BFF4F8D819E8163
:1025F000AF81B885480F591F6A1F7B1F40835183E5
:10260000628373836D8C7E8C99E4690E711C898161
:102610009A81AB81BC8149855A856B857C85840F05
:10262000951FA61FB71FF30180839183A283B383F5
:10263000ED8DFE8DE35BFF4F4D855E856F8578895F
:10264000840E951EA61EB71E80829182A282B3823E
:10265000ED8DFE8DEF5AFF4F69897A898B899C89B0
:10266000C60ED71EE81EF91EC082D182E282F38216
:102670004D8D5E8D4B5A5F4F8D899E89AF89B88D88
:10268000080F191F2A1F3B1FDA010D931D932D936D
:102690003C931397A0960FB6F894DEBF0FBECDBF44
:1026A000DF91CF911F910F91FF90EF90DF90CF902E
:1026B000BF90AF909F908F907F906F905F904F9062
:1026C0003F902F900895CF93DF93EC01CC5BDF4FC9
:1026D000388123E02327FC01E20FF11D648321E010
:1026E000230F2883203419F40E9479111882DF9176
:1026F000CF910895262FFC01E75AFF4F4081518169
:10270000628173814F5F5F4F6F4F7F4F4083518373
:1027100062837383622F0E94631381E090E00895C7
:102720000F931F93CF93DF93EC0160E80E94631334
:102730008E010C5B1F4FF801808160E0883321F02F
:10274000CE010E946313F7CFCE010E94631360E0B5
:10275000CE010E94631360E0CE010E9463138E01DC
:10276000075A1F4FF8016081718182819381EDE1E9
:102770009695879577956795EA95D1F7CE010E9452
:102780006313F8016081718182819381F5E19695EF
:10279000879577956795FA95D1F7CE010E946313D7
:1027A000F8016081718182819381ADE09695879572
:1027B00077956795AA95D1F7CE010E946313F8012A
:1027C0006081718182819381B5E096958795779537
:1027D0006795BA95D1F7CE010E946313F801608125
:1027E000660F660F660FCE01DF91CF911F910F919B
:1027F0000C946313CF93DF93EC010E949013AE010E
:1028000025E030E0FA01EB5BFF4F6081718182814E
:1028100093810E94DD1C60837183828393832150A6
:1028200031094C5F5F4F2115310561F7CE018B5B9C
:102830009F4FDF91CF9108951092C8051092C70560
:1028400088E494E09093C6058093C50508951F928F
:102850000F920FB60F9211242F933F938F939F9354
:10286000AF93BF938091770690917806A0917906F7
:10287000B0917A063091760626E0230F2D3720F4AA
:102880000296A11DB11D05C029E8230F0396A11DC5
:10289000B11D209376068093770690937806A093D7
:1028A0007906B0937A0680917B0690917C06A09180
:1028B0007D06B0917E060196A11DB11D80937B0619
:1028C00090937C06A0937D06B0937E06BF91AF9156
:1028D0009F918F913F912F910F900FBE0F901F905E
:1028E00018952FB7F89460917706709178068091CB
:1028F000790690917A062FBF08953FB7F89480919A
:102900007B0690917C06A0917D06B0917E0626B54F
:10291000A89B05C02F3F19F00196A11DB11D3FBF17
:102920006627782F892F9A2F620F711D811D911DA7
:1029300043E0660F771F881F991F4A95D1F70895C6
:10294000CF92DF92EF92FF92CF93DF936B017C01E6
:102950000E947D14EB01C114D104E104F10489F05B
:102960000E94511B0E947D146C1B7D0B683E7340BE
:1029700090F381E0C81AD108E108F108C851DC4F92
:10298000EACFDF91CF91FF90EF90DF90CF90089545
:102990008330910528F0880F991F04970197F1F76C
:1029A0000895789484B5826084BD84B5816084BDC7
:1029B00085B5826085BD85B5816085BDEEE6F0E0B8
:1029C000808181608083E1E8F0E010828081826014
:1029D0008083808181608083E0E8F0E08081816095
:1029E0008083E1EBF0E0808184608083E0EBF0E0C5
:1029F000808181608083EAE7F0E080818460808369
:102A000080818260808380818E7F808380818068E6
:102A100080831092C10008958E3008F08E50877028
:102A20002091020190E4299F90011124822B809330
:102A30007C0080917A00806480937A0080917A0093
:102A400086FDFCCF809178002091790090E0922B58
:102A50000895833081F028F4813099F08230A1F01C
:102A600008958730A9F08830B9F08430D1F480918E
:102A700080008F7D03C0809180008F7780938000DD
:102A8000089584B58F7702C084B58F7D84BD089585
:102A90008091B0008F7703C08091B0008F7D8093CC
:102AA000B0000895CF93DF9390E0FC01E057FF4F13
:102AB0002491FC01EC55FF4F8491882349F190E06B
:102AC000880F991FFC01E453FF4FA591B4918E53D9
:102AD0009F4FFC01C591D4919FB7611108C0F89434
:102AE0008C91209582238C93888182230AC0623046
:102AF00051F4F8948C91322F309583238C938881F4
:102B0000822B888304C0F8948C91822B8C939FBF76
:102B1000DF91CF9108950F931F93CF93DF931F926F
:102B2000CDB7DEB7282F30E0F901E458FF4F84918C
:102B3000F901E057FF4F1491F901EC55FF4F049153
:102B40000023C9F0882321F069830E942915698137
:102B5000E02FF0E0EE0FFF1FEE53FF4FA591B49171
:102B60009FB7F8948C91611103C01095812301C027
:102B7000812B8C939FBF0F90DF91CF911F910F916D
:102B80000895CF93DF93282F30E0F901E458FF4FE9
:102B90008491F901E057FF4FD491F901EC55FF4FB3
:102BA000C491CC2391F081110E942915EC2FF0E003
:102BB000EE0FFF1FE854FF4FA591B4912C912D23E8
:102BC00081E090E021F480E002C080E090E0DF91BD
:102BD000CF910895FC01818D228D90E0805C9F4F04
:102BE000821B91098F7399270895FC01918D828D25
:102BF000981731F0828DE80FF11D858D90E00895D2
:102C00008FEF9FEF0895FC01918D828D981761F0F1
:102C1000828DDF01A80FB11D5D968C91928D9F5F13
:102C20009F73928F90E008958FEF9FEF089581E852
:102C300097E1892B49F080E090E0892B29F00E94F0
:102C4000811781110C9400000895FC01848DDF012F
:102C5000A80FB11DA35ABF4F2C91848D90E001960F
:102C60008F739927848FA689B7892C93A089B189FE
:102C70008C9180648C93938D848D981306C0028808
:102C8000F389E02D80818F7D80830895CF93DF933A
:102C9000EC01888D8823C9F0EA89FB89808185FD54
:102CA00005C0A889B9898C9186FD0FC00FB607FCB5
:102CB000F5CF808185FFF2CFA889B9898C9185FFF6
:102CC000EDCFCE010E942516E7CFDF91CF91089579
:102CD000CF92DF92FF920F931F93CF93DF931F92B8
:102CE000CDB7DEB76C0181E0D60158968C9358972A
:102CF0005B969C915B975C968C915C97981307C050
:102D00005096ED91FC915197808185FD2EC0F60182
:102D1000038D10E00F5F1F4F0F731127F02EF60188
:102D2000848DF81211C00FB607FCF9CFD60150966A
:102D3000ED91FC915197808185FFF1CFC6016983A8
:102D40000E9425166981EBCF838DE80FF11DE35AB0
:102D5000FF4F6083D6015B960C935B975296ED9183
:102D6000FC915397808180620CC0D6015696ED91FC
:102D7000FC91579760835096ED91FC91519780811B
:102D80008064808381E090E00F90DF91CF911F916C
:102D90000F91FF90DF90CF900895BF92CF92DF9276
:102DA000EF92FF92CF93DF93EC016A017B01B22E89
:102DB00060E874E88EE190E0A70196010E949C1CF7
:102DC0002150310941095109569547953795279565
:102DD000E889F98982E08083211580E1380798F03D
:102DE000E889F989108260E472E48FE090E0A7013D
:102DF00096010E949C1C21503109410951095695A8
:102E0000479537952795EC85FD853083EE85FF85C1
:102E10002083188EEC89FD89B082EA89FB89808144
:102E200080618083EA89FB89808188608083EA8968
:102E3000FB89808180688083EA89FB8980818F7D1E
:102E40008083DF91CF91FF90EF90DF90CF90BF9084
:102E500008951F920F920FB60F9211242F938F9304
:102E60009F93EF93FF93E0918F06F09190068081FE
:102E7000E0919506F091960682FD12C090818091B6
:102E800098068F5F8F7320919906821751F0E09119
:102E90009806F0E0E158F94F958F8093980601C0AD
:102EA0008081FF91EF919F918F912F910F900FBE95
:102EB0000F901F9018951F920F920FB60F9211242A
:102EC0002F933F934F935F936F937F938F939F9332
:102ED000AF93BF93EF93FF938FE796E00E94251681
:102EE000FF91EF91BF91AF919F918F917F916F91E2
:102EF0005F914F913F912F910F900FBE0F901F90B8
:102F000018958FE796E00E94EA1521E0892B09F4D5
:102F100020E0822F0895109282061092810688EE9A
:102F200093E0A0E0B0E08093830690938406A093A2
:102F30008506B093860680E594E0909380068093A2
:102F40007F0685EC90E090938C0680938B0684EC52
:102F500090E090938E0680938D0680EC90E09093A5
:102F6000900680938F0681EC90E090939206809378
:102F7000910682EC90E0909394068093930686EC01
:102F800090E0909396068093950610929806109282
:102F9000990610929A0610929B06089508950E9431
:102FA000D1140E94CE170E943401C7E1D6E10E94DD
:102FB00043012097E1F30E941716F9CFCF92DF92D9
:102FC000EF92FF920F931F93CF93DF936C017A01DF
:102FD000EB01E60EF71E00E010E0CE15DF0561F014
:102FE0006991D601ED91FC910190F081E02DC6012F
:102FF0000995080F191FF1CFC801DF91CF911F91DB
:103000000F91FF90EF90DF90CF90089561157105BB
:1030100081F0DB010D900020E9F7AD01415051092D
:10302000461B570BDC01ED91FC910280F381E02DF2
:10303000099480E090E008950C9406186CEC72E01E
:103040000C9406180F931F93CF93DF93EC010E940B
:1030500006188C01CE010E941E18800F911FDF916F
:10306000CF911F910F9108958F929F92AF92BF922F
:10307000CF92DF92EF92FF920F931F93CF93DF9344
:10308000CDB7DEB7A1970FB6F894DEBF0FBECDBFA8
:103090007C01C42EE52FCB01D22E19A221E02D15E3
:1030A00010F02AE0D22E8E010F5D1F4F8D2C912C37
:1030B000A12CB12C6C2D7E2FA50194010E949C1C8B
:1030C0008C2DD29E80191124015011098A3014F4DC
:1030D000805D01C0895CF8018083211531054105BF
:1030E000510521F0C22EE32FCA01E4CFB801C70178
:1030F0000E940618A1960FB6F894DEBF0FBECDBF92
:10310000DF91CF911F910F91FF90EF90DF90CF90C3
:10311000BF90AF909F908F9008952115310541F495
:10312000DC01ED91FC910190F081E02D642F099478
:103130000C9434180F931F93CF93DF93EC019A01F3
:10314000462F50E060E070E00E948D188C01CE01A7
:103150000E941E18800F911FDF91CF911F910F9138
:1031600008953F924F925F926F927F928F929F92BB
:10317000AF92BF92CF92DF92EF92FF920F931F9385
:10318000CF93DF9300D000D0CDB7DEB78B012901FC
:103190003A0190910301981721F09F3F09F0DAC19D
:1031A00004C0E6EDF0E0349081C080930301E6EDC9
:1031B000F0E0E491EF3F09F4CDC1E13031F1E230CC
:1031C00009F44BC0E11171C014BC15BC94B59260F8
:1031D00094BD95B5916095BD282F30E0F901EC556F
:1031E000FF4FE491F0E0EE0FFF1FEE53FF4F4591CC
:1031F000549150932C0740932B07F901E057FF4F50
:10320000249120932A07312C53C0109280001092F1
:10321000810090918100986090938100909181004D
:10322000916090938100282F30E0F901EC55FF4F19
:10323000E491F0E0EE0FFF1FEE53FF4F45915491E4
:103240005093250740932407F901E057FF4F24913D
:1032500020932307332433942BC01092B000109294
:10326000B1009091B00092609093B0009091B10045
:1032700091609093B100282F30E0F901EC55FF4F99
:10328000E491F0E0EE0FFF1FEE53FF4F4591549194
:1032900050931E0740931D07F901E057FF4F2491FB
:1032A00020931C0752E0352E03C03E2E37FC52C13E
:1032B00061E00E9452154801A12CB12C832D8D7F15
:1032C00009F0C7C060E079E08DE390E0A5019401CA
:1032D0000E94BE1C29833A834B835C8369017A0177
:1032E00081E0C81AD108E108F1089FEFC916D1049E
:1032F000E104F10409F008F49AC060E271EA87E0A1
:1033000090E0A50194010E94BE1C69017A01E1E0F0
:10331000CE1AD108E108F108F2E03F1219C08FEF90
:10332000C816D104E104F10409F008F48AC068E485
:1033300078EE81E090E0A50194010E94BE1C690135
:103340007A0191E0C91AD108E108F10883E001C0CF
:1033500082E0EFEFCE16D104E104F10409F008F4A5
:1033600067C064E274EF80E090E0A50194010E94E0
:10337000BE1C69017A01F1E0CF1AD108E108F10819
:103380003320E1F082E038121BC09FEFC916D10450
:10339000E104F10409F008F4DBC062E17AE780E0BF
:1033A00090E0A50194010E94BE1C69017A01E1E050
:1033B000CE1AD108E108F10885E003C083E001C01E
:1033C00084E0FFEFCF16D104E104F10489F180F12C
:1033D00069E07DE380E090E0A50194010E94BE1CBD
:1033E00069017A0181E0C81AD108E108F1083110B9
:1033F00002C084E001C086E09FEFC916D104E10459
:10340000F104B1F0A8F0C980DA80EB80FC809AE08A
:10341000F594E794D794C7949A95D1F7E1E0CE1A42
:10342000D108E108F108332031F087E00BC081E0DA
:10343000332011F007C085E095B5987F982B95BD96
:1034400038C082E09091B100987F982B9093B100A2
:1034500030C060E079E08DE390E0A50194010E9426
:10346000BE1C69017A01F1E0CF1AD108E108F10828
:10347000C114D10481E0E806F10488F064E274EF3D
:1034800080E090E0A50194010E94BE1C69017A01D0
:1034900091E0C91AD108E108F10893E001C091E078
:1034A000E1E03E1206C080918100887F892B8093E5
:1034B0008100411451046104710471F0D801AA0F14
:1034C000BB1FA30192010E94E41C28EE33E040E000
:1034D00050E00E949C1C03C02FEF3FEFA901F1E0D8
:1034E0003F16A1F082E0381619F1311033C0C7BC85
:1034F00020932D0730932E0740932F0750933007CA
:1035000080916E00826080936E0024C0D09289000A
:10351000C0928800209326073093270740932807FE
:103520005093290780916F00826080936F0012C0D2
:10353000C092B30020931F073093200740932107C8
:10354000509322078091700082608093700002C0C7
:1035500084E078CF0F900F900F900F90DF91CF9174
:103560001F910F91FF90EF90DF90CF90BF90AF90A1
:103570009F908F907F906F905F904F903F900895B5
:10358000813039F018F0823051F0089510926E00B9
:10359000089580916F008D7F80936F0008958091D2
:1035A00070008D7F8093700081E08093B0008091E7
:1035B000B100887F84608093B1001092B3000895B9
:1035C000CF93C82F809103018C1307C0E6EDF0E084
:1035D00084919FEF9093030101C08FEF0E94C01A66
:1035E00060E08C2FCF910C948B151F920F920FB629
:1035F0000F9211242F933F934F935F936F937F9379
:103600008F939F93AF93BF93EF93FF9380911F0787
:1036100090912007A0912107B0912207892B8A2B36
:103620008B2B51F190911C07E0911D07F0911E0723
:1036300080818927808380911F0790912007A09126
:103640002107B0912207181619061A061B06C4F4A2
:1036500080911F0790912007A0912107B091220728
:103660000197A109B10980931F0790932007A093A8
:103670002107B093220704C0809103010E94E01A41
:10368000FF91EF91BF91AF919F918F917F916F913A
:103690005F914F913F912F910F900FBE0F901F9010
:1036A0001895089571D008F481E0089504D06894C5
:1036B000B111D9C00895BCD088F09F5790F0B92FB0
:1036C0009927B751A0F0D1F0660F771F881F991F77
:1036D0001AF0BA95C9F712C0B13081F0C3D0B1E089
:1036E0000895C0C0672F782F8827B85F39F0B93F99
:1036F000CCF3869577956795B395D9F73EF4909579
:103700008095709561957F4F8F4F9F4F0895E894F6
:1037100009C097FB3EF490958095709561957F4F19
:103720008F4F9F4F9923A9F0F92F96E9BB279395C7
:10373000F695879577956795B795F111F8CFFAF4D7
:10374000BB0F11F460FF1BC06F5F7F4F8F4F9F4F08
:1037500016C0882311F096E911C0772321F09EE866
:10376000872F762F05C0662371F096E8862F70E0CC
:1037700060E02AF09A95660F771F881FDAF7880FA6
:103780009695879597F90895990F0008550FAA0BFC
:10379000E0E8FEEF16161706E807F907C0F0121664
:1037A0001306E407F50798F0621B730B840B950B67
:1037B00039F40A2661F0232B242B252B21F40895BC
:1037C0000A2609F4A140A6958FEF811D811D089559
:1037D00097F99F6780E870E060E008959FEF80ECC4
:1037E000089500240A941616170618060906089567
:1037F00000240A9412161306140605060895092ECD
:103800000394000C11F4882352F0BB0F40F4BF2B3B
:1038100011F460FF04C06F5F7F4F8F4F9F4F08957B
:1038200057FD9058440F551F59F05F3F71F0479571
:10383000880F97FB991F61F09F3F79F08795089556
:10384000121613061406551FF2CF4695F1DF08C075
:10385000161617061806991FF1CF86957105610592
:1038600008940895E894BB2766277727CB0197F93A
:1038700008950BD0C4CFB5DF28F0BADF18F0952338
:1038800009F0A6CFABCF1124EECFCADFA0F3959FEE
:10389000D1F3950F50E0551F629FF001729FBB2737
:1038A000F00DB11D639FAA27F00DB11DAA1F649FE3
:1038B0006627B00DA11D661F829F2227B00DA11D96
:1038C000621F739FB00DA11D621F839FA00D611D1C
:1038D000221F749F3327A00D611D231F849F600D3D
:1038E000211D822F762F6A2F11249F5750408AF076
:1038F000E1F088234AF0EE0FFF1FBB1F661F771F02
:10390000881F91505040A9F79E3F510570F060CF3D
:10391000AACF5F3FECF3983EDCF3869577956795E9
:10392000B795F795E7959F5FC1F7FE2B880F911D1F
:103930009695879597F90895A1E21A2EAA1BBB1BAD
:10394000FD010DC0AA1FBB1FEE1FFF1FA217B3076B
:10395000E407F50720F0A21BB30BE40BF50B661F81
:10396000771F881F991F1A9469F760957095809545
:1039700090959B01AC01BD01CF010895052E97FBE9
:103980001EF400940E94D51C57FD07D00E949C1C79
:1039900007FC03D04EF40C94D51C509540953095FF
:1039A00021953F4F4F4F5F4F0895909580957095AB
:1039B00061957F4F8F4F9F4F0895692796276927FD
:1039C00078278727782708950E94F51CA59F900DDA
:1039D000B49F900DA49F800D911D11240895EE0FAA
:1039E000FF1F0590F491E02D0994A29FB001B39FB1
:1039F000C001A39F700D811D1124911DB29F700DF8
:103A0000811D1124911D0895EF920F931F93CF9361
:103A1000DF93E80147FF02C034E101C034E0E42F46
:103A2000FF27E7FDF095F7FF03C0F195E195F10958
:103A3000E32E022F2E2FAE010E948F1FCE01DF91A9
:103A4000CF911F910F91EF900895662777270C94DF
:103A50000D21FC0188279927E89421912032E9F370
:103A6000293010F02E30C8F32B3241F02D3239F4CA
:103A7000689404C00E947D1D820F911D21912053E6
:103A80002A30C0F31EF4909581959F4F0895FB0155
:103A9000DC0102C005900D9241505040D8F70895C6
:103AA000FB01DC018D91019080190110D9F3990B74
:103AB0000895FB01DC0101900D920020E1F70895CB
:103AC000FB01DC014150504030F08D910190801994
:103AD00019F40020B9F7881B990B0895FB01DC014C
:103AE0004150504048F001900D920020C9F701C0AC
:103AF0001D9241505040E0F708957AE0979F902D35
:103B0000879F802D910D11240895AEE0B0E0EBE881
:103B1000FDE10C941F240D891E8986E08C831A8395
:103B200009838FEF9FE79E838D83AE01475E5F4FD2
:103B30006F89788DCE0101960E94A71DEF81F885CF
:103B4000E00FF11F10822E96E4E00C943B24ACE0D1
:103B5000B0E0EDEAFDE10C9411247C016B018A01D7
:103B6000FC0117821682838181FFBDC1CE010196BF
:103B70004C01F7019381F60193FD859193FF8191AB
:103B80006F01882309F4ABC1853239F493FD859127
:103B900093FF81916F01853229F4B70190E00E9473
:103BA0007E23E7CF512C312C20E02032A0F48B3241
:103BB00069F030F4803259F0833269F420612CC00E
:103BC0008D3239F0803339F4216026C022602460C0
:103BD00023C0286021C027FD27C030ED380F3A30C0
:103BE00078F426FF06C0FAE05F9E300D1124532EB4
:103BF00013C08AE0389E300D1124332E20620CC091
:103C00008E3221F426FD6BC1206406C08C3611F47F
:103C1000206802C0883641F4F60193FD859193FF38
:103C200081916F018111C1CF982F9F7D9554933061
:103C300028F40C5F1F4FFFE3F9830DC0833631F08A
:103C4000833771F0833509F05BC022C0F8018081B1
:103C500089830E5F1F4F44244394512C540115C097
:103C60003801F2E06F0E711CF801A080B18026FFD0
:103C700003C0652D70E002C06FEF7FEFC5012C8798
:103C80000E9473232C0183012C852F77222E17C0CD
:103C90003801F2E06F0E711CF801A080B18026FFA0
:103CA00003C0652D70E002C06FEF7FEFC5012C8768
:103CB0000E9468232C012C852068222E830123FC7E
:103CC0001BC0832D90E048165906B0F4B70180E27E
:103CD00090E00E947E233A94F4CFF50127FC859171
:103CE00027FE81915F01B70190E00E947E23311091
:103CF0003A94F1E04F1A51084114510471F7E5C0AC
:103D0000843611F0893639F5F80127FF07C0608144
:103D10007181828193810C5F1F4F08C06081718126
:103D2000882777FD8095982F0E5F1F4F2F76B22E34
:103D300097FF09C090958095709561957F4F8F4F43
:103D40009F4F2068B22E2AE030E0A4010E94B023E9
:103D5000A82EA81844C0853729F42F7EB22E2AE059
:103D600030E025C0F22FF97FBF2E8F36C1F018F456
:103D7000883579F0B4C0803719F0883721F0AFC0AA
:103D80002F2F2061B22EB4FE0DC08B2D8460B82E73
:103D900009C024FF0AC09F2F9660B92E06C028E0F4
:103DA00030E005C020E130E002C020E132E0F8015F
:103DB000B7FE07C060817181828193810C5F1F4FC4
:103DC00006C06081718180E090E00E5F1F4FA4010A
:103DD0000E94B023A82EA818FB2DFF77BF2EB6FE99
:103DE0000BC02B2D2E7FA51450F4B4FE0AC0B2FCDC
:103DF00008C02B2D2E7E05C07A2C2B2D03C07A2CCB
:103E000001C0752C24FF0DC0FE01EA0DF11D80815B
:103E1000803311F4297E09C022FF06C07394739485
:103E200004C0822F867809F0739423FD13C020FF0D
:103E300006C05A2C731418F4530C5718732C7314AF
:103E400068F4B70180E290E02C870E947E2373948F
:103E50002C85F5CF731410F4371801C0312C24FFD2
:103E600012C0B70180E390E02C870E947E232C854E
:103E700022FF17C021FF03C088E590E002C088E759
:103E800090E0B7010CC0822F867859F021FD02C066
:103E900080E201C08BE227FD8DE2B70190E00E9435
:103EA0007E23A51438F4B70180E390E00E947E23BE
:103EB0005A94F7CFAA94F401EA0DF11D8081B7015D
:103EC00090E00E947E23A110F5CF332009F451CE5B
:103ED000B70180E290E00E947E233A94F6CFF7018A
:103EE0008681978102C08FEF9FEF2C96E2E10C94C0
:103EF0002D24F999FECF92BD81BDF89A992780B5FE
:103F00000895262FF999FECF1FBA92BD81BD20BD1D
:103F10000FB6F894FA9AF99A0FBE019608956F9227
:103F20007F929F92AF92BF92CF92DF92EF92FF92D9
:103F30000F931F93CF93DF93CDB7DEB729970FB6BB
:103F4000F894DEBF0FBECDBF6A01B22E102F0C3326
:103F500020F4FF24F394F00E02C04CE3F42E0F2D56
:103F600027E0AE014F5F5F4F0E9470227981272FBB
:103F70002970213031F0E1FC06C0E0FC06C060E0B1
:103F800005C06DE203C06BE201C060E2AE2DA0711E
:103F900073FF36C0662311F084E001C083E08B1507
:103FA00010F4B81A01C0B12CA1110BC0F6018B2D71
:103FB00090E2882319F091938150FBCFCB0CD11C58
:103FC000B12C662331F0F601608396012F5F3F4FDD
:103FD0006901C6010396E2FE05C02EE4F6012083C6
:103FE00031E404C02EE6F601208331E631832283DA
:103FF000FC012B2D30E22223F1F131932150FBCF34
:1040000072FF40C0662311F084E001C083E08B158D
:1040100010F4B81A01C0B12CA1110BC0F6018B2D00
:1040200090E2882319F091938150FBCFCB0CD11CE7
:10403000B12C662331F0F601608396012F5F3F4F6C
:104040006901C6010396E2FE07C029E4F601208358
:104050002EE4218326E406C029E6F60120832EE61D
:10406000218326E62283FC012B2D30E2222319F046
:1040700031932150FBCFFC01EB0DF11D10828EEF2F
:104080009FEFB7C0B1E0611101C0B0E04B2F50E02D
:104090001816190624F49C012F5F3F4F02C021E03F
:1040A00030E0240F351F112329F0412F50E04F5FDE
:1040B0005F4F02C040E050E0420F531F2B2D30E015
:1040C0004217530714F4B41A01C0B12C2E2D2871D5
:1040D00059F4F6012B2D30E2222319F031932150AF
:1040E000FBCFCB0CD11CB12CBB2331F0F60160838C
:1040F00096012F5F3F4F6901A1110BC0F6012B2DD7
:1041000030E3222319F031932150FBCFCB0CD11C8B
:10411000B12CF80E0A81372F3071A32E74FF03C023
:10412000013309F4FA941F142CF42F2D293018F0C0
:1041300028E001C021E0682F392F97FF02C060E01E
:1041400030E0462F532F612C712C3EE2932EBC01A0
:10415000621B71099B01DC01A41BB50BE1E0F0E0DF
:10416000EC0FFD1FAE0FBF1FE12EF12CF194E19477
:10417000F1084F3FFFEF5F0731F4F6019082B6017F
:104180006F5F7F4F6B01841795074CF0241735073D
:1041900034F4BD01660D771DFB01118101C010E3F0
:1041A00041505109FFEF6F1A7F0AB6016F5F7F4FD1
:1041B0004E155F0524F0F60110836B01DACF481726
:1041C000590739F4063320F4053319F4A11001C05E
:1041D00011E3F6011083FB018B2D90E2882319F087
:1041E00091938150FBCFFB01EB0DF11D108280E01C
:1041F00090E029960FB6F894DEBF0FBECDBFDF91D9
:10420000CF911F910F91FF90EF90DF90CF90BF90D3
:10421000AF909F907F906F900895A0E0B0E0E3E1B1
:10422000F1E20C9417248B016115710521F0DB017B
:104230008C9311969C93EC015E01BFEFAB1ABB0A05
:104240007501C8808C2D90E00E944823892B11F0C5
:10425000E501F2CFEDE2CE1208C07E01F2E0EF0EF2
:10426000F11CC980DD24D39409C02BE2C21205C021
:104270007E0142E0E40EF11CC980D12CE7012197B8
:1042800043E050E06FED70E0CE010E945023892B97
:10429000C1F4239645E050E06AED70E0CE010E9443
:1042A0005023892B09F425960115110519F0D80121
:1042B000CD93DC93D11006C160E070E080E89FE709
:1042C0000AC143E050E067ED70E0CE010E94502348
:1042D000892B59F40115110509F4F9C0B2E0EB0E70
:1042E000F11CF801F182E082F2C0F70160E070E0B9
:1042F000CB01C0E0D0E07F01A0EDAA2EAC0C29E0FC
:104300002A1530F14D2D4260B42E2D2D2870D2FE8D
:1043100004C0211125C0219623C021112197A5E0B9
:10432000B0E09B01AC010E94E41C660F771F881F60
:10433000991F6A0D711D811D911D6839A9E97A07C0
:104340008A07A9E19A0760F0BD2DB660BB2E08C0B0
:104350002EEFA2120AC0D3FC50C04D2D4860B42EDF
:104360003196D701CC90DB2CC6CF2C2D2F7D253458
:1043700009F043C0A081AD3241F4BD2DB061DB2E08
:104380007F0122E0E20EF11C0CC07F01AB3231F064
:104390004FEFE41AF40A21E030E006C0A2E0EA0E92
:1043A000F11CA18122E030E0A053AA3018F0E21AFB
:1043B000F30A23C0F70120E030E02038BCE03B07DF
:1043C0005CF4A901440F551F440F551F240F351FDE
:1043D000220F331F2A0F311DAF014F5F5F4F7A014C
:1043E000A081A053AA3010F4FA01E7CFD4FE03C095
:1043F000319521953109C20FD31FD1FE09C0011596
:10440000110531F0E1E0EE1AF108D801ED92FC92CD
:104410000E94871B2D2D2370233019F04B015C0166
:1044200006C04B015C01B7FAB094B7F8B09420E035
:1044300030E0A901C501B4010E94521B882309F490
:104440003EC0D7FF06C0D195C195D10906EF10E057
:1044500002C00EE011E06801B8E1CB1AD10890E289
:10446000E92EF12CCE15DF0574F0F8012591359178
:1044700045915491C501B4010E94391C4B015C0166
:10448000CE19DF09EFCF04501109F594E7940C150C
:104490001D0541F78A2D880F8B2D881F8F3F49F00E
:1044A00020E030E0A901C501B4010E94521B811136
:1044B00006C082E290E09093320780933107C501F5
:1044C000B40109C060E070E080E89FEF04C060E0E4
:1044D00070E080EC9FE7CDB7DEB7ECE00C943324BE
:1044E000283008F027E03327DA01990F311D87FDC6
:1044F000916000966105710539F432602E5F3D933D
:1045000030E32A95E1F708959F3F30F08038710538
:10451000610509F03C5F3C5F3D93913008F0806895
:10452000911DDF93CF931F930F93FF92EF92192F5B
:10453000987F9695E92F96959695E90FFF27E45970
:10454000FE4F99273327EE24FF24A701E7010590AA
:104550000894079428F4360FE71EF81E491F511DD2
:10456000660F771F881F991F0694A1F7059007947F
:1045700028F4E70EF81E491F561FC11D770F881F2C
:10458000991F661F0694A1F70590079428F4F80E6A
:10459000491F561FC71FD11D880F991F661F771F00
:1045A0000694A1F70590079420F4490F561FC71FE2
:1045B000D81F990F661F771F881F0694A9F784914B
:1045C0001095177041F0D695C79557954795F79474
:1045D000E7941A95C1F7E2E1F1E06894159015911E
:1045E00035916591959105907FE27395E118F10AF7
:1045F000430B560BC90BD009C0F7E10CF11E431F4A
:10460000561FC91FD01D7EF4703311F48A95E6CF72
:10461000E894015030F0080F0AF40027021708F45C
:10462000202F2395022F7A3328F079E37D932A9562
:10463000E9F710C07D932A9589F6069497956795BA
:10464000379517951794E118F10A430B560BC90BD0
:10465000D00998F023957E9173957A3308F070E332
:104660007C932013B8F77E9170617D9330F0839531
:1046700071E37D9370E32A95E1F71124EF90FF90A9
:104680000F911F91CF91DF91992787FD9095089504
:104690009111C4C0803219F089508550D0F7089527
:1046A000FB01DC014150504088F08D9181341CF0B9
:1046B0008B350CF4805E659161341CF06B350CF425
:1046C000605E861B611171F3990B0895881BFCCF06
:1046D000FC010590615070400110D8F780959095CD
:1046E0008E0F9F1F0895FC016150704001900110D2
:1046F000D8F7809590958E0F9F1F08950F931F9365
:10470000CF93DF93182F092FEB018B8181FD03C01D
:104710008FEF9FEF20C082FF10C04E815F812C8100
:104720003D81421753077CF4E881F9819F012F5F97
:104730003F4F39832883108306C0E885F985812F90
:104740000995892B29F72E813F812F5F3F4F3F83AA
:104750002E83812F902FDF91CF911F910F9108957C
:10476000FA01AA27283051F1203181F1E8946F93A2
:104770006E7F6E5F7F4F8F4F9F4FAF4FB1E03ED048
:10478000B4E03CD0670F781F891F9A1FA11D680FE6
:10479000791F8A1F911DA11D6A0F711D811D911D19
:1047A000A11D20D009F468943F912AE0269F11248E
:1047B0003019305D3193DEF6CF010895462F4770F2
:1047C000405D4193B3E00FD0C9F7F6CF462F4F704D
:1047D000405D4A3318F0495D31FD4052419302D0AB
:1047E000A9F7EACFB4E0A695979587957795679551
:1047F000BA95C9F700976105710508959B01AC0151
:104800000A2E06945795479537952795BA95C9F777
:10481000620F731F841F951FA01D08959927882775
:1048200008952F923F924F925F926F927F928F9254
:104830009F92AF92BF92CF92DF92EF92FF920F932F
:104840001F93CF93DF93CDB7DEB7CA1BDB0B0FB639
:10485000F894DEBF0FBECDBF09942A8839884888F6
:104860005F846E847D848C849B84AA84B984C8848C
:10487000DF80EE80FD800C811B81AA81B981CE0F83
:10488000D11D0FB6F894DEBF0FBECDBFED01089568
:04489000F894FFCFCA
:10489400003C01FF626F7468006C656674007269A5
:1048A400676874006E6F6E65004142434445464735
:1048B40048494A4B4C4D4E4F5051525354555657FC
:1048C40058595A6162636465666768696A6B6C6D9E
:1048D4006E6F707172737475767778797A3031325D
:1048E400333435363738392B2F002D2D2D2D2D2DE2
:1048F4002D2D2D2D2D2D2D2D2D2D2D2D2D2D2D2DE4
:104904002D2D32353845414641352D453931342D2B
:10491400343744412D393543412D433541423044E8
:10492400433835423131002B2B2B0061002B6F6B48
:104934000041542B574D4F44453D41505354410081
:1049440041542B5A00474554202F776562736F6397
:104954006B657420485454502F312E310047455410
:10496400202F687474703F005365632D576562533C
:104974006F636B65742D4B65793A2000485454502D
:104984002F312E31203130312053776974636869B7
:104994006E672050726F746F636F6C730D0A55707D
:1049A40067726164653A20776562736F636B6574DF
:1049B4000D0A436F6E6E656374696F6E3A205570AD
:1049C40067726164650D0A5365632D576562536FA1
:1049D400636B65742D4163636570743A20004854B9
:1049E40054502F312E3120323030204F4B0D0A439A
:1049F4006F6E74656E742D547970653A20617070B1
:104A04006C69636174696F6E2F6A736F6E3B0D0A14
:104A14005472616E736665722D456E636F64696E60
:104A2400673A206368756E6B65640D0A0D0A007B36
:104A340022737461747573223A22002C20226D73E0
:104A440067223A22002C20226964223A22007D0047
:104A5400636F6D706C65746500300D0A0D0A00702B
:104A6400696E6700757074696D6500256C750072F8
:104A74006573657400322E302E3400756E6B6E6F64
:104A8400776E0025642E25640073657468777665F7
:104A94007273696F6E00706175736500726573750A
:104AA4006D650073746F7000636F6C6C696465533B
:104AB4007461746500636F6C6C6964654E6F7469CE
:104AC40066790066616C736500666F6C6C6F775312
:104AD4007461746500666F6C6C6F774E6F74696691
:104AE4007900736C61636B43616C696272617469B0
:104AF4006F6E006D6F766543616C69627261746993
:104B04006F6E007475726E43616C69627261746970
:104B14006F6E0063616C6962726174654D6F766576
:104B24000063616C6962726174655475726E0050E1
:104B3400726576696F757320636F6D6D616E642045
:104B44006E6F742066696E6973686564006572725D
:104B54006F7200666F7277617264006261636B00EA
:104B640070656E75700070656E646F776E00666F49
:104B74006C6C6F7700636F6C6C696465006265656B
:104B8400700063616C696272617465536C61636B1C
:104B940000436F6D6D616E64206E6F742072656387
:104BA4006F676E69736564006163636570746564DF
:104BB400006E6F7469667900636D640061726700EA
:104BC4006964004D65737361676520746F6F206C51
:104BD4006F6E6700000000007A13DE17000000000B
:104BE4006816DE17EA150316F51546166E616E0093
:0A4BF400696E66006F7666002E0001
:00000001FF
